:020000040800F2
:1000000030510020810200080B35000899300008AB
:100010000935000893090008853E0008000000002B
:10002000000000000000000000000000C101000806
:10003000B10C0008000000001D0200082537000870
:100040009B0200089B0200089B0200089B0200081C
:100050009B0200089B0200089B0200089B0200080C
:100060009B0200089B0200089B0200089B020008FC
:100070009B0200089B0200089B0200089B020008EC
:100080009B0200089B0200089B020008A1090008CF
:10009000950900089B0200089B0200089B020008CB
:1000A0009B0200089B0200089B0200089B020008BC
:1000B0009B0200089B020008153800089B020008FC
:1000C0009B0200089B0200089B0200089B0200089C
:1000D0009B020008793E00089B0200089B02000872
:1000E0009B0200089B0200089B0200089B0200087C
:1000F0009B0200089B0200089B0200089B0200086C
:100100009B0200089B0200089B0200089B0200085B
:100110009B0200089B0200089B0200089B0200084B
:100120009B0200089B020008010C00089B020008CB
:100130009B0200089B0200089B0200089B0200082B
:100140009B0200089B0200089B0200089B0200081B
:100150009B0200089B0200089B0200089B0200080B
:100160009B0200089B0200089B0200089B020008FB
:100170009B0200089B0200089B0200080000000090
:100180009B0200089B0200089B0200089B020008DB
:100190009B0200089B0200089B0200089B020008CB
:1001A00000000000000000009B020008DFF80CD0F7
:1001B00000F0AEFB004800474958000830510020CD
:1001C0002C4B19680868B0E8F04F80F30988BFF33A
:1001D0006F8F4FF0000080F311887047000000001F
:1001E00008480068006880F308884FF0000080F33A
:1001F000148862B661B6BFF34F8FBFF36F8F00DF15
:1002000000BF00BF08ED00E0DFF80C00016841F41A
:1002100070010160704700BF88ED00E0EFF30980D6
:10022000BFF36F8F134B1A681EF0100F08BF20ED3D
:10023000108A20E9F04F106009B44FF0500080F3AD
:100240001188BFF34F8FBFF36F8F06F0A1FB4FF004
:10025000000080F3118809BC19680868B0E8F04F05
:100260001EF0100F08BFB0EC108A80F30988BFF3AE
:100270006F8F704734000020EFF305807047000057
:100280000648804706480047FEE7FEE7FEE7FEE730
:10029000FEE7FEE7FEE7FEE7FEE7FEE7C137000800
:1002A000AD0100089FED1A1AF5EE000A40EE010AB2
:1002B000BDEEE00AF5EEC00A10EE100AF1EE10FAFB
:1002C00038BF401E00EE100A1349F7EE001AB8EED0
:1002D000C00A30EEC00ADFED0F0A20EE200AFCEE65
:1002E000C00A10EE900AC0F3080000EE900A01EB7D
:1002F0008000F8EE600A90ED011A70EE600A90ED51
:10030000000A71EEE01A21EE800A00EE810A7047C1
:1003100083F9223E0000004418770008B5EEC00AB9
:10032000F1EE10FA07D2DFED1E0AB4EEE00AF1EEAC
:1003300010FAA8BF7047DFED1B0AB5EEC00A60EEE9
:10034000200ABDEEE01A11EE100AF1EE10FA38BFE5
:10035000401E00EE100A1549F7EE001AB8EEC00A6A
:1003600030EEC00ADFED100A60EE200ABCEEE00AB3
:1003700010EE100AC0F3080000EE100A01EB800036
:10038000B8EE400A90ED011A70EEC00A90ED000A36
:1003900071EEE01A21EE800A00EE810A704700003B
:1003A000CD024CB483F9223E0000004418770008C7
:1003B0002DE9F05F0546002092469B46884606469A
:1003C000814640241BE0284641464746224600F02D
:1003D00004F953465A46C01A914110D311461846A3
:1003E000224600F0EBF82D1A67EB01084F46224633
:1003F0000120002100F0E2F817EB00094E41201E19
:10040000A4F10104DFDC484631462A464346BDE8F4
:10041000F09F40EA01039B0703D009E008C9121FBF
:1004200008C0042AFAD203E011F8013B00F8013BAE
:10043000521EF9D27047D2B201E000F8012B491EDA
:10044000FBD270470022F6E710B513460A46044671
:100450001946FFF7F0FF204610BD2DE9FE4F81EA57
:10046000030404F0004421F0004100944FF0000B1D
:1004700023F0004350EA01045ED052EA03045BD04B
:10048000C3F30A54C1F30A552C44A4F2F334019483
:10049000A0FB0254C1F3130141F48011C3F3130311
:1004A00043F4801301FB024400FB034E840A970AC5
:1004B00044EA815447EA8357A4FB076802958D0AF2
:1004C00005FB07854FEA932C04FB0C542705029D7E
:1004D0004FEA065847EA1637B5EB08056EEB070CEE
:1004E000870E920E47EA811742EA8312A7FB0201A8
:1004F000B6EB0B0164EB00042B0D43EA0C335E18E2
:1005000044EB1C50DA465146E7FB0201C5F31304E5
:100510004FEA0B3343EA14534FEA0432019C43EA97
:100520000603A4F10C040294009CCDE900B400F091
:1005300073F803B0BDE8F08F00200146F9E70EB56F
:10054000C10F80EAE0700844CA07002140F233433B
:100550008DE80E000A460B4600F05EF803B000BDC1
:1005600030B5041E71F1000404DB4FF0004440423A
:1005700064EB0101141E73F1000405DB1C464FF00F
:100580000043524263EB0403994208BF904230BDDE
:1005900030B50B46014600202022012409E021FA53
:1005A00002F59D4205D303FA02F5491B04FA02F550
:1005B0002844151EA2F10102F1DC30BD202A04DB23
:1005C000203A00FA02F1002070479140C2F1200366
:1005D00020FA03F3194390407047202A04DB203AA5
:1005E00021FA02F00021704721FA02F3D040C2F153
:1005F0002002914008431946704710B5141E73F14C
:10060000000408DA401C41F1000192185B411A43D2
:1006100001D120F0010010BD2DE9F04D92469B461E
:1006200011B1B1FA81F202E0B0FA80F220329046C4
:10063000FFF7C4FF04460F4640EA0A0041EA0B01F7
:1006400053465A46084313D0114653EA010019D0C5
:10065000C8F140025046FFF7C0FF05460E4650461F
:1006600059464246FFF7AAFF084305D0012004E09F
:1006700020463946BDE8F08D0020054346EAE07685
:100680002C4337430A986305E40AA0EB08000022D4
:10069000FD0A44EA47540A3002D500200146E9E742
:1006A000010510196941DDE9084500196941BDE8F6
:1006B000F04DA2E72DE9FE4F804681EA0300C00F0E
:1006C0000C46009021F0004123F00045B8EB0200F9
:1006D000A94105D24046214690461C460B4602469B
:1006E00023F00040104347D0270DC7F30A00C3F39F
:1006F0000A510290401A019040286BDAC3F31300AC
:1007000040F4801B0098924620B10023D2EB030AEC
:1007100063EB0B0B01985946C0F140025046FFF7BE
:100720004DFF06460D4650465946019A00F002F923
:1007300010EB08006141002487EA115284EAE77354
:100740001A4340D0009A62B3019A012A4FEA075235
:1007500015DC001B61EB02014FF0004202EA075278
:10076000CDE90042001C41F5801132462B46FFF7CF
:1007700053FF03B0BDE8F08F40462146F9E7001B68
:1007800061EB0201001C41F5801300185B41201849
:10079000A2F5001747EB030140EAD570B6196D4189
:1007A00011E06D084FEA360645EAC0754FEA075278
:1007B000001B61EB0201001C41F5801149084FEA62
:1007C00030000019514132462B4603B0BDE8F04FCE
:1007D000FFF713BF0098012240000023D0EB020274
:1007E00063EBE073009821464FEAE074B8EB000039
:1007F00061EB0401E9E783F000435BE781F000412E
:1008000058E72DE9F04D81EA030404F0004B21F094
:10081000004514464FF0000A23F0004150EA05025B
:1008200020D054EA01021DD0C5F30A570246C5F391
:100830001303C1F31300C1F30A5640F4801543F4C7
:100840008013A7EB0608101BD64608F2FD3873EBA1
:10085000050002D308F1010801E092185B41B8F1EC
:10086000000F03DA00200146BDE8F08D00204FF4B0
:100870008011064684460EE0171B73EB050705D36F
:10088000121B63EB050306434CEA010C49084FEACF
:10089000300092185B4150EA0107EDD152EA0300A3
:1008A00012D082EA040083EA0501084305D0101B38
:1008B000AB4106D20122002306E000224FF00043A4
:1008C00002E06FF0010253101AEB06004CEB0851E6
:1008D00010EB0A0041EB0B01BDE8F04DFFF78DBEB8
:1008E000C1F30A52C1F3130140F2FF3341F4801106
:1008F0009A4202DA00200146704740F233439A429E
:10090000A2F2334202DC5242FFF767BEFFF756BE47
:10091000064C074D06E0E06840F0010394E807004C
:1009200098471034AC42F6D3FFF744FC947F00089C
:10093000B47F0008202A06DBCB17203A41FA02F0E8
:1009400043EAE07306E041FA02F3D040C2F120022C
:10095000914008431946704730B58C1810F8012BA8
:1009600012F00F0301D110F8013B120906D110F863
:10097000012B03E010F8015B01F8015B5B1EF9D16C
:1009800001E001F8013B521EFBD1A142E6D3002059
:1009900030BDFEE7014800F0ACBD0000BC01002006
:1009A000014800F0A6BD0000BC01002010B50A8877
:1009B000C2F30A02A2F5806202804A788B78D208DC
:1009C00042EA4312C2F30A02A2F5806242808A78A8
:1009D000CB78920942EA83020B7942EA8322C2F37E
:1009E0000A02A2F5806282800A794B79520842EAB3
:1009F000C312C2F30A02A2F58062C2804A79920948
:100A000002724A79C2F301124272CA8842810A898B
:100A100082814A89C2810A7B02744A7B4274C989F5
:100A2000418201F0FFF9054908604A68821AB2F56F
:100A3000FA7F01D9486010BD886010BD4C010020CC
:100A400070B504002DED048B62D00420207104F0F9
:100A500067FA9FED318ADFED318ADFED319A9FED44
:100A6000319A00252060284604F042FA05EB850102
:100A700004EB8101B0EE690A886005EB850000EBAC
:100A8000C50004EB8000B0EE482AF0EE681AB0EE24
:100A9000401AF0EE490A583005F0E0FA6D1CEDB24C
:100AA000042DE0D3F1EE081ADFED200A9FED1E2A97
:100AB0009FED1F0AB0EE601A04F5947005F0CEFAAF
:100AC0009FED1D8A1B4904F5AE70B0EE480A04F094
:100AD000E4F91849B0EE480A091D04F5B67004F0AF
:100AE000DCF9B0EE080A84ED680AB8EE080A84ED75
:100AF000690A9FED120A204684ED6A0A9FED100AEA
:100B000084ED6B0ABDEC048BBDE8704003F0BCBF04
:100B1000BDEC048B70BD00000000FA4400007A4672
:100B20000000964400004842CDCC4C3E000000003E
:100B300000002042886E00086F12033B9A993940EA
:100B40009A9939C008B526A003F09EF940F26510C5
:100B500005F0DEF92748FFF773FF264C264E0125E6
:100B6000244803F0CFFE234841790279914214D002
:100B700011B142B1012903D0012A09D002290BD0B9
:100B8000022A05D008E09FED1D0A80ED660A03E009
:100B900090ED6C0A80ED670A4271164803F074FF0D
:100BA000144804F0ADF8134803F0D6FE0095002376
:100BB000327A0121184605F05BF905F0EDF8B4F939
:100BC00054000090B4F94030B4F92C20B4F9181056
:100BD000022005F08FFC022005F082FDC0E7000036
:100BE000496E20436861737369735F5461736B214D
:100BF0000D0A00004443002090480020000000003F
:100C0000014800F0B3BE0000F4050020016818237D
:100C1000CAB2103AB2FBF3F2054B6FF30901032A93
:100C20009B5CC36500D9091D8165084670470000BB
:100C3000686E000810B5014600208B698A6A4FF083
:100C4000C07453B1B3F5005F15D072B1012A0CD056
:100C5000022A0AD0032A09D104E01AB1012A06D0D7
:100C6000022A03D1C96AC90100D5012010BDC96A91
:100C7000A142FAD010BD002AF7D0012AF2D0022AF0
:100C8000F3D0032AF3D010BD30B50468256825F4ED
:100C900080252560046863608368402B036803D067
:100CA00099600068C26030BD9A600068C16030BD64
:100CB0007047704710B504002DED028B33D060688B
:100CC00090ED010A84ED610AD4F8D800B4F87211ED
:100CD000808904F0E9FD84ED5F0AA06890ED010AC7
:100CE00084ED630A606890ED000A84ED2E0AE068E6
:100CF000B4F8A610808904F0D7FD84ED2C0A94ED99
:100D00005F0AFFF7CFFAA068D0ED020A20EE208A32
:100D100094ED5F0AFFF702FBA068D0ED000A00EE39
:100D2000608A84ED308ABDEC028B10BD10B504469C
:100D30002DED048B04F0F0F8E06004F0E9F8C4F85D
:100D4000D80004F0DDF8606004F0DEF8A06004F084
:100D5000E7F82060002084F8A50084F8A40084F857
:100D600071019FED3E2A84F870019FED3D8AB2EE3D
:100D7000041AB2EE040AF0EE481AF0EE480A04F142
:100D8000100000F01BF9B0EE482AF0EE481AB2EE5F
:100D9000001AF0EE480AB2EE040A04F1400000F036
:100DA0000DF9DFED308A9FED309AB0EE481AB0EEC3
:100DB000682AF0EE491AF3EE040A9FED2C0A04F1BA
:100DC000700005F04BF9B0EE482AF0EE481AB2EE8A
:100DD0000E1AF0EE480AB2EE040A04F1DC0000F04C
:100DE000EDF8B0EE482AF0EE481AB2EE0E1AF0EE28
:100DF000480AB2EE040A04F5867000F0DFF8B0EE9F
:100E0000682AF0EE491AB0EE481AF3EE040A9FED94
:100E1000180A04F59E7005F021F9204604F030FB15
:100E20002046FFF747FF94ED2E0A84ED2F0A94ED3C
:100E30002C0A84ED2D0A94ED300A84ED310A94EDEC
:100E4000610A84ED620A94ED5F0A84ED600A94ED14
:100E5000630A84ED640ABDEC048B10BD9A99993E37
:100E60000000000000409C450060EA460080094503
:100E70000000FA4400284FD090F8A51021B190F856
:100E8000A4205AB1012905D090F8A420012A10D03D
:100E9000022917D0D1B2022910D013E0B0F9D41032
:100EA00000EE101AB8EEC00A80ED340A80ED330A65
:100EB00008E090ED2E0A80ED2F0A03E090ED2C0A59
:100EC00080ED2D0A80F8A52090F8711121B190F8DD
:100ED00070215AB1012905D090F87021012A10D053
:100EE000022917D0D1B2022910D013E0B0F9A01115
:100EF00000EE101AB8EEC00A80ED670A80ED660AAF
:100F000008E090ED610A80ED620A03E090ED5F0A6F
:100F100080ED600A80F871217047000010B5040070
:100F20002DED028BB0EE418A3ED084ED040AC4ED73
:100F3000030A30EEC00A9FED1E1ADFED1E0A04F010
:100F40005FFC84ED050AD4ED000A04F1240060EE94
:100F5000800AC4ED080AD4ED090A94ED011A41EEA5
:100F6000000AC4ED090A94ED020A20EE080A84ED95
:100F70000A0A94ED070A03F01AFC94ED080AD4ED6E
:100F8000090A04F12C0030EE200AD4ED0A0A30EEF2
:100F9000200A84ED0B0A94ED060A03F008FC94ED98
:100FA0000B0ABDEC028B10BD9FED030AF9E70000B0
:100FB000DB0F4940DB0F49C00000000000280BD0C8
:100FC00080EC031A9FED051A80ED051A80ED041AD6
:100FD000C0ED070A80ED060A70470000000000001F
:100FE0001CB5040031D002469FED1D0A01A98DED0C
:100FF000000A8DED010A684604F004F894F8A40094
:1010000030B104F10C01012807D002280BD00FE009
:101010009DED000A84ED330A0AE09DED000A0846C2
:1010200000F020F804E09DED000A084600F06EF89C
:1010300094F8701151B104F1D80001290BD00229A4
:1010400003D19DED010A00F061F81CBD9DED010A80
:1010500084ED660A1CBD9DED010A00F003F81CBD7D
:101060000000000010B504002DED048BB0EE408AA6
:1010700043D094ED2C0AD4ED2B0ADFED218A9FEDAD
:10108000219A30EE600AB0EE681AF0EE490A04F0D8
:10109000B7FB1D4880ED000A94ED292AD4ED272ADC
:1010A00072EE000A70EE881AF4EEE21AF1EE10FA0F
:1010B00005DDB5EEC08AF1EE10FA0CDC0FE0D4EDE0
:1010C000282AF4EEE21AF1EE10FA08D2B5EEC08A40
:1010D000F1EE10FA03D272EEC20A30EEC08A94ED3D
:1010E0002C0AB0EE681A80ED010A30EE080AF0EE24
:1010F000490A04F085FB84ED2C0ABDEC048B10BD7D
:10110000DB0F4940DB0F49C0A0000020002815D0AC
:10111000D0ED2A0A30EE800A80ED2A0AD0ED270AA7
:10112000B4EEE00AF1EE10FA06DCD0ED280AB4EED7
:10113000E00AF1EE10FA01D2C0ED2A0A7047000071
:1011400000280FD09FED080A80ED040A80ED030A05
:1011500080ED050A80ED0A0A80ED090A80ED080A93
:1011600080ED0B0A704700000000000022A002F092
:101170008BFEC92004F0CCFE2448FFF7D7FD23489E
:1011800000F10C0500F1D806204803F0E9FF1F48E4
:10119000FFF770FE1D48FFF78DFD1C48FFF720FF8D
:1011A0001A4C94F8A40020B1012806D0022808D0D7
:1011B0000AE0284604F039F906E0284604F01AF956
:1011C00002E0284604F03EF994F8700120B10128AD
:1011D00006D0022808D00AE0304604F026F906E0DE
:1011E000304604F007F902E0304604F02BF90A20FB
:1011F00004F08EFEC8E70000496E2047696D626109
:101200006C5F5461736B210A000000006C46002083
:1012100090F82020012A07D0022A05D0416A41F423
:101220008021416201207047006842690A4342619F
:1012300000207047F0B590F820500468A468012D94
:1012400005D0022D03D0416A41F4802153E014F00F
:10125000406F01D1E5004BD5C4F30164022C03D9E2
:10126000416A41F4000146E00125A5401D608D68FA
:101270004FF4C0739DB1CE6835434E6845EAC6054C
:10128000066803EB0417F5514FF4C275076805EBC8
:1012900004150E697E51097D012905D009E00E88EB
:1012A000CD6845EA4655EBE701684E5946F480762D
:1012B0004E511179D2F805504FF4C67641EA052512
:1012C000016806EB04168D511178D2F801204FF415
:1012D000C47541EA0221026805EB0415515100680A
:1012E00003EB0411425842F0010242500020F0BDCD
:1012F000416A41F4001141620120F0BD10B590F83F
:101300002020012A07D0022A05D0416A41F4802119
:101310004162012010BD3B48D0F8002242F001029A
:10132000C0F80022D0F8002222F47C52C0F800223B
:10133000D0F800224B6A42EA0322C0F800220A7D5C
:1013400002F01F0301229A40D0F81C329343C0F8E8
:101350001C32CB69B3B9D0F80C329343C0F80C32CD
:101360008C894B6864F31F434C6900EBC404C4F8D8
:1013700040320C890B6864F31F434C6900EBC404D2
:10138000C4F84432CB69012B16D1D0F80C32134388
:10139000C0F80C320C884B6864F31F434C6900EBB7
:1013A000C404C4F840320C89CB6864F31F434C6911
:1013B00000EBC404C4F844328B69002BD0F804322B
:1013C0000ED01343C0F804320B69002BD0F814324E
:1013D00008D01343C0F81432096A012904D008E088
:1013E0009343EFE79343F5E7D0F81C121143C0F89D
:1013F0001C12D0F8001221F00101C0F800120020E8
:1014000010BD000000640040704730B590F82040E7
:10141000012C05D0022C03D0416A41F480215DE00B
:101420000468002955D02469A40754D04FF4D87417
:10143000056804EB01142D5915F004059560056845
:101440002D594ED0ED08556005682C59C4F3400461
:10145000D4604FF4DA74056804EB01142D5905F0DB
:101460000F05156105682D59C5F3072595610568B8
:101470002C59240C54614FF4DC72046802EB011205
:10148000A4581C700468A458240A5C700468A4580A
:10149000240C9C700468A258120EDA704FF4DE72AD
:1014A000046802EB0112A4581C710468A458240AB1
:1014B0005C710468A458240C9C710468A258120E34
:1014C000DA71006881B1016941F0200101610020F9
:1014D00030BDE468A8E7416A41F40011416201208F
:1014E00030BD6D0D1560AFE7C16841F02001C160EE
:1014F000EDE72DE9F05F0546006800244669D0F865
:1015000004908768D0F80CB0D0F810A0D0F81880FC
:10151000F10748D0F90714D001218160B80703D53D
:10152000284600F01CFA0CE0780702D54FF400645E
:1015300007E0380702D54FF4805402E0284600F057
:101540000DFAF80516D529684FF480708860B80543
:1015500003D5284600F005FA0CE0780502D544F4DE
:10156000005407E0380502D544F4804402E02846E0
:1015700000F0F6F9F80316D529684FF4803088603A
:10158000B80303D5284600F0EEF90CE0780302D545
:1015900044F4004407E0380302D544F4803402E008
:1015A000284600F0DFF9300707D55FEACB6004D5A5
:1015B0002968102044F40074C86070074FF00807D1
:1015C00007D55FEA0B7004D52868C760284600F08D
:1015D0005FF9B00706D52868C068800702D02846A2
:1015E00000F058F9700607D55FEACA6004D529688B
:1015F000102044F480640861B00607D55FEA0A70E1
:1016000004D528680761284600F078F9F00606D569
:1016100028680069800702D0284600F070F9B003FE
:1016200008D55FEAC96005D52968102048602846BA
:1016300000F066F9F00307D55FEA097004D5286861
:101640004760284600F090F9300446D55FEA4970BB
:1016500040D5F00504D55FEAC87001D044F001041C
:10166000B00504D55FEA887001D544F00204700526
:1016700004D55FEA487001D544F00404300529D54B
:1016800018F0700F26D008F07000402815D006DC46
:10169000102809D020280AD0302816D10AE0502876
:1016A0000ED0602811D10EE044F008040DE044F0A3
:1016B00010040AE044F0200407E044F0400404E091
:1016C00044F0800401E044F480742868816921F0CA
:1016D00070018161296804204860002C05D0686A87
:1016E000204368622846FFF78FFEBDE8F09F70B583
:1016F000040003D094F8200010B104E0012070BD74
:10170000204600F081F82068016821F002010160A4
:1017100000F088FB0546052604E000F083FB401B33
:101720000A2811D8206840688007F6D4206801682C
:1017300041F00101016000F075FB05460BE000F08F
:1017400071FB401B0A2806D9606A40F400306062D1
:1017500084F82060D2E720684068C007EFD0207E80
:101760000128206801683DD021F080010160607E81
:1017700001282068016838D021F040010160A07E76
:1017800001282068016833D021F020010160E07E4B
:101790000128206801682ED041F010010160207FEF
:1017A00001282068016829D021F008010160607FCC
:1017B00001282068016824D021F004010160D4E9E7
:1017C00002010843D4E90412114308436168491E29
:1017D00008432168C86100206062012084F820006D
:1017E000002070BD41F08001C0E741F04001C5E735
:1017F00041F02001CAE721F01001CFE741F00801D4
:10180000D4E741F00401D9E710B586B004461421AD
:101810006846FEF717FE1B49206888422FD11A48F8
:101820000021026842F000720260006800F000705F
:10183000059015481038026842F0080202600068FE
:10184000022200F0080005900320CDE90210CDE946
:1018500000020920049069460C4800F0F7F90022C4
:101860000C21132000F050FB132000F03FFB00225E
:101870000C21142000F048FB142000F037FB06B0C8
:1018800010BD00000064004040380240000C0240DF
:101890007047000000B5174A016889B0914204D131
:1018A00007AB6A460021FFF7B0FD00981249A0F28D
:1018B0000120072815D20A88C0B2521C0A80BDF840
:1018C0001C208B1C03EB001052BA8280BDF81E2036
:1018D00052BAC280BDF8202052BA02819DF822205F
:1018E00082720888B0F5FA7F01D10020088009B023
:1018F00000BD000000640040D80000207047704721
:101900007047000070B5044690F82000012804D00C
:10191000606A40F40020606218E0022084F8200031
:101920002068016821F00101016000F07BFA0546A2
:101930000EE000BF00F076FA401B0A2808D9606A62
:1019400040F400306062052084F82000012070BD62
:1019500020684068C007EDD1606270BD7047704775
:101960007047704770477047704700002DE9F84393
:1019700004464FF00009CDF8009063484FF416512B
:10198000A56D0068B0FBF1F72E6894F85C10082094
:1019900000FA01F131420FD021680A6852070BD5D5
:1019A0000A6822F004020A6094F85C108840A8607B
:1019B000606D40F00100606594F85C104FF0010824
:1019C00008FA01F0304208D021684969090604D5B7
:1019D000A860606D40F00200606594F85C1004201F
:1019E0008840304208D021680968890704D5A8607A
:1019F000606D40F00400606594F85C101020884031
:101A0000304218D021680968090714D5A8602068F9
:101A10000168490304D50068000308D5A16C07E0FC
:101A20000168C90503D4016821F008010160216C37
:101A300009B12046884794F85C1020208840304245
:101A400031D021680968C9062DD5A86094F8350001
:101A500005282068016806D0490347D500680003BF
:101A60001DD4616C1CE021F0160101602068416901
:101A700021F080014161206C08B9A06C20B1206880
:101A8000016821F00801016094F85C103F20884053
:101A9000A86084F8349084F83580216D1FE0E16BF4
:101AA00009B120468847606D00282BD0606DC007C3
:101AB00014D0052084F835002068016821F0010168
:101AC00001600098401C0090B84203D8206800686C
:101AD000C007F6D184F8349084F83580E16C002991
:101AE00010D001B02046BDE8F04308470168C905A1
:101AF000D5D4016821F01001016084F8349084F895
:101B00003580CCE7BDE8F883300000202DE9F041B6
:101B1000044600F087F906465CB1002584F834508D
:101B2000022084F835002068016821F0010101607D
:101B30000DE00120BDE8F08100F074F9801B05285C
:101B400005D920206065032084F83500F2E720687D
:101B50000068C007F0D12268116820480140D4E92C
:101B600001031843D4E90336334318436369184328
:101B7000A3691843E3691843236A18430843616A59
:101B8000042903D1D4E90B131943084310602068DA
:101B90004069666A20F0070130460E430127042899
:101BA0000CD1A06A0643E06A40B12046FFF742F834
:101BB00020B14020606584F83570BAE7206846613E
:101BC0002046FFF723F894F85C203F219140816084
:101BD000656584F835700020ACE700003F8010F0A8
:101BE00070B5044690F83400002501280CD001207F
:101BF00084F8340094F835600020012E06D084F873
:101C000034000225284670BD022070BD022684F8EB
:101C1000356060652046FFF737F82068016841F0BD
:101C200001010160EEE7000070B5044600F0FAF82B
:101C30000546601C02D004480078044400F0F2F825
:101C4000401BA042FAD370BD240000202DE9F84FBC
:101C5000DFF890B100224FF001084FF0030A4FF077
:101C60000F090BF1040E00BF0B6808FA02F42340C1
:101C7000A3426ED14D68022D01D0122D0ED1D50890
:101C800000EB850CDCF820505607F70E09FA07F632
:101C9000B5430E69BE402E43CCF82060066855005F
:101CA0000F790AFA05FC07F0030726EA0C06AF4095
:101CB000374307604E68012E05D0022E03D0112E47
:101CC00001D0122E0ED18768CE6827EA0C07AE40ED
:101CD0003E4386604668A6430C79C4F300149440E2
:101CE00034434460C4688E6824EA0C04AE40264342
:101CF000C6604C68E4006FD53B4C256845F48045D0
:101D00002560246822F0030504F480440094374CD5
:101D10002E19D6F8084895072F0F09FA07F5AC4396
:101D2000334DA84201D100252EE0324DA84201D109
:101D3000012529E0304DA84201D1022524E02F4D94
:101D4000A84201D103251FE02D4DA84202D1042550
:101D50001AE041E02B4DA84201D1052514E02A4D9F
:101D6000A84201D106250FE0284DA84201D1072540
:101D70000AE0274DA84201D1082505E0254DA842DB
:101D800001D1092500E00A25BD402543C6F80858C1
:101D9000DBF800405D464E689C43F60300D51C43CB
:101DA0002C60DEF8004075464E689C43B60300D5B3
:101DB0001C432C600B4D08352C684E689C43F60282
:101DC00000D51C432C60074D0C352C684E689C4395
:101DD000B60200D51C432C60521C102AFFF444AFFD
:101DE000BDE8F88F003C014044380240003001401B
:101DF000000002400004024000080240000C0240C3
:101E0000001002400014024000180240001C024072
:101E100000200240002402400AB181617047090499
:101E2000FBE70000014880687047000024000020A4
:101E300002488168027811448160704724000020C4
:101E40000B4810B5016841F400710160016841F46C
:101E500080610160016841F480710160032000F03D
:101E600073F80F2000F006F800F024F8002010BDF1
:101E7000003C024070B50D4D04464FF47A7128784D
:101E8000B1FBF0F00A490968B1FBF0F000F02BFD5E
:101E900048B9102C07D200222146501E00F034F819
:101EA00000206C6070BD012070BD00002400002087
:101EB000300000200C4882B0016841F4804101608C
:101EC000006800F4804000900748001F016841F05E
:101ED000805101600068002200F0805000900F21C6
:101EE000901E02B000F010B844380240002809DB10
:101EF00000F01F02012191404009800000F1E02024
:101F0000C0F8001170470000F0B40E4B1B680C467F
:101F1000C3F30223C3F10705042D00D90425191DBD
:101F2000072901D2002300E0DB1E012606FA05F195
:101F3000491E214099409E40761E16403143F0BC18
:101F400001F0B2BF0CED00E0064900F0070208689E
:101F50004FF6FF03184040EA0220034A104308608E
:101F6000704700000CED00E00000FA052DE9F04795
:101F70000E46050065D0DFF81481D8F80000F7B2EE
:101F800000F00F00B04207D288F80070D8F80000C7
:101F900000F00F00B04254D128683D4C810712D5A3
:101FA000400703D5206840F4E050206028780007FF
:101FB00003D5206840F4604020602068A96820F0C4
:101FC000F000084320602878C0072DD030496868A9
:101FD0000839012812D0022813D0032811D009682B
:101FE000890700292DDA216821F0030101432160CE
:101FF000FFF718FF814641F2883A0EE0096889032D
:10200000EFE709688901ECE7FFF70CFFA0EB090196
:10201000514502D90320BDE8F0872068696800F0C7
:102020000C00B0EB810FEFD1D8F80010404601F062
:102030000F01B14207D90770006800F00F00B042ED
:1020400001D00120E7E72878400705D52068E96836
:1020500020F4E050084320602878000706D5206867
:10206000296920F4604040EAC100206000F036F8A1
:102070002168084AC1F30311515CC8400649086051
:102080000F20FFF7F7FE0020C5E70000003C0240EC
:1020900008380240706E00083000002004480549EE
:1020A00000680968044AC1F38221515CC840704746
:1020B0003000002008380240806E000804480549BE
:1020C00000680968044AC1F34231515CC840704756
:1020D0003000002008380240806E0008154810B516
:1020E000006810F00C02144813D01449042A0FD0D1
:1020F000082A0ED10F4C241F2268236802F03F02E9
:102100005B0207D52068C0F38810A0FB010106E040
:10211000084610BD2168C1F38811A1FB000100230E
:10212000FEF746F92168C1F30141491C4900B0FBA3
:10213000F1F010BD083802400024F400001BB70085
:102140002DE9F84F050076D02878DFF8F8B2BE4CBC
:10215000C00749D0DBF800105846C1F381010129BE
:1021600008D00068C0F3810002280AD1201D006851
:10217000400206D52068800336D568680028E2D082
:1021800032E06868B0F5803F10D0B0F5A02F20682D
:1021900010D020F480302060206820F4802020605F
:1021A0006868A0B1FFF73EFE06460CE0206840F4E8
:1021B0008030F4E740F480202060F7E7FFF732FE3C
:1021C000801B642873D820688003F7D50CE0FFF7E4
:1021D00029FE064605E000BFFFF724FE801B6428A9
:1021E000F0D820688003F7D42878DFF86082800771
:1021F0004FF000093ED5DBF80010584611F00C0FE7
:1022000009D00068C0F3810002280BD18D48001F5F
:102210000068400206D42068800715D5E8680128C8
:1022200009D111E0E868B8B10120C8F80000FFF753
:10223000F9FD064605E002E1FFF7F4FD801B0228E8
:10224000C0D820688007F7D52068296920F0F800F9
:1022500040EAC10020600DE0C8F80090FFF7E2FD01
:10226000064604E0FFF7DEFD801B02281FD8206829
:102270008007F7D42878000722D5724E7448696920
:102280006C3671B101210160FFF7CCFD074604E017
:10229000FFF7C8FDC01B022809D830688007F7D5B2
:1022A0000EE0C0F80090FFF7BDFD074605E083E0B3
:1022B000FFF7B8FDC01B02287ED830688007F7D42E
:1022C0002878400768D5DFF87CA100270AF1380A92
:1022D000DAF80000C0000BD4DAF8001041F08051A9
:1022E000CAF80010DAF80000012700F080500090D2
:1022F000584E3068C00510D4306840F480703060AB
:10230000FFF790FD009005E0FFF78CFD0099401A63
:10231000022851D83068C005F6D54A4EA8686836FC
:1023200001280FD00528306810D020F0010030605F
:10233000306820F004003060A868B8B1FFF772FD83
:1023400000900FE0306840F00100F4E740F0040036
:102350003060F7E7FFF766FD0099411A41F28830D7
:10236000814264D830688007F4D50EE0FFF75AFD4B
:10237000009007E0FFF756FD0099411A41F28830BE
:10238000814254D830688007F4D42FB1DAF80010B5
:1023900021F08051CAF80010A869C0B3DBF8001022
:1023A000C1F3810102294AD00228484607D0C8F863
:1023B0006000FFF737FD00E039E005463AE04746A8
:1023C000C8F86000FFF72EFD064604E0FFF72AFD7F
:1023D000801B02282BD820688001F7D4D5E907019B
:1023E0000843A96A1C4A490802EB01416A6A41EAAA
:1023F0008211084395F82C1040EA01611148001F32
:10240000016001203866FFF70DFD054605E014E088
:10241000FFF708FD401B022809D820688001F7D586
:102420000BE000BFFFF7FEFC401B022802D903208F
:10243000BDE8F88F20688001F4D40020F8E701207F
:10244000F6E700000838024000380240000047422A
:10245000800E4742007000400000FFFF70B504008E
:1024600005D00025A56294F8510010B106E00120C6
:1024700070BD84F85050204600F030F8022084F8F7
:1024800051002068016821F040010160D4E9010198
:102490000843D4E903121143084361690843218BBF
:1024A00001F400710843E1690843216A0843A16A05
:1024B000084321680860A069042101EA1040616AAC
:1024C0000843216848602068C16921F40061C16146
:1024D0006565012084F85100002070BDF0B587B01B
:1024E000044614216846FDF7ADFF2A48284B2268B0
:1024F0000024284914380225032605279A4227D1AB
:102500000A6842F480520A60096801F4805105911A
:10251000016841F002010160016801F002010591CA
:10252000016841F001010160006802AA00F00100A9
:1025300005900820CDE9000582E8D00069461648DC
:10254000FFF784FB8020CDE900056946134818E0B9
:10255000134B9A421AD10A6842F480120A60096841
:1025600001F480110591016841F0200101600068CB
:10257000694600F0200005904FF46070CDE9000539
:10258000084802AA82E8D000FFF760FB07B0F0BD60
:102590000030014044380240000402400000024084
:1025A00000500140001402402DE9F84F044690F815
:1025B000500000271D461646894601280DD04FF0D1
:1025C000010B84F850B0FFF72DFC804694F85100C1
:1025D000BA46012804D002278EE00220BDE8F88F19
:1025E000B9F1000F7DD0002E7BD0032084F851007C
:1025F000C4F854A0C4F83090A686E686C4F838A083
:10260000A4F83CA0A4F83EA0C4F844A0C4F840A09C
:10261000A068B0F5004F04D12068016841F4804102
:10262000016020680168490603D4016841F0400157
:102630000160E068B0F5006F606803D030B3012E30
:1026400024D040E008B1012E1CD1206B2168008805
:10265000C86006E020688168890709D5216B098870
:10266000C160206B801C2063E08E401EE08609E084
:10267000FFF7D8FBA0EB0800A84202D3681C01D0EA
:1026800031E07DB3E08E0028E4D11FE0206B2168AB
:102690000078087306E020688168890709D5216BF6
:1026A00009780173206B401C2063E08E401EE08699
:1026B00009E0FFF7B7FBA0EB0800A84202D3681CB3
:1026C00001D010E075B1E08E0028E4D142462946E1
:1026D000204600F053FF08B120206065A06820B1BB
:1026E00007E008E0FFE7032706E02068C16880688C
:1026F0000090606D00B1012784F851B084F850A0BB
:1027000038466BE72DE9F84F044690F85000002753
:102710000A9E1D4692468B464FF0010901280ED0B5
:10272000012084F85000FFF77DFB804694F85100AB
:10273000616801280CD0B1F5827F07D102E0022048
:10274000BDE8F88FA16809B9042801D00227C2E0CA
:10275000BBF1000F27D0BAF1000F24D01DB394F8BD
:102760005100042802D0052084F851000020606543
:10277000C4F838A0E587A587C4F830B0E586A586FB
:102780002064606420680168490603D4016841F050
:1027900040010160E068B0F5006F606805D0E8B303
:1027A000012D46D07FE0012795E008B1012D39D1F8
:1027B000206B21680088C860206B801C2063E08E3D
:1027C000401EE0862EE02068816889070FD5E18EE3
:1027D00069B1B9F1010F0AD1216B0988C160206B81
:1027E000801C2063E08E401EE0864FF000092068C8
:1027F0008168C9070CD0E18F51B1C068A16B088016
:10280000A06B801CA063E08F401EE0874FF00109A1
:10281000FFF708FBA0EB0800B04200E009E001D39D
:10282000701C50D1E08E0028CDD1E08F0028CAD195
:102830003FE0206B216800780873206B401C206308
:10284000E08E401EE0862EE02068816889070FD563
:10285000E18E69B1B9F1010F0AD1216B09780173D9
:10286000206B401C2063E08E401EE0864FF0000984
:1028700020688168C9070CD0E18F51B1C068A16B95
:102880000870A06B401CA063E08F401EE0874FF0F3
:102890000109FFF7C7FAA0EB0800B04202D3701C91
:1028A00001D010E07EB1E08E0028CDD1E08F00286D
:1028B000CAD142463146204600F060FE28B10127C9
:1028C0002020606507E0032705E0A06818B92068AC
:1028D000C16880680090012084F85100002084F8CD
:1028E000500038462CE710B5401EB0F1807F01D370
:1028F000012010BD4FF0E02460610F21601701F04E
:10290000D3FA0020A06107202061002010BD70478D
:10291000704770B590F83C20012A19D0012400F8C6
:102920003C4F0222427050F83C3C5A689D6822F0AD
:1029300070060A684968324325F0800529435A60C9
:1029400050F83C2C9160447000210170084670BD25
:10295000022070BD10B5040003D094F83D0010B102
:1029600007E0012010BD002084F83C00204600F064
:102970000DF8022084F83D00211D206800F058FF6A
:10298000012084F83D00002010BD000008B500685B
:102990000B49884212D10B48016841F004010160E3
:1029A0000068002200F00400009005211E20FFF7BF
:1029B000ABFABDE808401E20FFF798BA08BD00003A
:1029C000000800404038024070B5044690F83C00D2
:1029D000012817D0012584F83C50022084F83D00DE
:1029E0002068826822F0770222F47F4282600868C1
:1029F000502830D00DDC20284DD005DC98B31028AD
:102A00003BD148E0022070BD302844D0402834D16A
:102A100039E0602828D0702806D0B0F5805F2CD02F
:102A2000B0F5005F29D10AE0CB68D1E90121206827
:102A300000F062FF2068816841F0770109E0CB680F
:102A4000D1E90121206800F057FF2068816841F436
:102A50008041816011E0CA684968206801F020F86F
:102A60005021206807E016E0CA684968206801F034
:102A700028F86021206800F049FF84F83D500020CC
:102A800084F83C0070BDCA684968206801F008F805
:102A900040212068EFE7226801461046EBE77047C7
:102AA00070B50446006801694FF00005C943890705
:102AB00015D4C168C943890711D4E91E01610120F9
:102AC0002077206880698007204602D0FFF7E7FF63
:102AD00004E000F0C3F8204600F058F9257720689C
:102AE0000169C943490717D4C168C943490713D4C9
:102AF0006FF004010161022020772068806910F4E2
:102B0000407F204602D0FFF7CAFF04E000F0A6F89D
:102B1000204600F03BF9257720680169C943090781
:102B200016D4C168C943090712D46FF008010161C6
:102B3000042020772068C0698007204602D0FFF774
:102B4000AEFF04E000F08AF8204600F01FF9257778
:102B500020680169C943C90617D4C168C943C906B9
:102B600013D46FF010010161082020772068C0693C
:102B700010F4407F204602D0FFF791FF04E000F000
:102B80006DF8204600F002F9257720680169C943F5
:102B9000C90708D1C168C943C90704D1891E0161A9
:102BA000204600F0F4F820680169C943090609D4F9
:102BB000C168C943090605D46FF080010161204650
:102BC000FFF7A5FE20680169C943490609D4C16819
:102BD000C943490605D46FF040010161204600F069
:102BE000D7F820680169C94389060BD4C168C94375
:102BF000890607D46FF0200101612046BDE87040CE
:102C0000FFF786BE70BD000010B586B004461421E3
:102C10006846FDF717FC0E492068884215D10D481B
:102C20000021026842F002020260006800F0020027
:102C30000590202000900220CDE901010321CDE97B
:102C4000031069460448FFF701F806B010BD000004
:102C5000000400403038024000040240704770B564
:102C6000044690F83C000D4601280DD0012684F85A
:102C70003C60022084F83D0042B1042A18D0082AA2
:102C80002AD00C2A4DD139E0022070BD206800F016
:102C900045FE2068816941F00801816120688169F1
:102CA00021F004018161206881692A69114311E0E2
:102CB000206800F063FE2068816941F40061816151
:102CC0002068816921F480618161206881692A69B5
:102CD00041EA0221816124E0206800F085FE20683D
:102CE000C16941F00801C1612068C16921F0040196
:102CF000C1612068C1692A69114311E0206800F0B0
:102D0000A7FE2068C16941F40061C1612068C16902
:102D100021F48061C1612068C1692A6941EA022108
:102D2000C16184F83D60002084F83C0070BD10B59E
:102D3000040003D094F83D0010B107E0012010BD5D
:102D4000002084F83C00204600F00CF8022084F8B3
:102D50003D00211D206800F06BFD012084F83D003E
:102D6000002010BD08B500680649884208D1064811
:102D7000016841F002010160006800F0020000906B
:102D800008BD000000040040403802407047704712
:102D90007047000030B401680A68D2065ED50A6840
:102DA0004968416B304A096891420AD02F4A9142E2
:102DB00007D02D4A6032914203D02C4A60329142B2
:102DC00001D1202222E0284B1833DA1499421DD079
:102DD000264B1833994219D0234B7833994215D09A
:102DE000224B7833994211D01F4B920230339942D3
:102DF0000CD01E4B3033994208D01B4B9033994274
:102E000004D01A4B9033994200D092010B6823F002
:102E100001030B60416B154B09684833994202D995
:102E20001249091F05E0104BA833994203D90F49F5
:102E300008390A6008E00C4C0B4B4834103BA142A7
:102E400001D9DA6000E09A60426B818D12685160AE
:102E5000416B09680A6842F001020A60816A30BC6D
:102E60000348FDF7A3BD000010600240106402405B
:102E70009048002070B5040004D094F83900002573
:102E800010B106E0012070BD84F83850204600F0F3
:102E900023F8242084F839002068C16821F4005107
:102EA000C160204600F060FE2068016921F4904175
:102EB00001612068416921F02A0141612068C168EF
:102EC00041F40051C160E563202084F8390084F8A2
:102ED0003A00002070BD0000F0B587B0064614210E
:102EE0006846FDF7AFFA3349DFF8C4C037680025FC
:102EF00030481439022201230324674539D1076879
:102F000047F010070760006800F01000059008689F
:102F100040F0020008600868694600F00200059071
:102F2000C0208DE81D00072004902348FEF78EFE88
:102F3000234C224820604FF00060C4E90105401492
:102F4000C4E903506561A561E561256220466562BB
:102F5000FEF7DCFD08B1FDF7ACFE7463002206212C
:102F60002520A663FEF7D0FF2520FEF7BFFF07B0A0
:102F7000F0BD144DAF42FAD1056845F0200505605B
:102F8000006800F020000590086840F040000860EC
:102F90000868694600F0400005904FF484408DE8D1
:102FA0001D00082004900848FEF750FEDFE70000EF
:102FB00000100140443802400004024040640240D6
:102FC000F4050020001401400018024030B40368EA
:102FD000DC6844F01004DC6030BC00F088BD2DE9F2
:102FE000F843044690F839001F4616460D4620283F
:102FF00050D1A5B19EB194F8380001284AD00120E3
:1030000084F838004FF00008C4F83C80212084F890
:103010003900FEF707FFA6848146E68426E00120FA
:10302000BDE8F883E08C401EE084A0684B46B0F514
:10303000805F4FF000024FF080012046009703D0E0
:1030400000F0E8FEE8B90DE000F0E4FEC8B9288819
:103050002168C0F308004860206908B16D1C05E0D4
:10306000AD1C03E0216815F8010B4860E08C0028D6
:10307000D8D14B46002240212046009700F0CAFEDE
:1030800008B10320CCE7202084F8390084F8388088
:103090000020C5E70220C3E7FEE700002DED048B0A
:1030A0001EA000F0F1FE02F0E5FD002002F09EFD02
:1030B00002F06AFD0A2002F02BFF00F045F81C4DDB
:1030C0009FED1C8ADFED1C8A9FED1C9ADFED1C9A98
:1030D000002400BF04EB840000EBC40005EB80007B
:1030E000B0EE482AF0EE681AB0EE491AF0EE690A1E
:1030F000B7EE080A02F0B2FF641CE4B2072CE9D371
:10310000002002F073FD02F047FE0E4C206803F031
:10311000D9FB012002F0FCFEF8E70000496E2049CF
:103120006E697469616C5F5461736B0D0A00000015
:10313000004500200000804600409C450000000043
:10314000CDCCCC3D0800002010B502F0C7FBBDE897
:10315000104002F0B1B900000F4810B50D490160F0
:103160000321416000214FF400228160C0E9031275
:103170004FF440124261017641768176C176017743
:103180004177FEF7B4FA002803D0BDE81040FDF700
:1031900090BD10BD00640040BC010020094808B586
:1031A000016841F4800101600068002200F48000A1
:1031B000009005213A20FEF7A7FEBDE808403A201E
:1031C000FEF794BE3038024000B587B01C22074994
:1031D0006846FDF71EF90021684602F0A7FE044983
:1031E000486004A000F050FE07B000BD886D0008E4
:1031F0000000002045766572797468696E67206901
:1032000073207265616479210A5374617274207449
:103210006F20666967687421212121210A0000005E
:103220002DE9F04387B014216846FDF70BF93A48C1
:103230000024016841F002010160016801F002010F
:103240000591016841F040010160016801F0400111
:103250000591016841F001010160016801F001017F
:103260000591016841F008010160016801F0080161
:103270000591016841F080010160016801F0800161
:103280000591016841F020010160016801F0200111
:103290000591016841F01001016000681F4F00F0C6
:1032A00010004FF4C0650590002229463846FEF70D
:1032B000B3FDDFF86C80012240214046FEF7ACFDF3
:1032C000DFF86090FE14002231464846FEF7A4FD68
:1032D0000022F1004046FEF79FFD00950125CDE953
:1032E0000154694638460394FEF7B0FC44F24000AE
:1032F0000090CDE90154694640460394FEF7A6FCD0
:103300000096CDE90154694648460394FEF79EFCB9
:1033100007B0BDE8F08300003038024000040240EE
:103320000014024000100240114810B50F4901601E
:103330004FF4827141604FF4004181600021C1600F
:103340004FF400720161C0E905122022C0E9072193
:10335000416281620A21C162FFF780F8002803D030
:10336000BDE81040FDF7A5BC10BD000000300140D5
:1033700044040020104810B50E4901604FF48271DA
:10338000416000218160C1604FF400720161C0E9B9
:1033900005123022C0E90721416281620A21C1621F
:1033A000FFF75CF8002803D0BDE81040FDF781BCB2
:1033B00010BD0000005001409C04002010B58AB0F0
:1033C000002407941C2168460894FDF73BF8164832
:1033D000144901600921C0E9011441F26701C0E903
:1033E00003148461FFF7A3FC08B1FDF762FC0794A6
:1033F00007A90D480894FFF78CFA08B1FDF759FCAE
:103400006020CDE900040294042269460648049431
:10341000FFF725FC08B1FDF74CFC0348FFF7F4FB70
:103420000AB010BD00040040F404002010B586B0BE
:1034300000241748009401940294039404941349BF
:10344000059401606321C0E9011440F24731C0E9ED
:10345000031480218161FFF77DFA08B1FDF729FC93
:103460004FF48050009069460948FFF7ADFA08B163
:10347000FDF71FFC049404A905480594FFF749FAD9
:10348000002801D0FDF715FC06B010BD0008004073
:10349000340500200C4810B50A4901600B49416011
:1034A000002181600C22C160C0E904128161C16108
:1034B000FFF7E0FC002803D0BDE81040FDF7F9BBA2
:1034C00010BD00000010014074050020A08601001E
:1034D0000C4810B50A4901604FF4E1314160002108
:1034E00081600C22C160C0E904128161C161FFF7F3
:1034F000C1FC002803D0BDE81040FDF7DABB10BDC9
:1035000000140140B4050020FEE77047012002F0DE
:10351000FFFCFBE7154D164C03F06AFB20602968A1
:10352000401A0528E0680ED903F0CCF9206903F0B1
:10353000C9F9206A03F0C6F9A06903F0C3F9E0698C
:1035400003F04AF90DE003F047F9206903F044F96C
:10355000206A03F041F9A06903F03EF9E06903F045
:10356000B1F93221024802F0DAFCD5E74C01002023
:1035700000000020012002F0CBFCFBE738B5044638
:103580001248134B0068B0FBF3F04FF47A735843C2
:1035900000906068B0F5827F0DD10B46009200224A
:1035A0008021204600F016F870B1606D40F02000D8
:1035B0006065032038BD009830B1401E009020683F
:1035C0008068C0430006F6D5002038BD30000020DA
:1035D00000366E012DE9F0411D4617460E460446A1
:1035E000DDF8188008E0681C06D0FEF71BFCA0EB95
:1035F0000800A8420BD255B12068806836EA000066
:1036000030D00020B842EED10020BDE8F081206823
:10361000416821F0E00141606068B0F5827F0BD124
:10362000A068B0F5004F02D0B0F5806F04D12068DB
:10363000016821F040010160A06AB0F5005F09D186
:103640002068016821F4005101602068016841F49C
:1036500000510160012084F85100002084F85000DE
:103660000320D2E70120CDE7B2B002F0C5FF1C2253
:103670002A496846FCF7CDFE0021684602F056FC58
:10368000274C26491C22A0601C3107A8FCF7C1FE6C
:10369000002107A802F04AFC2049E0601C223831D2
:1036A0000EA8FCF7B6FE00210EA802F03FFC1B4955
:1036B00020611C22543115A8FCF7ABFE002115A88F
:1036C00002F034FC154920621C2270311CA8FCF762
:1036D000A0FE00211CA802F029FC1049A0611C22B8
:1036E0008C3123A8FCF795FE002123A802F01EFCD4
:1036F0000A49E0611C22A8312AA8FCF78AFE0021B1
:103700002AA802F013FC6061606803F00FF802F071
:1037100093FF012002F0FCFBFBE70000A46D000812
:103720000000002010B5FEF783FB03F053FA0128D8
:1037300003D0BDE8104003F0DFB910BD30B593B041
:1037400030216846FCF77EFE14210CA8FCF77AFEB7
:1037500019480025016841F080510160006800F0BF
:10376000805011901548016841F4404101600068A3
:10377000022400F4404011900120009000040190C8
:103780008001CDE9064006200890A820CDE9090473
:1037900004200B906846FEF7D3FC0CA90F2081E8AB
:1037A00031004FF4A0500F90E002109005210CA8BA
:1037B000FEF7DCFB13B030BD403802400070004023
:1037C0001048016841F4700101600F48016841F040
:1037D000010101600C4A00210832116002680B4BA4
:1037E0001A400260031D0A4A1A60026822F480220D
:1037F000026005480C3001600249580680390860B3
:103800007047000088ED00E000380240FFFFF6FE40
:103810001030002410B50448FFF742F9034801684E
:10382000491C016010BD0000340500209C000020F0
:10383000F0B50268254C264D264E274F274B4FF0FA
:10384000804CA04209D0604507D0A84205D0B042C4
:1038500003D0B84201D0984204D122F0700E4A68D9
:1038600042EA0E02A0421BD0604519D0A84217D0F0
:10387000B04215D0B84213D0984211D0184DA8428A
:103880000ED0184DA8420BD0174DA84208D0174DA6
:10389000A84205D0164DA84202D0164DA84203D129
:1038A00022F44075CA682A434D6922F080022A43F7
:1038B00002608A68C2620A688262A04201D09842AD
:1038C00001D10969016301214161F0BD000001409E
:1038D0000004004000080040000C004000040140CB
:1038E00000400140004401400048014000180040F1
:1038F000001C00400020004010B5846842EA03220A
:1039000024F47F440A432243826010BD826822F07F
:1039100070020A4342F0070181607047F0B5026A05
:1039200022F001020262036A42688469124E24F0A6
:1039300073050C682C4323F002058B682B430D4D57
:10394000A84201D0B04205D123F00807CB683B4321
:1039500023F00403A84201D0B04205D14D6922F4FE
:10396000407215438A692A43426084614968416311
:103970000362F0BD0000014000040140F0B5026A9E
:1039800022F010020262026A436884690D6824F41E
:10399000E64444EA05248D6822F0200242EA05123A
:1039A0000F4D104EA84201D0B04206D1CF6822F090
:1039B000800242EA071222F04002A84201D0B0423F
:1039C00007D14D6923F4406343EA85038D6943EAD7
:1039D000850343608461496881630262F0BD000031
:1039E0000000014000040140F0B5026A22F4807238
:1039F0000262026A4368C46922F4007224F073050B
:103A00000C68124E2C438D6842EA05220E4DA842E6
:103A100001D0B04206D1CF6822F4006242EA072208
:103A200022F48062A84201D0B04207D14D6923F44C
:103A3000405343EA05138D6943EA05134360C461AB
:103A40004968C1630262F0BD00000140000401400A
:103A500030B5026A22F480520262046A4268C36985
:103A60000D6823F4E64343EA05238D6824F40054EB
:103A700044EA0534084DA84202D0084DA84204D1BA
:103A80004D6922F4804242EA85124260C36149686E
:103A90000164046230BD00000000014000040140E8
:103AA00010B5036A046A24F001040462846924F0F6
:103AB000F00444EA021423F00A020A438461026219
:103AC00010BD10B5036A23F0100303628369046A12
:103AD00023F4704343EA023224F0A00343EA0111C5
:103AE0008261016210BD012002F012FAFBE7F8B515
:103AF000044690F83A00202833D179B372B394F891
:103B0000380001282DD0012084F83800A162A28558
:103B10000025E563222084F83A00606B13460565B2
:103B20000846666B216802463046091DFEF758F8C4
:103B3000206801684168009184F83850C16841F4F8
:103B40008071C1602068416941F0010141612068D4
:103B5000416941F0400141610020F8BDFFE70120CB
:103B6000FBE70220F9E700002DE9F0410446006878
:103B70000169E26821F44051114301612169A068A3
:103B8000E26908436169114322680843D16849F238
:103B90000C6399430143D16020684169A26921F413
:103BA000407111434161E2696425B2F5004F9748C5
:103BB000974922684FF032083FD08A4201D08242B2
:103BC0007CD1FEF77BFA00EBC00101EB00106168CD
:103BD0008900B0FBF1F6FEF771FA00EBC00101EBD2
:103BE000001061688900B0FBF1F0B0FBF5F06FF0F8
:103BF0001801484306EB800108EB0110B0FBF5F01B
:103C000000F0F006FEF75AFA00EBC00101EB0010DD
:103C100061688900B0FBF1F0B0FBF5F006EB00162F
:103C2000FEF74CFA00EBC00101EB0010616889005F
:103C3000B0FBF1F7FEF742FAD2E08A4201D08242AD
:103C40003DD1FEF73BFA00EBC00101EB00106168CB
:103C50004900B0FBF1F0B0FBF5F00601FEF72EFADB
:103C600000EBC00101EB001061684900B0FBF1F707
:103C7000FEF724FA00EBC00101EB00106168490077
:103C8000B0FBF1F0B0FBF5F06FF01801484307EB23
:103C9000800108EBC100B0FBF5F000F0F80006EB86
:103CA0004006FEF70BFA00EBC00101EB0010616863
:103CB0004900B0FBF1F7FEF701FA3CE055E0FEF7F2
:103CC000EDF900EBC00101EB001061684900B0FBA9
:103CD000F1F0B0FBF5F00601FEF7E0F900EBC001F2
:103CE00001EB001061684900B0FBF1F7FEF7D6F96F
:103CF00000EBC00101EB001061684900B0FBF1F07E
:103D0000B0FBF5F06FF01801484307EB800108EBBA
:103D1000C100B0FBF5F000F0F80006EB4006FEF73E
:103D2000BDF900EBC00101EB001061684900B0FB78
:103D3000F1F7FEF7B3F900EBC00101EB0010616889
:103D40004900B0FBF1F0B0FBF5F06FF0180148430B
:103D500007EB800108EBC100B0FBF5F000F00700B5
:103D6000216830448860BDE8F081FEF797F900EBE8
:103D7000C00101EB001061688900B0FBF1F6FEF7AD
:103D80008DF900EBC00101EB001061688900B0FB08
:103D9000F1F0B0FBF5F06FF01801484306EB80013D
:103DA00008EB0110B0FBF5F000F0F006FEF776F935
:103DB00000EBC00101EB001061688900B0FBF1F07D
:103DC000B0FBF5F006EB0016FEF768F900EBC0015A
:103DD00001EB001061688900B0FBF1F7FEF75EF9B6
:103DE00000EBC00101EB001061688900B0FBF1F04D
:103DF000B0FBF5F06FF01801484307EB800108EBCA
:103E00000110B0FBF5F000F00F00A9E7001401402D
:103E1000001001402DE9F041984617460E46044631
:103E2000069D1DE0681C1BD02DB1FDF7FBFFA0EB2C
:103E30000800A84214D92068C16821F4D071C1607B
:103E40002068416921F001014161202084F8390096
:103E500084F83A00002084F838000320BDE8F0819F
:103E60002068006836EA000004D00020B842D9D0AB
:103E70000020F3E70120F9E70148FEF78BBF0000BF
:103E800074050020FEE700000FB4054B10B503A930
:103E9000044A029800F0F4F810BC5DF814FB00002E
:103EA000CD4E0008B80100200907090E002804DBE8
:103EB00000F1E02080F80014704700F00F0000F1DE
:103EC000E02080F8141D70472DED020B019820F0C2
:103ED000004001909DED000B02B0704702E008C861
:103EE000121F08C1002AFAD170477047002001E074
:103EF00001C1121F002AFBD1704700002DE9FF5FAE
:103F000082B00021DDE90430020DDDF840B003434A
:103F100018D044F61050A2F2FF3242431514119803
:103F200001281FD0A5EB0B00401C5FEA000A4FF0F0
:103F300000064E4FDFF83891B046504615D5CAF10D
:103F4000000413E0119801244AA3012801D16FEA6B
:103F50000B010298119AC0E90031C0E9024206B093
:103F6000BDE8F09FCBF10000DFE704460021404AA6
:103F7000491842EB0450CDE9001012E0E00707D0E9
:103F800032463B4640464946FCF767FA804689463A
:103F900032463B4610461946FCF75FFA06460F4686
:103FA0006410002CEAD1DDE90401DDE90023BAF157
:103FB000000F06DAFCF751FA42464B46FCF74DFA81
:103FC00005E0FCF71EFC42464B46FCF71AFC044693
:103FD0000E460022284BFCF7C3FA03D84FF0FF30FF
:103FE000014607E00022254B20463146FCF762FBE4
:103FF000FCF776FC102409E0002C0ADB0A220023DF
:10400000FCF7D6F9039B30321A55641E50EA0102C0
:10401000F2D1641C039AC4F111031444119A012AC9
:1040200003D0012208430DD10AE0084304D0002048
:104030004FF0110B119072E7A3EB0B056D1E0DE015
:104040005B4504DD4FF0000205F1010504E003DAF1
:104050004FF00002A5F10105002AECD00298119959
:10406000C0E90231C0E9004579E7000000001440D2
:104070000000F03F300000000000F0430000E03F8F
:104080002DE9FF4F95B09B468946064600250FE275
:10409000252877D100242746F84A0121059400E01D
:1040A000044316F8013F203B01FA03F01042F7D118
:1040B00030782A2811D06FF02F033078A0F1300229
:1040C000092A16D8059A44F0020402EB820203EB97
:1040D00042021044761C0590EFE759F8042B059234
:1040E000002A03DA504244F40054059044F00204DC
:1040F000761C30782E2816D116F8010F44F00404EF
:104100002A280DD06FF02F023078A0F13003092B50
:1041100009D807EB870302EB4303C718761CF3E7C4
:1041200059F8047B761C30786C280FD006DC4C28BC
:1041300017D068280DD06A2814D104E0742810D054
:104140007A280FD10DE044F400140AE044F48014FE
:1041500001E044F440147278824202D104F58014E4
:10416000761C761C307866280BD013DC582877D064
:1041700009DC002875D04528F6D04628F4D0472819
:104180001AD19DE118E0632835D0642879D06528DC
:1041900012D195E1702873D008DC6728F1D0692826
:1041A0006FD06E280DD06F2806D1B5E073282CD0C3
:1041B000752875D0782874D05A46179990476D1C89
:1041C00075E1C4F30250022809D003280DD0D9F8B4
:1041D000001004280DD00D6009F1040967E1D9F839
:1041E0000010EA17C1E90052F6E7D9F800100D8077
:1041F000F2E70D70F0E719F8041B8DF800100020AD
:104200008DF80100EA46012003E059F804AB4FF0B5
:10421000FF3061074FF0000102D40DE008F1010109
:104220008846B9420FDA8045F8DB1AF808100029F1
:10423000F4D108E008F1010188468142FADB1AF85E
:1042400008100029F6D105985B46A0EB0807214627
:104250003846179A00F094FA284400EB080507E066
:104260004DE029E10DE01AF8010B5A4617999047E5
:10427000B8F10108F7D25B4621463846179A13E198
:1042800042E00A220092C4F302524FF0000A022ACE
:1042900008D059F804CB032A4FEAEC710AD00DE09C
:1042A00029E02AE009F1070121F00702F2E802C142
:1042B000914609E00FFA8CFC4FEAEC71042A03D115
:1042C0004FFA8CFC4FEAEC71002907DA0A4600210C
:1042D000DCF1000C61EB02012D2202E0220504D585
:1042E0002B228DF80420012203E0E20701D02022D6
:1042F000F7E7904659E00A2102E010220DE0102174
:104300004FF0000A00910BE010224FF0000A44F039
:1043100004040827009203E008224FF0000A0092EC
:10432000C4F30252022A05D059F804CB0021032A13
:1043300008D009E009F1070121F00702F2E802C103
:10434000914605E01FFA8CFC042A01D10CF0FF0C09
:104350004FF00008220728D5702806D0009B83F074
:10436000100353EA0A0305D00EE040228DF8042022
:10437000012208E05CEA010206D030228DF8042018
:104380008DF8050002229046009B83F0080353EA53
:104390000A030AD15CEA010201D1620705D5302285
:1043A0008DF804204FF001087F1E582804D034A057
:1043B00003900EA802900DE036A0F9E75346604640
:1043C000009AFBF7F5FF84460398825C0298401E32
:1043D000029002705CEA0100F0D1029806A9081A66
:1043E00000F1200A600702D524F4803400E00127A0
:1043F000574502DDA7EB0A0000E0002000EB0A01B0
:10440000009005984144401A0590E00306D45B46AD
:104410002146179A059800F0B3F90544002706E0F5
:1044200001A85A46C05D179990476D1C7F1C4745EF
:10443000F6DBE0030CD55B462146179A059800F0A1
:104440009FF9054404E030205A46179990476D1CA7
:104450000099481E00900029F5DC08E002980299B6
:104460005A460078491C0291179990476D1CBAF181
:104470000001AAF1010AF1DC65E100000928010050
:1044800030313233343536373839616263646566CA
:10449000000000003031323334353637383941428C
:1044A000434445460000000000F058F90544761CDE
:1044B000307800287FF4ECAD19B02846BDE8F08FC5
:1044C000620700D4062709F1070222F0070CFCE876
:1044D0000223E14603F000485FEA080C02D00FF225
:1044E000702C0DE05FEA045C02D50FF2682C07E047
:1044F0005FEAC47C02D00FF2602C01E0AFF2700CD6
:104500004FF0FF3823F00043CDF850C065280CD0A1
:1045100006DC452809D046281DD047283DD13DE07E
:10452000662818D067287ED138E00021112F01DBE2
:10453000112000E0781CCDE9000106A90EA8FFF7C4
:10454000DDFCDDE90F010E9A03910021009207F1D5
:10455000010A04914DE04FF000400097CDE90110B1
:1045600006A90EA8FFF7CAFCDDE90F0203920E9B15
:1045700011990022DDF80CA00093049211B9791C66
:1045800000EB010AB7EB0A0004D4C0F1FF3007F1D9
:10459000010A0490AAEB0700019044E0012F00DA21
:1045A00001270021112F01DD112000E03846CDE95F
:1045B000000106A90EA8FFF7A1FCDDE90F010E9A84
:1045C0000391002104910092BA4621070CD403996B
:1045D000514500DA8A46BAF1010F05DD009AAAF1C9
:1045E0000101515C302908D0B84202DA10F1040F01
:1045F00006DA0121CDE9011015E0AAF10101E9E790
:10460000002805DC049901440491AAEB000102E0B2
:10461000411C514500DD8A460499401A401C019016
:104620004FF000400290200704D40198504501DB70
:10463000CDF8048000208DF84F0002980DF14F074F
:10464000B0F1004F25D02B200E9002984FF00208B9
:1046500000280CDA404202902D200E9007E00A213B
:104660000298FBF795FF3031029007F8011DB8F171
:104670000001A8F10108F2DC02980028EFD1791EB0
:104680000E980870307800F0200040F0450007F8E0
:10469000020D12A8C01B00F107081498007800B1A1
:1046A000012000EB0A01019801EBE07105984144FB
:1046B000401A401E0590E00306D45B462146179A37
:1046C000059800F05DF805441498007818B15A4632
:1046D000179990476D1CE00324D55B462146179A35
:1046E000059800F04DF805441CE00498002807DB0D
:1046F000DDE90301884203DD0098405C179901E081
:10470000179930205A469047049805F10105401C3E
:1047100004900198401E019004D12E205A4617990A
:1047200090476D1CBAF10001AAF1010ADDDC05E039
:1047300017F8010B5A46179990476D1CB8F1000104
:10474000A8F10108F4DC5B462146179A0598ABE610
:104750002D0000002B000000200000002DE9F0419A
:10476000044600251E461746880404D405E0394651
:104770002020B0476D1C641EF9D52846BDE8F081A5
:104780002DE9F041044600251E469046C80301D598
:10479000302700E02027880404D505E0414638464C
:1047A000B0476D1C641EF9D52846BDE8F081D0EDF8
:1047B000000AF4EEC00AF1EE10FA06DCB1EE400A8F
:1047C000F4EEC00AF1EE10FA01D280ED000A704753
:1047D00000B58BB000210122CDE9061205910091B0
:1047E00001910291039104910E21CDE908216946BE
:1047F000FCF784FD0448FDF785F802210248FCF728
:1048000007FD0BB000BD0000BC01002070B5002802
:1048100036D0002934D0002A32D0002B30D0334C8F
:104820009FED330A247864B3012C2AD0022C2DD0BA
:10483000032C2FD0042C46D0052C21D11C68B4F9B0
:10484000004004EB8404640000EE104A6FF0090499
:10485000B8EEC00A80ED000A1868408810FB04F02A
:1048600000EE100AB8EEC00A81ED000A18688088D0
:1048700010FB04F000EE100AB8EEC00A82ED000A48
:1048800070BD80ED000A81ED000AF7E7BDE87040D9
:1048900000F058B914461D461A4600F0B5F92868CC
:1048A00095ED670A9FED131AB0F9040000EE900A27
:1048B000F8EEE00A00EEC10A9FED0F1ADFED0F0AD5
:1048C00000F09EFF0FE014461D461A4600F09CF9CA
:1048D0002868DFED0B0AB0F9040000EE100AB8EE0C
:1048E000C00A20EE200A84ED000A70BDA800002056
:1048F00000000000A69BC43BDB0F4940DB0F49C012
:104900000AD723BC30B5002818D00168042202233E
:104910000C7A1049032C12D00125022C11D0012C45
:1049200012D0097849B101290CD002290DD00329F0
:104930000ED0042906D0052900D1027130BD0A70BD
:1049400000E00D70037130BD0B700021017130BDAE
:10495000057130BDA80000207FB504469FED470AD1
:1049600000200090019002900390D4ED621A94ED23
:10497000631AD4ED640A014631EE612ADFED402A64
:1049800031EEC13A684600EEA23A8DED003A31EEC2
:10499000813AF1EE611A71EEC11A9FED3A1A00EEFA
:1049A000A23A40EE811A00EE812A8DED013ACDED5A
:1049B000021A8DED032A2279042A11D100EB81021B
:1049C00001EB810392ED000A04EB8303491CBDEE69
:1049D000C00AC9B2042910EE102A1A83EED37FBD93
:1049E00000EB8102D2ED000A01EB810204EB8202AE
:1049F000C2ED050AF0EEE00AB4EEE00AF1EE10FABC
:104A000001D2B0EE600A491CC9B20429E8D310EE05
:104A1000100AB0F1814F13DDB1EE001A5FF0000013
:104A2000C1EE000A00EB800104EB8101401C91ED16
:104A3000050AC0B2042820EE200A81ED050AF1D350
:104A40005FF0000505EB850004EB800605EB8500B3
:104A500000EBC50004EB8000D6ED040A96ED050AD4
:104A6000583001F08DFABDEEC00A6D1CEDB210EEAB
:104A7000100A042D3083E5D37FBD00000000000044
:104A8000EB5138BEAF4761BE002854D00021DFEDA6
:104A90002A0A9FED2A1A00BF01EB810200EB820275
:104AA0009368B3F9063000EE103A01EB810303EB93
:104AB000C103B8EEC00A00EB8303491CC9B220EE63
:104AC000200A042982ED040A93ED1D0AD3ED1E1A73
:104AD00030EE610A20EE010A82ED030ADCD390ED8C
:104AE000092AD0ED041A90ED0E0A90ED131A72EE19
:104AF000610AF1EE611A71EEC21A70EE800A31EEAF
:104B0000802A31EEC00A70EEC12AF5EE000A32EEBC
:104B1000012A30EE410A62EEA02A22EE202A20EE7F
:104B2000200ADFED070AC0ED5F2A80ED602A80EEE3
:104B3000201A80ED611A70470A01DA390000FA4341
:104B4000CDCC4C3E70B51C46154600284DD00029F2
:104B50004BD0002D49D0002C47D01A4600F054F815
:104B600020689FED220A224C408A810606D5617892
:104B700031B90121617084ED010A01E00021617009
:104B8000810703D1410701D4000702D5DFED190ADF
:104B900001E0DFED190AC4ED030A607890B194EDED
:104BA000010AFBF7BBFBD4ED030A20EE200ADFED80
:104BB000130A84ED020A94ED010A30EE200A84ED16
:104BC000010A03E084ED020A94ED010A0C4910EE9B
:104BD000100A884205DDDFED0B0A30EE600A84ED35
:104BE000010A94ED020A85ED000A70BD0000000084
:104BF000A80000207CD9A03E3333333F2EE34D3C48
:104C0000DB0FC940DB0FC94070B514002DED028BDE
:104C10000D46064663D0002E61D0002D5FD022687D
:104C2000B2F9000000F10A01152900D20020B2F902
:104C3000021001F10A03152B00D2002100EE100A28
:104C4000DFED280A508AB8EEC00A60EE208A00EE36
:104C5000101ADFED250AC107B8EEC00A20EE208A3F
:104C600002D0D4ED688A03E0810701D5D4ED698ACA
:104C7000410702D594ED6A8A03E0000701D594ED5F
:104C80006B8AB0EE680A04F5AE7000F0DFF8B0EEA3
:104C9000480A04F5B67000F0D9F818EE900A1349E6
:104CA0009FED130A884206DA18EE900A11498842ED
:104CB00001D284ED580A18EE100A0F49884206DA2C
:104CC00018EE100A0D49884201D284ED5C0A94ED79
:104CD000580A86ED000A94ED5C0A85ED000ABDECE9
:104CE000028B70BDA69BC43B0AD7A3BB90C2753D87
:104CF0000000000090C275BDCCCC4C3DCCCC4CBD6E
:104D000030B504002DED048B83B02BD09FED498A84
:104D100003468DED008A8DED018A8DED028A02AA8F
:104D200001A96846FFF772FD20799FED431ADFED78
:104D3000430A04F59475C8B1012847D0022864D00D
:104D400004280FD19DED000A84ED620A9DED010A51
:104D500084ED630A9DED020A84ED640A84ED588AAD
:104D600084ED5C8A03B0BDEC048B30BD9DED000A80
:104D7000DDED011A28EE002A08EE212A68EE211A3C
:104D800048EE401A84ED622AC4ED631A9DED020AD2
:104D900000F036FD84ED660AF0EE480A284601F080
:104DA000EFF8B1EE400A84ED640A94ED681AD4ED90
:104DB000690A94ED620A00F079F884ED620A94EDD4
:104DC0006A1AD4ED6B0A94ED630A19E0F0EE418A99
:104DD000B0EE609A9DED020A00F012FD84ED670AC4
:104DE000D4ED6C0AB0EE681A30EE600AF0EE490AB3
:104DF00000F006FDF0EE480A284601F0C1F806E092
:104E000000F054F884ED630AACE79DED020A84EDEE
:104E1000640A94ED681AD4ED690A9DED000A00F069
:104E200045F884ED620A94ED6A1AD4ED6B0A9DEDA3
:104E3000010AE5E700000000DB0F4940DB0F49C035
:104E400001490020087070479C00002010B510EE4A
:104E5000103A03608168C26800EE101A00EE902AD2
:104E6000446830EE201A00EE101AC0EE010A00EE7F
:104E7000104A20EE801A00EE101A00EE902A70EE12
:104E8000201A00EE102AC0EE210A00EE103A00EEC1
:104E9000801A11EE101A416010BD10EE102AC26087
:104EA000096881600021016041607047B4EEE00A4A
:104EB000F1EE10FA02D2B0EE600A7047B4EEC10A09
:104EC000F1EE10FAF9DDB0EE410A704713B54FF676
:104ED000FF73012269460248FEF781F800981CBD65
:104EE000B405002001480078704700009C000020B5
:104EF000024900F0030001EB00107047DA000020C7
:104F000000487047F04C002000487047D84C002003
:104F1000004870472A010020004870471A0100200D
:104F2000004870479048002070B515462DED028B63
:104F3000060059D0002957D0002D55D02868DFED44
:104F40002C8A9FED2C8A408A2B4C800512D5208A12
:104F500080050FD4A07868B90120A07095ED2E0AC5
:104F6000B0EE681AF0EE480A30EE010A00F048FC94
:104F700084ED070A2868408A2082A078002833D070
:104F800095ED2E0AD4ED070AB0EE681A30EEC00A8D
:104F9000F0EE480A00F034FCDFED180AB5EEC00A66
:104FA000F1EE10FA96ED000A02DD30EE200A01E083
:104FB00030EE600A86ED000AA078002814D095ED46
:104FC0002E0AD4ED070AB0EE681A30EEC00AF0EEF1
:104FD000480A00F015FCB0EEC00A10EE100A0849AD
:104FE000884201DA0020A070BDEC028B70BD000089
:104FF000DB0F4940DB0F49C0B80000200AD7233D32
:105000000AD7233C2DE9F0410D46060076D0002D4D
:1050100074D0002A72D010680023484CB0F90410F4
:1050200001F10A07152F01D3A18000E0A380B0F998
:10503000061001F10A07152F01D3E18000E0E3809B
:10504000B4F90410DFED3E0A00EE101AB0F90A00C0
:105050009FED3C1AB8EEC00A20EE200A00EE900A3E
:10506000F8EEE00A00EEC10ADFED370A9FED371ACD
:1050700084ED050AB4F9060000EE100A1068B8EED7
:10508000C00AB0F90C0020EE200A00EE900AF8EEFB
:10509000E00A00EE810A84ED060A20789FED2C0AD2
:1050A00068B3012808D002282AD003282ED004286B
:1050B00039D0052830D036E0D2ED610A1F49254F9E
:1050C000B1EE601A1431B0EEC11A11EE103A081D9B
:1050D0009FED211ABB4204DD60EE810AC0ED000A9B
:1050E00009E020EE810ADFED1D0A80ED000A92ED55
:1050F0002C0A20EE200A81ED000A14E01BE00BE0F0
:105100000E491831081F00F0E3F80CE00B49183184
:10511000081FFFF709FF06E008491431081D81ED5B
:10512000000A80ED000A94ED050A86ED000A94ED70
:10513000060A85ED000ABDE8F0810000B8000020F5
:10514000ACC5A7B617B751389C53C9B652491D39DB
:1051500000000000CDCCCC3D6F1283BB0AD7A3BBAF
:1051600010B5040010D000F01FF80E48002201789E
:1051700059B1022001290DD0022906D003290ED0F1
:10518000042907D0052905D010BD84F8A42084F88F
:10519000702110BD84F8A40084F8700110BD0120B6
:1051A000F8E70000B800002070B500287DD046491F
:1051B00000220B78022B06D090F8BC41012C07D0BE
:1051C000012B07D033E090F8BC31052B6DD12EE0D8
:1051D000022076E04B893D4D5B1C9BB24B8190EDEC
:1051E0002C0A41F27074B0EEC00A10EE106AAE42A2
:1051F0000DDA90ED610AB0EEC00A10EE106AAE4210
:1052000005DA8B89642B06D25B1C8B8103E0A342F9
:1052100001D25B1C4B814B89A34206D28B89642B44
:1052200003D203681B88022B3FD18A814A81006820
:10523000037A022B04D0032B04D0012B04D005E009
:105240000A7003E0042300E003230B704B781BB9C2
:105250000B780BB101230B700B784B70032B23D110
:10526000B0F900300933122B1ED8B0F902300933DF
:10527000122B19D8B0F904300933122B14D8B0F915
:1052800006300933122B0FD8B0F90A300933122B2C
:105290000AD8B0F90C300933122B05D8438A1BB950
:1052A000037C0BB9407C08B10A8170BD088940F6C7
:1052B000B832904201D2401C088180B29042F4D1B1
:1052C0000520087070BD0000B8000020CDCCCC3D9A
:1052D000F0B500281BD0002919D0002A17D092F869
:1052E000BC410025DFED3E0A9FED3E0A3E4E3F4B9E
:1052F0004FF4FA67012C0BD0022C9FED3D1A20D001
:10530000032C3CD0042C52D0052C00D1DD81F0BD03
:10531000C1ED000A80ED000AD2F88C01B042F6DA45
:10532000D889401C80B2D881B842F0D9DD8192ED95
:10533000610A82ED6B0AD2F8D8008089A2F8B80120
:1053400017E081ED001A80ED000AD2F88C01B0421E
:10535000DDDAD889401C80B2D881B842D7D9DD8146
:1053600092ED610A82ED6C0AD2F8D8008089A2F829
:10537000BA0192F8BC01401C82F8BC01F0BD81ED7D
:10538000000AC0ED000AD2F8C000B042F6DAD889AF
:10539000401C80B2D881B842F0D9DD8192ED2E0A4E
:1053A00082ED690AD0688089A2F8B401E1E781ED55
:1053B000000A80ED001AD2F8C000B042DEDAD889C7
:1053C000401C80B2D881B842D8D9DD8192ED2E0A36
:1053D00082ED6A0AD0688089A2F8B601C9E70000A8
:1053E0000000FA4500000000CDCCCC3DB800002004
:1053F0000000FAC510B5040016D004F1AC0090EC22
:10540000030A201DFBF78AFD84ED2E0AD4ED2D0A38
:1054100004F1640000F0B4FD84ED310ABDEEC00A71
:1054200010EE100AA4F8C80010BD002809D090EDB5
:10543000300A80ED310ABDEEC00A10EE101AA0F855
:10544000C810704710B5040019D094ED2D1AD4ED92
:105450002A0A94ED290A04F13400FBF75FFD84ED7C
:105460002E0AD4ED2D0A04F1640000F089FD84EDCC
:10547000310ABDEEC00A10EE100AA4F8C80010BD33
:1054800010B504461030FBF75BFE04F14000FBF75B
:1054900057FE04F1700000F0CBFD04F1DC00FBF7D7
:1054A0004FFE04F58670FBF74BFE04F59E70BDE8D9
:1054B000104000F0BDBD000010B559482DED0A8B1D
:1054C000B0F90610B0F908009FED569BDFED57BA12
:1054D000574C9FED588A9FED58BADFED58AA9FEDC3
:1054E00058AADFED588A00294EDA9FED57CA0028E6
:1054F0002ADA91FBF0F0FBF722F841EC100BFEF7F3
:10550000E3FC53EC192B51EC100BFBF729F80AD8EC
:10551000C4ED01BA84ED028A9FED4C0A84ED030AC2
:105520009FED4B0A0BE09FED4B0A84ED010A9FEDC6
:105530004A0A84ED020A84ED03BA9FED480A84ED1D
:10554000040ABDEC0A8B10BDFBDD91FBF0F0FAF70D
:10555000F6FF41EC100BFEF7B7FC53EC192B51ECA6
:10556000100BFAF7FDFF84ED01CA06D884ED028A1C
:10557000C4ED03AA9FED3A0AE1E784ED02AAC4ED67
:10558000038A9FED380ADAE7DBDD00289FED36CA93
:1055900022DD91FBF0F0FAF7D2FF41EC100BFEF7A1
:1055A00093FC53EC192B51EC100BFAF7D9FF0AD8E6
:1055B0009FED2E0A84ED010AC4ED02AA84ED038A50
:1055C000C4ED04BABDE79FED2A0A84ED010AC4EDDB
:1055D000028A84ED03AAB2E7B3DA91FBF0F0FAF79E
:1055E000AEFF41EC100BFEF76FFC53EC192B51ECA6
:1055F000100BFAF7B5FF84ED01CA08D89FED1D0A1C
:1056000084ED020A84ED038A9FED1B0A97E79FED64
:105610001B0A84ED02BA84ED030A9FED190A8EE796
:10562000A44C0020000000000000F03F0AD7A3BBFC
:1056300058010020A8C64BBEE17A543F355E7ABFC0
:1056400068910DBFE17A54BF0AD7A33BBE9F7A3F52
:105650004ED111BC6F1203BC7B140EBF6F1203BB83
:10566000A69B443C99BB16BB0AD7233B52499D3AA3
:1056700099BB163B355E7A3F6F12033C295C0FBF26
:10568000BC74933B10B530216A2000F053FA0A2015
:10569000FCF7CAFA0D21242000F04CFA0A20FCF78E
:1056A000C3FA0E21282000F045FA0A20FCF7BCFAC4
:1056B0008E21312000F03EFA0A20FCF7B5FA0121D4
:1056C0000B2000F07BF80A20FCF7AEFA002000F077
:1056D00059F8102801D0012010BD01210B2000F045
:1056E0006DF80A20FCF7A0FA00210A2000F066F805
:1056F0000A2000F047F808B1022010BD0A20FCF78C
:1057000093FA00210B2000F059F80B2000F03AF832
:1057100008B1032010BD0A20FCF786FA242141209D
:1057200000F04CF8412000F02DF8242801D004208E
:1057300010BD0A20FCF778FAC021422000F03EF8A4
:10574000422000F01FF8C02801D0052010BD0A201B
:10575000FCF76AFA00212A2000F0ECF90A20FCF795
:1057600063FA0021342000F0E5F90A20FCF75CFA26
:10577000062203210E2000F0E3F86420FCF754FA1F
:10578000002010BD10B50146322000F0D3F90A20E8
:10579000FCF74AFA8021342000F0CCF90A20FCF70B
:1057A00043FA352000F066F904460021342000F069
:1057B000C1F90A20FCF738FA204610BD70B50D4635
:1057C000044600212A2000F0B5F90220FCF72CFA4B
:1057D0002146292000F0AEF90220FCF725FA2946DF
:1057E000642000F0A7F90220FCF71EFA81212A208C
:1057F00000F0A0F9BDE870400A20FCF715BA0000DF
:10580000B4EEE01AF1EE10FA0FD371EE601AB4EEB6
:10581000C10AF1EE10FA03DC08E000BF30EE610AC5
:10582000B4EEC10AF1EE10FAF8DC7047B4EEE00A0B
:10583000F1EE10FA02D3704730EE210AB4EEE00A1E
:10584000F1EE10FAF8D37047FCF7FAFAFDF776FF9D
:10585000FDF7E6FCFDF7A2FCFDF77EFCFDF764FD1D
:10586000FDF718FEFDF734FEFDF784FDFDF7A6FDFC
:10587000FDF7DCFD0648FEF7ABFF6422054906484C
:10588000FDF7A4FBFDF7A0FC00F04BFBFEE70000DA
:10589000BC0100202C480020740500200146002097
:1058A000842900D0C81C7047401AB0F5805F03DD22
:1058B000A0F5F850FF3805E010F5805F02DA41F6F8
:1058C000FF71084400EE100ADFED030AB8EEC00ACB
:1058D00020EE200A70470000DB0F493A30B585B052
:1058E0006420FCF7A1F9752000F0C4F812490024E7
:1058F0001422887011496846FAF78BFD4FEA0D05AE
:1059000005EB4400417815F8140000F013F901206C
:10591000FCF78AF9641CE4B20A2CF1D3032000F0EE
:1059200004F9022000F0FCF8FFF7ACFE00F050F89C
:1059300005B0002030BD00005801002004770008A9
:1059400070B50E46044601461546282000F0F2F8D0
:105950000220FCF769F90A21292000F0EBF8022067
:10596000FCF762F90121642000F0E4F80220FCF762
:105970005BF944F08001252000F0DCF80220FCF700
:1059800053F93146262000F0D5F80220FCF74CF9F7
:105990000321342000F0CEF80220FCF745F9032162
:1059A000672000F0C7F80220FCF73EF981212A2089
:1059B00000F0C0F80620FCF737F945F080012720F9
:1059C00000F0B8F8BDE870400220FCF72DB90000E7
:1059D0002DE9F041264E002706F10E044FF496758E
:1059E0000E2223493B2000F06DF83188A08A49BA85
:1059F0000844A0827188E08A49BA0844E082B188EC
:105A0000208B49BA084420833189608B49BA084405
:105A100060837189A08B49BA0844A083B189E08B67
:105A200049BA0844E0830520FCF7FEF87F1CAF422A
:105A3000D6DBB4F9140090FBF5F0A082B4F916009F
:105A400090FBF5F0E082B4F9180090FBF5F02083AC
:105A5000B4F91A0090FBF5F000B2608390FBF5F00A
:105A6000A083B4F91E0090FBF5F0E083BDE8F0815F
:105A7000FC4C0020F8B5104E044600224021304670
:105A8000FCF7CAF944F080000C4C3725621C2070EA
:105A90000123511E0A480095FCF734FE621C0123C5
:105AA000511E07480095FCF72DFE0122402130468B
:105AB000FCF7B2F96078F8BD0014024058010020EC
:105AC0009C040020F8B5134F15460E4604460022EC
:105AD00040213846FCF7A0F90F4944F080003724F4
