:020000040800F2
:10000000584D0020810200083B27000869240008A1
:1000100039270008BF080008F92C0008000000007C
:10002000000000000000000000000000C101000806
:100030007D0C0008000000001D0200087528000863
:100040009B0200089B0200089B0200089B0200081C
:100050009B0200089B0200089B0200089B0200080C
:100060009B0200089B0200089B0200089B020008FC
:100070009B0200089B0200089B0200089B020008EC
:100080009B0200089B0200089B020008CD080008A4
:10009000C10800089B0200089B0200089B020008A0
:1000A0009B0200089B0200089B0200089B020008BC
:1000B0009B0200089B0200089B0200089B020008AC
:1000C0009B0200089B0200089B0200089B0200089C
:1000D0009B020008ED2C00089B0200089B02000810
:1000E0009B0200089B0200089B0200089B0200087C
:1000F0009B0200089B0200089B0200089B0200086C
:100100009B0200089B0200089B0200089B0200085B
:100110009B0200089B0200089B0200089B0200084B
:100120009B0200089B020008CD0B00089B02000800
:100130009B0200089B0200089B0200089B0200082B
:100140009B0200089B0200089B0200089B0200081B
:100150009B0200089B0200089B0200089B0200080B
:100160009B0200089B0200089B0200089B020008FB
:100170009B0200089B0200089B0200080000000090
:100180009B0200089B0200089B0200089B020008DB
:100190009B0200089B0200089B0200089B020008CB
:1001A00000000000000000009B020008DFF80CD0F7
:1001B00000F004FB004800477D3D0008584D00203A
:1001C0002C4B19680868B0E8F04F80F30988BFF33A
:1001D0006F8F4FF0000080F311887047000000001F
:1001E00008480068006880F308884FF0000080F33A
:1001F000148862B661B6BFF34F8FBFF36F8F00DF15
:1002000000BF00BF08ED00E0DFF80C00016841F41A
:1002100070010160704700BF88ED00E0EFF30980D6
:10022000BFF36F8F134B1A681EF0100F08BF20ED3D
:10023000108A20E9F04F106009B44FF0500080F3AD
:100240001188BFF34F8FBFF36F8F04F065FC4FF041
:10025000000080F3118809BC19680868B0E8F04F05
:100260001EF0100F08BFB0EC108A80F30988BFF3AE
:100270006F8F70471C000020EFF30580704700006F
:100280000648804706480047FEE7FEE7FEE7FEE730
:10029000FEE7FEE7FEE7FEE7FEE7FEE711290008BE
:1002A000AD010008B5EEC00AF1EE10FA07D2DFED9D
:1002B0001E0AB4EEE00AF1EE10FAA8BF7047DFEDB7
:1002C0001B0AB5EEC00A60EE200ABDEEE01A11EE80
:1002D000100AF1EE10FA38BF401E00EE100A154960
:1002E000F7EE001AB8EEC00A30EEC00ADFED100AD1
:1002F00060EE200ABCEEE00A10EE100AC0F308001F
:1003000000EE100A01EB8000B8EE400A90ED011AF1
:1003100070EEC00A90ED000A71EEE01A21EE800A3C
:1003200000EE810A70470000CD024CB483F9223EF2
:1003300000000044DC5700082DE9F05F054600206E
:1003400092469B4688460646814640241BE0284646
:1003500041464746224600F069F853465A46C01ABD
:10036000914110D311461846224600F050F82D1A3C
:1003700067EB01084F4622460120002100F047F8B4
:1003800017EB00094E41201EA4F10104DFDC4846B2
:1003900031462A464346BDE8F09F40EA01039B07E9
:1003A00003D009E008C9121F08C0042AFAD203E0EA
:1003B00011F8013B00F8013B521EF9D27047D2B24E
:1003C00001E000F8012B491EFBD270470022F6E73E
:1003D00010B513460A4604461946FFF7F0FF2046BB
:1003E00010BD30B50B46014600202022012409E053
:1003F00021FA02F59D4205D303FA02F5491B04FADE
:1004000002F52844151EA2F10102F1DC30BD202ABC
:1004100004DB203A00FA02F1002070479140C2F15B
:10042000200320FA03F3194390407047202A04DB8D
:10043000203A21FA02F00021704721FA02F3D0405D
:10044000C2F1200291400843194670472DE9FE4F42
:10045000804681EA0300C00F0C46009021F0004165
:1004600023F00045B8EB0200A94105D240462146E1
:1004700090461C460B46024623F00040104347D0EE
:10048000270DC7F30A00C3F30A510290401A0190E6
:1004900040286BDAC3F3130040F4801B00989246A7
:1004A00020B10023D2EB030A63EB0B0B01985946F2
:1004B000C0F140025046FFF7AAFF06460D465046DF
:1004C0005946019A00F08CF910EB080061410024B4
:1004D00087EA115284EAE7731A4340D0009A62B364
:1004E000019A012A4FEA075215DC001B61EB020159
:1004F0004FF0004202EA0752CDE90042001C41F5EC
:10050000801132462B4600F08CF903B0BDE8F08F25
:1005100040462146F9E7001B61EB0201001C41F552
:10052000801300185B412018A2F5001747EB030168
:1005300040EAD570B6196D4111E06D084FEA3606F4
:1005400045EAC0754FEA0752001B61EB0201001C2F
:1005500041F5801149084FEA3000001951413246F7
:100560002B4603B0BDE8F04F00F04CB900980122D3
:1005700040000023D0EB020263EBE07300982146B9
:100580004FEAE074B8EB000061EB0401E9E783F0A7
:1005900000435BE781F0004158E72DE9FE4F81EA17
:1005A000030404F0004421F0004100944FF0000BDC
:1005B00023F0004350EA01045ED052EA03045BD00A
:1005C000C3F30A54C1F30A552C44A4F2F334019442
:1005D000A0FB0254C1F3130141F48011C3F31303D0
:1005E00043F4801301FB024400FB034E840A970A84
:1005F00044EA815447EA8357A4FB076802958D0AB1
:1006000005FB07854FEA932C04FB0C542705029D3C
:100610004FEA065847EA1637B5EB08056EEB070CAC
:10062000870E920E47EA811742EA8312A7FB020166
:10063000B6EB0B0164EB00042B0D43EA0C335E18A0
:1006400044EB1C50DA465146E7FB0201C5F31304A4
:100650004FEA0B3343EA14534FEA0432019C43EA56
:100660000603A4F10C040294009CCDE900B400F050
:10067000D8F803B0BDE8F08F00200146F9E72DE976
:10068000F04D81EA030404F0004B21F000451446CC
:100690004FF0000A23F0004150EA050220D054EA4E
:1006A00001021DD0C5F30A570246C5F31303C1F377
:1006B0001300C1F30A5640F4801543F48013A7EBEE
:1006C0000608101BD64608F2FD3873EB050002D36E
:1006D00008F1010801E092185B41B8F1000F03DA5C
:1006E00000200146BDE8F08D00204FF48011064641
:1006F00084460EE0171B73EB050705D3121B63EB53
:10070000050306434CEA010C49084FEA30009218F1
:100710005B4150EA0107EDD152EA030012D082EAB0
:10072000040083EA0501084305D0101BAB4106D243
:100730000122002306E000224FF0004302E06FF0A8
:10074000010253101AEB06004CEB085110EB0A00A3
:1007500041EB0B01BDE8F04D00F054B8C1F30A5273
:10076000C1F3130140F2FF3341F480119A4202DADF
:1007700000200146704740F233439A42A2F23342CE
:1007800002DC5242FFF752BEFFF741BE30B5041EF5
:1007900071F1000404DB4FF00044404264EB0101BE
:1007A000141E73F1000405DB1C464FF00043524257
:1007B00063EB0403994208BF904230BD064C074DDD
:1007C00006E0E06840F0010394E807009847103421
:1007D000AC42F6D3FFF7EEFC0C6000082C6000087A
:1007E000202A06DBCB17203A41FA02F043EAE073F5
:1007F00006E041FA02F3D040C2F1200291400843E2
:100800001946704710B5141E73F1000408DA401C35
:1008100041F1000192185B411A4301D120F001001F
:1008200010BD2DE9F04D92469B4611B1B1FA81F20F
:1008300002E0B0FA80F220329046FFF7E8FD04466D
:100840000F4640EA0A0041EA0B0153465A46084364
:1008500013D0114653EA010019D0C8F140025046A6
:10086000FFF7E4FD05460E46504659464246FFF75F
:10087000CEFD084305D0012004E020463946BDE8FE
:10088000F08D0020054346EAE0762C4337430A9872
:100890006305E40AA0EB08000022FD0A44EA47547D
:1008A0000A3002D500200146E9E701051019694127
:1008B000DDE9084500196941BDE8F04DA2E7FEE712
:1008C000014800F04EBB000000010020014800F08C
:1008D00048BB00000001002010B50A88C2F30A02DC
:1008E000A2F5806202804A788B78D20842EA4312ED
:1008F000C2F30A02A2F5806242808A78CB7892091C
:1009000042EA83020B7942EA8322C2F30A02A2F589
:10091000806282800A794B79520842EAC312C2F39C
:100920000A02A2F58062C2804A79920902724A796B
:10093000C2F301124272CA8842810A8982814A89BD
:10094000C2810A7B02744A7B4274C989418200F0E9
:10095000A3FF054908604A68821AB2F5FA7F00D9F8
:100960004860886010BD0000F000002070B50400F1
:100970002DED048B62D00320207103F0D7F99FED99
:10098000318ADFED318ADFED319A9FED319A002512
:100990002060284603F0C0F905EB850104EB8101D6
:1009A000B0EE690A886005EB850000EBC50004EB3A
:1009B0008000B0EE482AF0EE681AB0EE401AF0EE71
:1009C000490A583003F04FFC6D1CEDB2042DE0D302
:1009D000F1EE081A9FED200A9FED1E2A04F594708F
:1009E000B0EE401AF0EE400A03F03DFC9FED1C8A89
:1009F0001A4904F5AE70B0EE480A03F068F91749D9
:100A0000B0EE480A091D04F5B67003F060F9B0EEC7
:100A1000080A84ED680AB8EE080A84ED690A9FEDB9
:100A2000110A204684ED6A0A9FED0F0A84ED6B0AD5
:100A3000BDEC048BBDE8704002F046BFBDEC048BFA
:100A400070BD00000000FA4400007A460000FA453C
:100A500000004842CDCC4C3E00002042604F0008D0
:100A60006F12033B9A9939409A9939C02DED028B48
:100A700082B04CA002F042F940F2651003F06CFB2A
:100A80004D48FFF773FF4C4C4C4F01269FED4C8AAD
:100A90004C4D494802F056FE47484179027991424F
:100AA00014D011B142B1012903D0012A09D0022981
:100AB0000BD0022A05D008E09FED430A80ED660ABC
:100AC00003E090ED6C0A80ED670A42713A4802F04B
:100AD000FBFE394803F034F8374802F05FFE009619
:100AE00000233A7A0121184603F0E6FA03F078FA77
:100AF000B4F954000090B4F94030B4F92C20B4F9A2
:100B00001810002003F0E0FD022003F0EDFE94ED4C
:100B1000040A20EE080ABDEEC00A10EE100A288072
:100B200094ED090A20EE080ABDEEC00A10EE100A84
:100B3000688094ED0E0A20EE080ABDEEC00A10EEA1
:100B4000100AA88094ED130A20EE080ABDEEC00A30
:100B500010EE100AE88094ED050A20EE080ABDEEBA
:100B6000C00A10EE100A288194ED0A0A20EE080A45
:100B7000BDEEC00A10EE100A688194ED0F0A20EE57
:100B8000080ABDEEC00A10EE100AA88194ED140AFE
:100B900020EE080ABDEEC00A10EE100AE88103F04C
:100BA000BDFD76E7496E20436861737369735F54D6
:100BB00061736B210D0A00001043002040450020A6
:100BC00000007A44CC44002000000000014800F0FE
:100BD00007BC00005404002001681823CAB2103A70
:100BE000B2FBF3F2054B6FF30901032A9B5CC3656B
:100BF00000D9091D8165084670470000404F000874
:100C000010B5014600208B698A6A4FF0C07453B159
:100C1000B3F5005F15D072B1012A0CD0022A0AD0B8
:100C2000032A09D104E01AB1012A06D0022A03D10D
:100C3000C96AC90100D5012010BDC96AA142FAD014
:100C400010BD002AF7D0012AF2D0022AF3D0032ADD
:100C5000F3D010BD30B50468256825F480252560E3
:100C6000046863608368402B036803D09960006860
:100C7000C26030BD9A600068C16030BD7047704787
:100C800090F82020012A07D0022A05D0416A41F4B9
:100C90008021416201207047006842690A43426135
:100CA00000207047F0B590F820500468A468012D2A
:100CB00005D0022D03D0416A41F4802153E014F0A5
:100CC000406F01D1E5004BD5C4F30164022C03D978
:100CD000416A41F4000146E00125A5401D608D6890
:100CE0004FF4C0739DB1CE6835434E6845EAC605E2
:100CF000066803EB0417F5514FF4C275076805EB5E
:100D000004150E697E51097D012905D009E00E8880
:100D1000CD6845EA4655EBE701684E5946F48076C2
:100D20004E511179D2F805504FF4C67641EA0525A7
:100D3000016806EB04168D511178D2F801204FF4AA
:100D4000C47541EA0221026805EB0415515100689F
:100D500003EB0411425842F0010242500020F0BD62
:100D6000416A41F4001141620120F0BD10B590F8D4
:100D70002020012A07D0022A05D0416A41F48021AF
:100D80004162012010BD3B48D0F8002242F0010230
:100D9000C0F80022D0F8002222F47C52C0F80022D1
:100DA000D0F800224B6A42EA0322C0F800220A7DF2
:100DB00002F01F0301229A40D0F81C329343C0F87E
:100DC0001C32CB69B3B9D0F80C329343C0F80C3263
:100DD0008C894B6864F31F434C6900EBC404C4F86E
:100DE00040320C890B6864F31F434C6900EBC40468
:100DF000C4F84432CB69012B16D1D0F80C3213431E
:100E0000C0F80C320C884B6864F31F434C6900EB4C
:100E1000C404C4F840320C89CB6864F31F434C69A6
:100E200000EBC404C4F844328B69002BD0F80432C0
:100E30000ED01343C0F804320B69002BD0F81432E3
:100E400008D01343C0F81432096A012904D008E01D
:100E50009343EFE79343F5E7D0F81C121143C0F832
:100E60001C12D0F8001221F00101C0F8001200207D
:100E700010BD000000640040704730B590F820407D
:100E8000012C05D0022C03D0416A41F480215DE0A1
:100E90000468002955D02469A40754D04FF4D874AD
:100EA000056804EB01142D5915F0040595600568DB
:100EB0002D594ED0ED08556005682C59C4F34004F7
:100EC000D4604FF4DA74056804EB01142D5905F071
:100ED0000F05156105682D59C5F30725956105684E
:100EE0002C59240C54614FF4DC72046802EB01129B
:100EF000A4581C700468A458240A5C700468A458A0
:100F0000240C9C700468A258120EDA704FF4DE7242
:100F1000046802EB0112A4581C710468A458240A46
:100F20005C710468A458240C9C710468A258120EC9
:100F3000DA71006881B1016941F02001016100208E
:100F400030BDE468A8E7416A41F400114162012024
:100F500030BD6D0D1560AFE7C16841F02001C16083
:100F6000EDE72DE9F05F0546006800244669D0F8FA
:100F700004908768D0F80CB0D0F810A0D0F8188092
:100F8000F10748D0F90714D001218160B80703D5D3
:100F9000284600F01EFA0CE0780702D54FF40064F2
:100FA00007E0380702D54FF4805402E0284600F0ED
:100FB0000FFAF80516D529684FF480708860B805D7
:100FC00003D5284600F007FA0CE0780502D544F472
:100FD000005407E0380502D544F4804402E0284676
:100FE00000F0F8F9F80316D529684FF480308860CE
:100FF000B80303D5284600F0F0F90CE0780302D5D9
:1010000044F4004407E0380302D544F4803402E09D
:10101000284600F0E1F9300707D55FEACB6004D538
:101020002968102044F40074C86070074FF0080766
:1010300007D55FEA0B7004D52868C760284600F022
:101040005FF9B00706D52868C068800702D0284637
:1010500000F058F9700607D55FEACA6004D5296820
:10106000102044F480640861B00607D55FEA0A7076
:1010700004D528680761284600F07AF9F00606D5FD
:1010800028680069800702D0284600F072F9B00392
:1010900008D55FEAC96005D5296810204860284650
:1010A00000F068F9F00307D55FEA097004D52868F5
:1010B0004760284600F092F9300446D55FEA49704F
:1010C00040D5F00504D55FEAC87001D044F00104B2
:1010D000B00504D55FEA887001D544F002047005BC
:1010E00004D55FEA487001D544F00404300529D5E1
:1010F00018F0700F26D008F07000402815D006DCDC
:10110000102809D020280AD0302816D10AE050280B
:101110000ED0602811D10EE044F008040DE044F038
:1011200010040AE044F0200407E044F0400404E026
:1011300044F0800401E044F480742868816921F05F
:1011400070018161296804204860002C05D0686A1C
:10115000204368622846FFF78FFEBDE8F09F70B518
:10116000040003D094F8200010B104E0012070BD09
:10117000204600F081F82068016821F0020101603A
:1011800000F08AFB0546052604E000F085FB401BC5
:101190000A2811D8206840688007F6D420680168C2
:1011A00041F00101016000F077FB05460BE000F023
:1011B00073FB401B0A2806D9606A40F40030606265
:1011C00084F82060D2E720684068C007EFD0207E16
:1011D0000128206801683DD021F080010160607E17
:1011E00001282068016838D021F040010160A07E0C
:1011F00001282068016833D021F020010160E07EE1
:101200000128206801682ED041F010010160207F84
:1012100001282068016829D021F008010160607F61
:1012200001282068016824D021F004010160D4E97C
:1012300002010843D4E90412114308436168491EBE
:1012400008432168C86100206062012084F8200002
:10125000002070BD41F08001C0E741F04001C5E7CA
:1012600041F02001CAE721F01001CFE741F0080169
:10127000D4E741F00401D9E710B586B00446142143
:101280006846FFF7A3F81B49206888422FD11A4807
:101290000021026842F000720260006800F00070F5
:1012A000059015481038026842F008020260006894
:1012B000022200F0080005900320CDE90210CDE9DC
:1012C00000020920049069460C4800F0F9F9002258
:1012D0000C21132000F052FB132000F041FB0022F0
:1012E0000C21142000F04AFB142000F039FB06B05A
:1012F00010BD00000064004040380240000C024075
:101300007047000000B5184A016889B0914204D1C5
:1013100007AB6A460021FFF7B0FD00991348A1F220
:101320000121072917D20288C9B2521C0280C1EBE1
:10133000C103BDF81C20811C01EB430152BA8A8015
:10134000BDF81E2052BACA80BDF8202052BA4A8188
:101350009DF822200A730188B1F5FA7F01D100219E
:10136000018009B000BD0000006400408C00002036
:10137000704770477047000070B5044690F8200031
:10138000012804D0606A40F40020606218E0022066
:1013900084F820002068016821F00101016000F05C
:1013A0007BFA05460EE000BF00F076FA401B0A28E3
:1013B00008D9606A40F400306062052084F820009B
:1013C000012070BD20684068C007EDD1606270BD2B
:1013D000704770477047704770477047704700000C
:1013E0002DE9F84304464FF00009CDF8009063481A
:1013F0004FF41651A56D0068B0FBF1F72E6894F814
:101400005C10082000FA01F131420FD021680A680F
:1014100052070BD50A6822F004020A6094F85C10A7
:101420008840A860606D40F00100606594F85C1031
:101430004FF0010808FA01F0304208D021684969EC
:10144000090604D5A860606D40F00200606594F85C
:101450005C1004208840304208D021680968890760
:1014600004D5A860606D40F00400606594F85C10DD
:1014700010208840304218D021680968090714D527
:10148000A86020680168490304D50068000308D5F6
:10149000A16C07E00168C90503D4016821F00801C7
:1014A0000160216C09B12046884794F85C10202027
:1014B0008840304231D021680968C9062DD5A8601E
:1014C00094F8350005282068016806D0490347D5FF
:1014D000006800031DD4616C1CE021F0160101605E
:1014E0002068416921F080014161206C08B9A06C3D
:1014F00020B12068016821F00801016094F85C10B7
:101500003F208840A86084F8349084F83580216DAD
:101510001FE0E16B09B120468847606D00282BD0A1
:10152000606DC00714D0052084F83500206801687C
:1015300021F0010101600098401C0090B84203D8DE
:1015400020680068C007F6D184F8349084F83580AC
:10155000E16C002910D001B02046BDE8F0430847F7
:101560000168C905D5D4016821F01001016084F833
:10157000349084F83580CCE7BDE8F883180000206B
:101580002DE9F041044600F087F906465CB10025DC
:1015900084F83450022084F835002068016821F076
:1015A000010101600DE00120BDE8F08100F074F957
:1015B000801B052805D920206065032084F83500AC
:1015C000F2E720680068C007F0D12268116820485F
:1015D0000140D4E901031843D4E9033633431843E7
:1015E00063691843A3691843E3691843236A1843DE
:1015F0000843616A042903D1D4E90B131943084352
:10160000106020684069666A20F0070130460E438A
:10161000012704280CD1A06A0643E06A40B12046A5
:10162000FFF7EEFA20B14020606584F83570BAE724
:10163000206846612046FFF7CFFA94F85C203F21EE
:1016400091408160656584F835700020ACE700004A
:101650003F8010F070B5044690F834000025012852
:101660000CD0012084F8340094F835600020012E5D
:1016700006D084F834000225284670BD022070BDD3
:10168000022684F8356060652046FFF7E3FA20689B
:10169000016841F001010160EEE7000070B5044609
:1016A00000F0FAF80546601C02D0044800780444B3
:1016B00000F0F2F8401BA042FAD370BD0C000020ED
:1016C0002DE9F84FDFF890B100224FF001084FF0FC
:1016D000030A4FF00F090BF1040E00BF0B6808FA64
:1016E00002F42340A3426ED14D68022D01D0122D89
:1016F0000ED1D50800EB850CDCF820505607F70E0C
:1017000009FA07F6B5430E69BE402E43CCF82060B7
:10171000066855000F790AFA05FC07F0030726EA68
:101720000C06AF40374307604E68012E05D0022EED
:1017300003D0112E01D0122E0ED18768CE6827EA71
:101740000C07AE403E4386604668A6430C79C4F35E
:101750000014944034434460C4688E6824EA0C0446
:10176000AE402643C6604C68E4006FD53B4C25680C
:1017700045F480452560246822F0030504F4804484
:101780000094374C2E19D6F8084895072F0F09FA00
:1017900007F5AC43334DA84201D100252EE0324D70
:1017A000A84201D1012529E0304DA84201D10225EE
:1017B00024E02F4DA84201D103251FE02D4DA84262
:1017C00002D104251AE041E02B4DA84201D10525A4
:1017D00014E02A4DA84201D106250FE0284DA84269
:1017E00001D107250AE0274DA84201D1082505E0CF
:1017F000254DA84201D1092500E00A25BD40254319
:10180000C6F80858DBF800405D464E689C43F60376
:1018100000D51C432C60DEF8004075464E689C43A2
:10182000B60300D51C432C600B4D08352C684E6860
:101830009C43F60200D51C432C60074D0C352C68E8
:101840004E689C43B60200D51C432C60521C102AE3
:10185000FFF444AFBDE8F88F003C0140443802403B
:101860000030014000000240000402400008024035
:10187000000C024000100240001402400018024018
:10188000001C024000200240002402400AB1816195
:1018900070470904FBE700000148806870470000BA
:1018A0000C00002002488168027811448160704772
:1018B0000C0000200B4810B5016841F40071016074
:1018C000016841F480610160016841F48071016048
:1018D000032000F073F80F2000F006F800F024F861
:1018E000002010BD003C024070B50D4D04464FF481
:1018F0007A712878B1FBF0F00A490968B1FBF0F081
:1019000000F01CFC48B9102C07D200222146501EC2
:1019100000F034F800206C6070BD012070BD000044
:101920000C000020180000200C4882B0016841F42F
:1019300080410160006800F4804000900748001F6B
:10194000016841F0805101600068002200F0805081
:1019500000900F21901E02B000F010B844380240F1
:10196000002809DB00F01F0201219140400980009E
:1019700000F1E020C0F8001170470000F0B40E4BF9
:101980001B680C46C3F30223C3F10705042D00D9DD
:101990000425191D072901D2002300E0DB1E0126C2
:1019A00006FA05F1491E214099409E40761E1640D8
:1019B0003143F0BC01F0B2B90CED00E0064900F093
:1019C000070208684FF6FF03184040EA0220034A66
:1019D00010430860704700000CED00E00000FA05BD
:1019E0002DE9F0470E46050065D0DFF81481D8F8E0
:1019F0000000F7B200F00F00B04207D288F8007084
:101A0000D8F8000000F00F00B04254D128683D4CD7
:101A1000810712D5400703D5206840F4E0502060CC
:101A20002878000703D5206840F4604020602068D3
:101A3000A96820F0F000084320602878C0072DD066
:101A4000304968680839012812D0022813D00328C9
:101A500011D00968890700292DDA216821F00301D6
:101A600001432160FFF718FF814641F2883A0EE0FA
:101A700009688903EFE709688901ECE7FFF70CFFC4
:101A8000A0EB0901514502D90320BDE8F087206889
:101A9000696800F00C00B0EB810FEFD1D8F80010AE
:101AA000404601F00F01B14207D90770006800F00D
:101AB0000F00B04201D00120E7E72878400705D5A4
:101AC0002068E96820F4E050084320602878000787
:101AD00006D52068296920F4604040EAC1002060F2
:101AE00000F036F82168084AC1F30311515CC84080
:101AF000064908600F20FFF7F7FE0020C5E7000049
:101B0000003C024008380240484F000818000020FE
:101B10000448054900680968044AC1F38221515C00
:101B2000C84070471800002008380240584F00088D
:101B30000448054900680968044AC1F34231515C10
:101B4000C84070471800002008380240584F00086D
:101B5000154810B5006810F00C02144813D0144951
:101B6000042A0FD0082A0ED10F4C241F22682368A4
:101B700002F03F025B0207D52068C0F38810A0FB8B
:101B8000010106E0084610BD2168C1F38811A1FBE0
:101B900000010023FEF7D0FB2168C1F30141491C7D
:101BA0004900B0FBF1F010BD083802400024F400F9
:101BB000001BB7002DE9F84F050076D02878DFF834
:101BC000F8B2BE4CC00749D0DBF800105846C1F34C
:101BD0008101012908D00068C0F3810002280AD1E0
:101BE000201D0068400206D52068800336D568684D
:101BF0000028E2D032E06868B0F5803F10D0B0F540
:101C0000A02F206810D020F480302060206820F4BD
:101C1000802020606868A0B1FFF73EFE06460CE019
:101C2000206840F48030F4E740F480202060F7E73B
:101C3000FFF732FE801B642873D820688003F7D535
:101C40000CE0FFF729FE064605E000BFFFF724FE83
:101C5000801B6428F0D820688003F7D42878DFF848
:101C6000608280074FF000093ED5DBF8001058462F
:101C700011F00C0F09D00068C0F3810002280BD1CD
:101C80008D48001F0068400206D42068800715D5E3
:101C9000E868012809D111E0E868B8B10120C8F866
:101CA0000000FFF7F9FD064605E002E1FFF7F4FD4D
:101CB000801B0228C0D820688007F7D520682969D2
:101CC00020F0F80040EAC10020600DE0C8F8009064
:101CD000FFF7E2FD064604E0FFF7DEFD801B022869
:101CE0001FD820688007F7D42878000722D5724EC5
:101CF000744869696C3671B101210160FFF7CCFD50
:101D0000074604E0FFF7C8FDC01B022809D8306869
:101D10008007F7D50EE0C0F80090FFF7BDFD07463D
:101D200005E083E0FFF7B8FDC01B02287ED83068CD
:101D30008007F7D42878400768D5DFF87CA1002712
:101D40000AF1380ADAF80000C0000BD4DAF8001003
:101D500041F08051CAF80010DAF80000012700F0C5
:101D600080500090584E3068C00510D4306840F460
:101D700080703060FFF790FD009005E0FFF78CFD6C
:101D80000099401A022851D83068C005F6D54A4E4D
:101D9000A868683601280FD00528306810D020F0D8
:101DA00001003060306820F004003060A868B8B1ED
:101DB000FFF772FD00900FE0306840F00100F4E79B
:101DC00040F004003060F7E7FFF766FD0099411A24
:101DD00041F28830814264D830688007F4D50EE043
:101DE000FFF75AFD009007E0FFF756FD0099411AF2
:101DF00041F28830814254D830688007F4D42FB142
:101E0000DAF8001021F08051CAF80010A869C0B3B8
:101E1000DBF80010C1F3810102294AD002284846AC
:101E200007D0C8F86000FFF737FD00E039E005464D
:101E30003AE04746C8F86000FFF72EFD064604E08A
:101E4000FFF72AFD801B02282BD820688001F7D4D9
:101E5000D5E907010843A96A1C4A490802EB014178
:101E60006A6A41EA8211084395F82C1040EA016140
:101E70001148001F016001203866FFF70DFD05467F
:101E800005E014E0FFF708FD401B022809D8206890
:101E90008001F7D50BE000BFFFF7FEFC401B0228D6
:101EA00002D90320BDE8F88F20688001F4D4002017
:101EB000F8E70120F6E70000083802400038024049
:101EC00000004742800E4742007000400000FFFFC4
:101ED00070B5040005D00025A56294F8510010B13A
:101EE00006E0012070BD84F85050204600F030F824
:101EF000022084F851002068016821F0400101604F
:101F0000D4E901010843D4E903121143084361698C
:101F10000843218B01F400710843E1690843216AF9
:101F20000843A16A084321680860A069042101EA06
:101F30001040616A0843216848602068C16921F443
:101F40000061C1616565012084F85100002070BD09
:101F5000F0B587B0044614216846FEF737FA1C49ED
:101F60002068884232D11B480024016841F4805126
:101F70000160006800F4805005901648143801682C
:101F800041F002010160016801F002010591016860
:101F900041F0010101600068022500F00100059098
:101FA0000820CDE9000502AA0326052782E8D00013
:101FB00069460948FFF784FB8020CDE9000502AAA5
:101FC000694682E8D0000548FFF77AFB07B0F0BD0C
:101FD000003001404438024000040240000002404A
:101FE0002DE9F84F044690F8500000271D4616468C
:101FF000894601280DD04FF0010B84F850B0FFF74F
:102000004BFC804694F85100BA46012804D00227C0
:102010008EE00220BDE8F88FB9F1000F7DD0002ED0
:102020007BD0032084F85100C4F854A0C4F8309049
:10203000A686E686C4F838A0A4F83CA0A4F83EA082
:10204000C4F844A0C4F840A0A068B0F5004F04D183
:102050002068016841F480410160206801684906F8
:1020600003D4016841F040010160E068B0F5006F01
:10207000606803D030B3012E24D040E008B1012EB7
:102080001CD1206B21680088C86006E02068816848
:10209000890709D5216B0988C160206B801C2063EA
:1020A000E08E401EE08609E0FFF7F6FBA0EB08009B
:1020B000A84202D3681C01D031E07DB3E08E002835
:1020C000E4D11FE0206B21680078087306E02068E7
:1020D0008168890709D5216B09780173206B401C41
:1020E0002063E08E401EE08609E0FFF7D5FBA0EB01
:1020F0000800A84202D3681C01D010E075B1E08E40
:102100000028E4D142462946204600F017FB08B1DA
:1021100020206065A06820B107E008E0FFE7032702
:1021200006E02068C16880680090606D00B10127FA
:1021300084F851B084F850A038466BE710B5401EC3
:10214000B0F1807F01D3012010BD4FF0E024606129
:102150000F21601700F0E2FD0020A0610720206140
:10216000002010BD30B401680A68D2065ED50A6846
:102170004968416B304A096891420AD02F4A91421E
:1021800007D02D4A6032914203D02C4A60329142EE
:1021900001D1202222E0284B1833DA1499421DD0B5
:1021A000264B1833994219D0234B7833994215D0D6
:1021B000224B7833994211D01F4B9202303399420F
:1021C0000CD01E4B3033994208D01B4B90339942B0
:1021D00004D01A4B9033994200D092010B6823F03F
:1021E00001030B60416B154B09684833994202D9D2
:1021F0001249091F05E0104BA833994203D90F4932
:1022000008390A6008E00C4C0B4B4834103BA142E3
:1022100001D9DA6000E09A60426B818D12685160EA
:10222000416B09680A6842F001020A60816A30BCA9
:102230000348FEF751BB00001060024010640240EA
:102240004045002070B5040004D094F83900002502
:1022500010B106E0012070BD84F83850204600F02F
:1022600023F8242084F839002068C16821F4005143
:10227000C160204600F0B2FB2068016921F4904162
:1022800001612068416921F02A0141612068C1682B
:1022900041F40051C160E563202084F8390084F8DE
:1022A0003A00002070BD0000F0B587B0064614214A
:1022B0006846FEF78BF83349DFF8C4C0376800255D
:1022C00030481439022201230324674539D10768B5
:1022D00047F010070760006800F0100005900868DC
:1022E00040F0020008600868694600F002000590AE
:1022F000C0208DE81D00072004902348FFF7E0F977
:10230000234C224820604FF00060C4E901054014CE
:10231000C4E903506561A561E561256220466562F7
:10232000FFF72EF908B1FEF7AAFC7463002206211C
:102330002520A663FFF722FB2520FFF711FB07B03E
:10234000F0BD144DAF42FAD1056845F02005056097
:10235000006800F020000590086840F04000086028
:102360000868694600F0400005904FF484408DE80D
:102370001D00082004900848FFF7A2F9DFE70000DD
:102380000010014044380240000402404064024012
:1023900054040020001401400018024030B40368C7
:1023A000DC6844F01004DC6030BC00F0DBBA2DE9DE
:1023B000F843044690F839001F4616460D4620287B
:1023C00050D1A5B19EB194F8380001284AD001201F
:1023D00084F838004FF00008C4F83C80212084F8CD
:1023E0003900FFF759FAA6848146E68426E00120E9
:1023F000BDE8F883E08C401EE084A0684B46B0F551
:10240000805F4FF000024FF080012046009703D01C
:1024100000F03AFCE8B90DE000F036FCC8B92888B5
:102420002168C0F308004860206908B16D1C05E010
:10243000AD1C03E0216815F8010B4860E08C002812
:10244000D8D14B46002240212046009700F01CFCCA
:1024500008B10320CCE7202084F8390084F83880C4
:102460000020C5E70220C3E7FEE700002DED048B46
:102470001EA000F043FC01F021FD002001F0DAFC79
:102480001F4D9FED208ADFED208A9FED209ADFED22
:10249000209A002404EB840000EBC40005EB8000CC
:1024A000B0EE482AF0EE681AB0EE491AF0EE690A6A
:1024B000B7EE080A01F0D7FE641CE4B2072CE9D39A
:1024C00001F086FC4FF47A7001F046FE002001F026
:1024D000B1FC01F085FD0F4C0FA000F00FFC20684F
:1024E00002F0B4FA012001F037FEF5E7496E204909
:1024F0006E697469616C5F5461736B0D0A00000052
:10250000A44100200000804600409C4500000000DF
:10251000CDCCCC3D04000020496E20496E69746921
:10252000616C5F5461736B2773206C6F6F700D0A61
:10253000000000000F4810B50D4901600321416003
:1025400000214FF400228160C0E903124FF44012D1
:102550004261017641768176C17601774177FEF757
:10256000FEFD002803D0BDE81040FEF788BB10BD7B
:102570000064004000010020094808B5016841F4EA
:10258000800101600068002200F4800000900521B5
:102590003A20FFF7F3F9BDE808403A20FFF7E0B929
:1025A0003038024000B587B01C2207496846FDF765
:1025B000F4FE0021684601F0DBFD0449086004A038
:1025C00000F09CFB07B000BDEC4E000800000020AE
:1025D00065766572797468696E67206973207265C3
:1025E000616479210000000070B586B0142168464E
:1025F000FDF7ECFE1E480024016841F04001016037
:10260000016801F040010591016841F0020101609B
:10261000016801F002010591016841F001010160CA
:10262000016801F001010591016841F008010160B4
:10263000016801F008010591016841F08001016025
:1026400000680C4E00F080004FF4C0650590002239
:1026500029463046FFF71AF901200095CDE901041B
:10266000694630460394FFF72BF806B070BD0000B2
:102670003038024000040240114810B50F49016093
:102680004FF4827141604FF4004181600021C160CC
:102690004FF400720161C0E905122022C0E9072150
:1026A000416281620A21C162FFF712FC002803D057
:1026B000BDE81040FEF7E3BA10BD00000030014055
:1026C0007C0300200C4810B50A4901600B494160A9
:1026D000002181600C22C160C0E904128161C161E6
:1026E000FFF7B0FD002803D0BDE81040FEF7C7BAE1
:1026F00010BD000000100140D4030020A08601009E
:102700000C4810B50A4901604FF4E13141600021E5
:1027100081600C22C160C0E904128161C161FFF7D0
:1027200091FD002803D0BDE81040FEF7A8BA10BD07
:102730000014014014040020FEE7704738B5044639
:102740001248134B0068B0FBF3F04FF47A73584310
:1027500000906068B0F5827F0DD10B460092002298
:102760008021204600F016F870B1606D40F0200026
:102770006065032038BD009830B1401E009020688D
:102780008068C0430006F6D5002038BD1800002040
:1027900000366E012DE9F0411D4617460E460446EF
:1027A000DDF8188008E0681C06D0FFF775F8A0EB8C
:1027B0000800A8420BD255B12068806836EA0000B4
:1027C00030D00020B842EED10020BDE8F081206872
:1027D000416821F0E00141606068B0F5827F0BD173
:1027E000A068B0F5004F02D0B0F5806F04D120682A
:1027F000016821F040010160A06AB0F5005F09D1D5
:102800002068016821F4005101602068016841F4EA
:1028100000510160012084F85100002084F850002C
:102820000320D2E70120CDE78EB001F0E9FF1C22A2
:102830000E496846FDF7B1FD0021684601F098FC9D
:102840000B4C0A491C2260601C3107A8FDF7A5FD4E
:10285000002107A801F08CFCA060206802F06AF853
:1028600001F0EEFF012001F077FCFBE7084F0008C4
:102870000000002010B5FFF715F802F063FA0128F8
:1028800003D0BDE8104002F0EFB910BD30B593B0F1
:1028900030216846FDF79AFD14210CA8FDF796FD3E
:1028A00019480025016841F080510160006800F07E
:1028B000805011901548016841F440410160006862
:1028C000022400F440401190012000900004019087
:1028D0008001CDE9064006200890A820CDE9090432
:1028E00004200B906846FFF765F90CA90F2081E8DA
:1028F00031004FF4A0500F90E002109005210CA879
:10290000FFF76EF813B030BD403802400070004051
:102910001048016841F4700101600F48016841F0FE
:10292000010101600C4A00210832116002680B4B62
:102930001A400260031D0A4A1A60026822F48022CB
:10294000026005480C300160024958068039086071
:102950007047000088ED00E000380240FFFFF6FEFF
:1029600010300024F8B5044690F83A00202833D1FE
:1029700079B372B394F8380001282DD0012084F87F
:102980003800A162A2850025E563222084F83A0080
:10299000606B134605650846666B21680246304643
:1029A000091DFEF757FE206801684168009184F810
:1029B0003850C16841F48071C1602068416941F0BC
:1029C000010141612068416941F0400141610020FD
:1029D000F8BDFFE70120FBE70220F9E72DE9F04110
:1029E000044600680169E26821F440511143016125
:1029F0002169A068E26908436169114322680843BC
:102A0000D16849F20C6399430143D1602068416960
:102A1000A26921F4407111434161E2696425B2F574
:102A2000004F9748974922684FF032083FD08A42BA
:102A300001D082427CD1FFF77BF800EBC00101EBB3
:102A4000001061688900B0FBF1F6FFF771F800EB48
:102A5000C00101EB001061688900B0FBF1F0B0FB30
:102A6000F5F06FF01801484306EB800108EB011008
:102A7000B0FBF5F000F0F006FFF75AF800EBC001EC
:102A800001EB001061688900B0FBF1F0B0FBF5F0DC
:102A900006EB0016FFF74CF800EBC00101EB00104D
:102AA00061688900B0FBF1F7FFF742F8D2E08A4293
:102AB00001D082423DD1FFF73BF800EBC00101EBB2
:102AC000001061684900B0FBF1F0B0FBF5F00601C1
:102AD000FFF72EF800EBC00101EB00106168490020
:102AE000B0FBF1F7FFF724F800EBC00101EB001099
:102AF00061684900B0FBF1F0B0FBF5F06FF0180130
:102B0000484307EB800108EBC100B0FBF5F000F093
:102B1000F80006EB4006FFF70BF800EBC00101EBF5
:102B2000001061684900B0FBF1F7FFF701F83CE0E5
:102B300055E0FEF7EDFF00EBC00101EB001061680E
:102B40004900B0FBF1F0B0FBF5F00601FEF7E0FF45
:102B500000EBC00101EB001061684900B0FBF1F728
:102B6000FEF7D6FF00EBC00101EB001061684900E1
:102B7000B0FBF1F0B0FBF5F06FF01801484307EB44
:102B8000800108EBC100B0FBF5F000F0F80006EBA7
:102B90004006FEF7BDFF00EBC00101EB00106168CD
:102BA0004900B0FBF1F7FEF7B3FF00EBC00101EB0A
:102BB000001061684900B0FBF1F0B0FBF5F06FF078
:102BC0001801484307EB800108EBC100B0FBF5F0AA
:102BD00000F00700216830448860BDE8F081FEF70E
:102BE00097FF00EBC00101EB001061688900B0FBAA
:102BF000F1F6FEF78DFF00EBC00101EB00106168FC
:102C00008900B0FBF1F0B0FBF5F06FF0180148431C
:102C100006EB800108EB0110B0FBF5F000F0F006C8
:102C2000FEF776FF00EBC00101EB00106168890040
:102C3000B0FBF1F0B0FBF5F006EB0016FEF768FF15
:102C400000EBC00101EB001061688900B0FBF1F7F7
:102C5000FEF75EFF00EBC00101EB00106168890028
:102C6000B0FBF1F0B0FBF5F06FF01801484307EB53
:102C7000800108EB0110B0FBF5F000F00F00A9E7B0
:102C800000140140001001402DE9F041984617461C
:102C90000E460446069D1DE0681C1BD02DB1FEF7B4
:102CA000FBFDA0EB0800A84214D92068C16821F4FC
:102CB000D071C1602068416921F00101416120208B
:102CC00084F8390084F83A00002084F838000320A2
:102CD000BDE8F0812068006836EA000004D00020DA
:102CE000B842D9D00020F3E70120F9E70148FFF707
:102CF00039BA0000D4030020FEE700000FB4054BF2
:102D000010B503A9044A029800F0EAF810BC5DF877
:102D100014FB0000013D0008FC0000200907090E1B
:102D2000002804DB00F1E02080F80014704700F078
:102D30000F0000F1E02080F8141D704702E008C881
:102D4000121F08C1002AFAD170477047002001E025
:102D500001C1121F002AFBD1704700002DE9FF5F5F
:102D600082B00021DDE90430020DDDF840B00343FC
:102D700018D044F61050A2F2FF32424315141198B5
:102D800001281FD0A5EB0B00401C5FEA000A4FF0A2
:102D900000064E4FDFF83891B046504615D5CAF1BF
:102DA000000413E0119801244AA3012801D16FEA1D
:102DB0000B010298119AC0E90031C0E9024206B045
:102DC000BDE8F09FCBF10000DFE704460021404A58
:102DD000491842EB0450CDE9001012E0E00707D09B
:102DE00032463B4640464946FDF7D7FB804689467A
:102DF00032463B4610461946FDF7CFFB06460F46C6
:102E00006410002CEAD1DDE90401DDE90023BAF108
:102E1000000F06DAFDF7C1FB42464B46FDF7BDFB4E
:102E200005E0FDF72CFC42464B46FDF728FC044626
:102E30000E460022284BFDF7A9FC03D84FF0FF30C7
:102E4000014607E00022254B20463146FDF7FEFAF9
:102E5000FDF784FC102409E0002C0ADB0A22002381
:102E6000FDF76AFA039B30321A55641E50EA0102DC
:102E7000F2D1641C039AC4F111031444119A012A7B
:102E800003D0012208430DD10AE0084304D00020FA
:102E90004FF0110B119072E7A3EB0B056D1E0DE0C7
:102EA0005B4504DD4FF0000205F1010504E003DAA3
:102EB0004FF00002A5F10105002AECD0029811990B
:102EC000C0E90231C0E9004579E700000000144084
:102ED0000000F03F300000000000F0430000E03F41
:102EE0002DE9FF4F95B09B468946064600250FE227
:102EF000252877D100242746F84A0121059400E0CF
:102F0000044316F8013F203B01FA03F01042F7D1C9
:102F100030782A2811D06FF02F033078A0F13002DA
:102F2000092A16D8059A44F0020402EB820203EB48
:102F300042021044761C0590EFE759F8042B0592E5
:102F4000002A03DA504244F40054059044F002048D
:102F5000761C30782E2816D116F8010F44F00404A0
:102F60002A280DD06FF02F023078A0F13003092B02
:102F700009D807EB870302EB4303C718761CF3E776
:102F800059F8047B761C30786C280FD006DC4C286E
:102F900017D068280DD06A2814D104E0742810D006
:102FA0007A280FD10DE044F400140AE044F48014B0
:102FB00001E044F440147278824202D104F5801496
:102FC000761C761C307866280BD013DC582877D016
:102FD00009DC002875D04528F6D04628F4D04728CB
:102FE0001AD19DE118E0632835D0642879D065288E
:102FF00012D195E1702873D008DC6728F1D06928D8
:103000006FD06E280DD06F2806D1B5E073282CD074
:10301000752875D0782874D05A46179990476D1C3A
:1030200075E1C4F30250022809D003280DD0D9F865
:10303000001004280DD00D6009F1040967E1D9F8EA
:103040000010EA17C1E90052F6E7D9F800100D8028
:10305000F2E70D70F0E719F8041B8DF8001000205E
:103060008DF80100EA46012003E059F804AB4FF067
:10307000FF3061074FF0000102D40DE008F10101BB
:103080008846B9420FDA8045F8DB1AF808100029A3
:10309000F4D108E008F1010188468142FADB1AF810
:1030A00008100029F6D105985B46A0EB08072146D9
:1030B0003846179A00F094FA284400EB080507E018
:1030C0004DE029E10DE01AF8010B5A461799904797
:1030D000B8F10108F7D25B4621463846179A13E14A
:1030E00042E00A220092C4F302524FF0000A022A80
:1030F00008D059F804CB032A4FEAEC710AD00DE04E
:1031000029E02AE009F1070121F00702F2E802C1F3
:10311000914609E00FFA8CFC4FEAEC71042A03D1C6
:103120004FFA8CFC4FEAEC71002907DA0A460021BD
:10313000DCF1000C61EB02012D2202E0220504D536
:103140002B228DF80420012203E0E20701D0202287
:10315000F7E7904659E00A2102E010220DE0102125
:103160004FF0000A00910BE010224FF0000A44F0EB
:1031700004040827009203E008224FF0000A00929E
:10318000C4F30252022A05D059F804CB0021032AC5
:1031900008D009E009F1070121F00702F2E802C1B5
:1031A000914605E01FFA8CFC042A01D10CF0FF0CBB
:1031B0004FF00008220728D5702806D0009B83F026
:1031C000100353EA0A0305D00EE040228DF80420D4
:1031D000012208E05CEA010206D030228DF80420CA
:1031E0008DF8050002229046009B83F0080353EA05
:1031F0000A030AD15CEA010201D1620705D5302237
:103200008DF804204FF001087F1E582804D034A008
:1032100003900EA802900DE036A0F9E753466046F1
:10322000009AFDF789F884460398825C0298401E54
:10323000029002705CEA0100F0D1029806A9081A17
:1032400000F1200A600702D524F4803400E0012751
:10325000574502DDA7EB0A0000E0002000EB0A0161
:10326000009005984144401A0590E00306D45B465F
:103270002146179A059800F0B3F90544002706E0A7
:1032800001A85A46C05D179990476D1C7F1C4745A1
:10329000F6DBE0030CD55B462146179A059800F053
:1032A0009FF9054404E030205A46179990476D1C59
:1032B0000099481E00900029F5DC08E00298029968
:1032C0005A460078491C0291179990476D1CBAF133
:1032D0000001AAF1010AF1DC65E100000928010002
:1032E000303132333435363738396162636465667C
:1032F000000000003031323334353637383941423E
:10330000434445460000000000F058F90544761C8F
:10331000307800287FF4ECAD19B02846BDE8F08F76
:10332000620700D4062709F1070222F0070CFCE827
:103330000223E14603F000485FEA080C02D00FF2D6
:10334000702C0DE05FEA045C02D50FF2682C07E0F8
:103350005FEAC47C02D00FF2602C01E0AFF2700C87
:103360004FF0FF3823F00043CDF850C065280CD053
:1033700006DC452809D046281DD047283DD13DE030
:10338000662818D067287ED138E00021112F01DB94
:10339000112000E0781CCDE9000106A90EA8FFF776
:1033A000DDFCDDE90F010E9A03910021009207F187
:1033B000010A04914DE04FF000400097CDE9011063
:1033C00006A90EA8FFF7CAFCDDE90F0203920E9BC7
:1033D00011990022DDF80CA00093049211B9791C18
:1033E00000EB010AB7EB0A0004D4C0F1FF3007F18B
:1033F000010A0490AAEB0700019044E0012F00DAD3
:1034000001270021112F01DD112000E03846CDE910
:10341000000106A90EA8FFF7A1FCDDE90F010E9A35
:103420000391002104910092BA4621070CD403991C
:10343000514500DA8A46BAF1010F05DD009AAAF17A
:103440000101515C302908D0B84202DA10F1040FB2
:1034500006DA0121CDE9011015E0AAF10101E9E741
:10346000002805DC049901440491AAEB000102E064
:10347000411C514500DD8A460499401A401C0190C8
:103480004FF000400290200704D40198504501DB22
:10349000CDF8048000208DF84F0002980DF14F0701
:1034A000B0F1004F25D02B200E9002984FF002086B
:1034B00000280CDA404202902D200E9007E00A21ED
:1034C0000298FCF78EFF3031029007F8011DB8F129
:1034D0000001A8F10108F2DC02980028EFD1791E62
:1034E0000E980870307800F0200040F0450007F892
:1034F000020D12A8C01B00F107081498007800B153
:10350000012000EB0A01019801EBE07105984144AC
:10351000401A401E0590E00306D45B462146179AE8
:10352000059800F05DF805441498007818B15A46E3
:10353000179990476D1CE00324D55B462146179AE6
:10354000059800F04DF805441CE00498002807DBBE
:10355000DDE90301884203DD0098405C179901E032
:10356000179930205A469047049805F10105401CF0
:1035700004900198401E019004D12E205A461799BC
:1035800090476D1CBAF10001AAF1010ADDDC05E0EB
:1035900017F8010B5A46179990476D1CB8F10001B6
:1035A000A8F10108F4DC5B462146179A0598ABE6C2
:1035B0002D0000002B000000200000002DE9F0414C
:1035C000044600251E461746880404D405E0394603
:1035D0002020B0476D1C641EF9D52846BDE8F08157
:1035E0002DE9F041044600251E469046C80301D54A
:1035F000302700E02027880404D505E041463846FE
:10360000B0476D1C641EF9D52846BDE8F081000066
:1036100000B58BB000210122CDE906120591009181
:1036200001910291039104910E21CDE9082169468F
:10363000FDF79CFB0448FDF79FFE02210248FDF7C1
:103640001FFB0BB000BD00000001002070B500287A
:1036500036D0002934D0002A32D0002B30D0334C61
:103660009FED330A247864B3012C2AD0022C2DD08C
:10367000032C2FD0042C46D0052C21D11C68B4F982
:10368000004004EB8404640000EE104A6FF009046B
:10369000B8EEC00A80ED000A1868408810FB04F0FC
:1036A00000EE100AB8EEC00A81ED000A18688088A2
:1036B00010FB04F000EE100AB8EEC00A82ED000A1A
:1036C00070BD80ED000A81ED000AF7E7BDE87040AB
:1036D00000F058B914461D461A4600F0B5F928689E
:1036E00095ED670A9FED131AB0F9040000EE900AF9
:1036F000F8EEE00A00EEC10A9FED0F1ADFED0F0AA7
:1037000000F018FB0FE014461D461A4600F09CF925
:103710002868DFED0B0AB0F9040000EE100AB8EEDD
:10372000C00A20EE200A84ED000A70BD7C00002053
:1037300000000000BD370636DB0F4940DB0F49C0F3
:103740000AD723BC10B5002818D0016802220B7AD2
:103750001149032B13D00124022B13D0012B14D0B9
:103760000978032349B101290DD002290ED003297C
:103770000FD0042907D0052900D1037110BD0423FF
:103780000B7000E00C70027110BD0A700021017115
:1037900010BD047110BD00007C0000207FB5044600
:1037A0009FED460A00200090019002900146039090
:1037B00004F5C470D0EC030A6846B1EE602A72EEDC
:1037C000412A9FED3F2A41EE822ACDED002A70EE7C
:1037D000C12A41EE822A9FED3B2ACDED012A70EEEF
:1037E000812A71EE600A41EE822A41EE820ACDED15
:1037F000022ACDED030A2279032A11D100EB8102BE
:1038000001EB810392ED000A04EB8303491CBDEE3A
:10381000C00AC9B2042910EE102A1A83EED37FBD64
:1038200000EB8102D2ED000A01EB810204EB82027F
:10383000C2ED050AF0EEE00AB4EEE00AF1EE10FA8D
:1038400001D2B0EE600A491CC9B20429E8D310EED7
:10385000100AB0F1814F13DDB1EE001A5FF00000E5
:10386000C1EE000A00EB800104EB8101401C91EDE8
:10387000050AC0B2042820EE200A81ED050AF1D322
:103880005FF0000505EB850004EB800605EB850085
:1038900000EBC50004EB8000D6ED040A96ED050AA6
:1038A000583000F08FFCBDEEC00A6D1CEDB210EE7A
:1038B000100A042D3083E5D37FBD00000000000016
:1038C000EB5138BEAF4761BE002854D00021DFED78
:1038D0002A0A9FED2A1A00BF01EB810200EB820247
:1038E0009368B3F9063000EE103A01EB810303EB65
:1038F000C103B8EEC00A00EB8303491CC9B220EE35
:10390000200A042982ED040A93ED1D0AD3ED1E1A44
:1039100030EE610A20EE010A82ED030ADCD390ED5D
:10392000092AD0ED041A90ED0E0A90ED131A72EEEA
:10393000610AF1EE611A71EEC21A70EE800A31EE80
:10394000802A31EEC00A70EEC12AF5EE000A32EE8E
:10395000012A30EE410A62EEA02A22EE202A20EE51
:10396000200ADFED070AC0ED5F2A80ED602A80EEB5
:10397000201A80ED611A70470A01DA390000FA4313
:10398000CDCC4C3E70B51C46154600284DD00029C4
:103990004BD0002D49D0002C47D01A4600F054F8E7
:1039A00020689FED220A224C408A810606D5617864
:1039B00031B90121617084ED010A01E000216170DB
:1039C000810703D1410701D4000702D5DFED190AB1
:1039D00001E0DFED190AC4ED030A607890B194EDBF
:1039E000010AFCF75FFCD4ED030A20EE200ADFEDAC
:1039F000130A84ED020A94ED010A30EE200A84EDE8
:103A0000010A03E084ED020A94ED010A0C4910EE6C
:103A1000100A884205DDDFED0B0A30EE600A84ED06
:103A2000010A94ED020A85ED000A70BD0000000055
:103A30007C0000207CD9A03E3333333F2EE34D3C45
:103A4000DB0FC940DB0FC94070B514002DED028BB0
:103A50000D46064663D0002E61D0002D5FD022684F
:103A6000B2F9000000F10A01152900D20020B2F9D4
:103A7000021001F10A03152B00D2002100EE100AFA
:103A8000DFED280A508AB8EEC00A60EE208A00EE08
:103A9000101ADFED250AC107B8EEC00A20EE208A11
:103AA00002D0D4ED688A03E0810701D5D4ED698A9C
:103AB000410702D594ED6A8A03E0000701D594ED31
:103AC0006B8AB0EE680A04F5AE7000F0D9F8B0EE7B
:103AD000480A04F5B67000F0D3F818EE900A1349BE
:103AE0009FED130A884206DA18EE900A11498842BF
:103AF00001D284ED580A18EE100A0F49884206DAFE
:103B000018EE100A0D49884201D284ED5C0A94ED4A
:103B1000580A86ED000A94ED5C0A85ED000ABDECBA
:103B2000028B70BDA69BC43B0AD7A3BB90C2753D58
:103B30000000000090C275BDCCCC4C3DCCCC4CBD3F
:103B400030B504002DED048B83B02BD09FED498A56
:103B500003468DED008A8DED018A8DED028A02AA61
:103B600001A96846FFF772FD20799FED431ADFED4A
:103B7000430A04F59475C8B1012847D0022864D0DF
:103B800003280FD19DED000A84ED620A9DED010A24
:103B900084ED630A9DED020A84ED640A84ED588A7F
:103BA00084ED5C8A03B0BDEC048B30BD9DED000A52
:103BB000DDED011A28EE002A08EE212A68EE211A0E
:103BC00048EE401A84ED622AC4ED631A9DED020AA4
:103BD00000F0B0F884ED660AF0EE480A284600F0DE
:103BE000F1FAB1EE400A84ED640A94ED681AD4ED5E
:103BF000690A94ED620A00F073F884ED620A94EDAC
:103C00006A1AD4ED6B0A94ED630A19E0F0EE418A6A
:103C1000B0EE609A9DED020A00F08CF884ED670A20
:103C2000D4ED6C0AB0EE681A30EE600AF0EE490A84
:103C300000F080F8F0EE480A284600F0C3FA06E0EB
:103C400000F04EF884ED630AACE79DED020A84EDC6
:103C5000640A94ED681AD4ED690A9DED000A00F03B
:103C60003FF884ED620A94ED6A1AD4ED6B0A9DED7B
:103C7000010AE5E700000000DB0F4940DB0F49C007
:103C800010B510EE103A03608168C26800EE101A99
:103C900000EE902A446830EE201A00EE101AC0EEB2
:103CA000010A00EE104A20EE801A00EE101A00EE13
:103CB000902A70EE201A00EE102AC0EE210A00EEC3
:103CC000103A00EE801A11EE101A416010BD10EE8D
:103CD000102AC2600968816000210160416070475C
:103CE000B4EEE00AF1EE10FA02D2B0EE600A7047CC
:103CF000B4EEC10AF1EE10FAF9DDB0EE410A7047F8
:103D000013B54FF6FF73012269460248FEF74FFBD9
:103D100000981CBD1404002000F003000249C0EB11
:103D2000C00001EB400070478E0000200048704743
:103D300040450020B4EEE01AF1EE10FA0FD371EE18
:103D4000601AB4EEC10AF1EE10FA03DC08E000BF1D
:103D500030EE610AB4EEC10AF1EE10FAF8DC7047F9
:103D6000B4EEE00AF1EE10FA02D3704730EE210A09
:103D7000B4EEE00AF1EE10FAF8D37047FDF79AFDC1
:103D8000FEF784FDFEF730FCFEF7F6FBFEF7D2FBF4
:103D9000FEF772FCFEF796FCFEF7B2FC0648FFF752
:103DA00037FC642205490648FEF7F8FAFEF7FAFBED
:103DB00000F0D9F9FEE7000000010020DC440020FB
:103DC000D403002001460020842900D0C81C70477D
:103DD0002DE9F047002000F02DF8DFF85490002482
:103DE0005FF0000609EBC60000EBD4000025077861
:103DF0004FFA86F8380604EB050041B201D50122DE
:103E000000E00022404600F035F878066D1C070EF1
:103E1000EDB2082DEED3761CF6B2802EE2D3083434
:103E2000E4B2402CDCD3BDE8F04700F0D9B8000084
:103E3000DC530008F0B500210D4BFF260C46002294
:103E400001280FD003EBC20580B16F5CC7F1FF07FB
:103E50006F54521CD2B2802AF2D3491CC9B208292D
:103E6000EDD3F0BD03EBC2056E54F2E76C54F0E7FE
:103E70005445002070B5802817D2002915DB3F2952
:103E800013DCCB1701EB5375C5F3C70325F007050A
:103E90000124094E491B8C4006EBC000012A05D0C5
:103EA000C15C022A05D0A143C15470BDC15C21434D
:103EB000FAE76140F8E700005445002070B5474D2F
:103EC0004FF48064002221462846FDF7DFFC4FF4C2
:103ED000FA70FDF7E3FB012221462846FDF7D6FCE8
:103EE0000021AE2000F022F90021084600F01EF962
:103EF0000021102000F01AF90021402000F016F9EE
:103F00000021812000F012F90021CF2000F00EF9ED
:103F10000021A12000F00AF90021C82000F006F9D4
:103F20000021A62000F002F90021A82000F0FEF8F0
:103F300000213F2000F0FAF80021D32000F0F6F82D
:103F40000021084600F0F2F80021D52000F0EEF83C
:103F50000021802000F0EAF80021D92000F0E6F8E6
:103F60000021F12000F0E2F80021DA2000F0DEF874
:103F70000021122000F0DAF80021DB2000F0D6F852
:103F80000021402000F0D2F80021202000F0CEF8DF
:103F90000021022000F0CAF800218D2000F0C6F8B0
:103FA0000021142000F0C2F80021A42000F0BEF887
:103FB0000021A62000F0BAF80021AF2000F0B6F8EA
:103FC0000021AF2000F0B2F80020FFF733FFBDE87A
:103FD00070400021084600F01DB8000000040240B7
:103FE00070B50B4E00242146002000F013F8002588
:103FF00006EBC5000121005D00F098F86D1CEDB2E4
:10400000802DF5D3641CE4B2082CECD370BD000005
:104010005445002010B5801CC4B2B031C8B2002194
:1040200000F084F8102040EA1410002100F07EF81F
:1040300004F0F000BDE81040002100F077B8000067
:104040002DE9F04F01EB410100EB400049068006ED
:10405000040E203A4FEA1169D0B2164900EB400035
:10406000A046002501EB800B00261BF805704FFAD7
:1040700089FA380601D5012200E0002261B25046DB
:10408000FFF7F8FE7806641C070EE4B2A4EB080004
:104090000C2809D0761CF6B2082EEAD36D1CEDB2BE
:1040A0000C2DE1D3BDE8F08F09F10100444600F08A
:1040B000FF09F3E7684F00082DE9F047002699460D
:1040C0001746884682463446089D2AE0281B401E33
:1040D0000A22C1B2012000E05043491EC9B2FBD2FE
:1040E000B7FBF0F00A21B0FBF1F201FB120026B998
:1040F000691E8C4201DA30B101263030C2B208EBC1
:104100000400C1B208E008EB0400B9F1000FC1B22D
:1041100001D0302200E020225046FFF791FF641CBE
:10412000E4B2AC42D2D3BDE8F087000013B5084832
:104130004FF4007309B1012200E000221946FDF797
:10414000A5FB0A23012269460248FDF749FF1CBD71
:10415000000402407C03002010B500B9012000F0EB
:10416000C3FB002010BD10B500F03AFC002010BDCC
:104170007FB50D4604464169B0F9080081B1A169D7
:1041800071B1FFF71FFED4E905128DE80700D4E9ED
:1041900000102B46226900F0AAFD039004B070BD08
:1041A000FFF710FE03A9CDE90001208A2B4682B259
:1041B000D4E9001000F06EFD012801D00020EDE7E9
:1041C0000398EBE780ED050AC0ED060A90ED071AAB
:1041D00070EE600A80ED081AC0ED070A90ED000A43
:1041E00020EE202A80ED092A90ED0A0AD0ED011A6E
:1041F00001EEA00A80ED0A0AD0ED021A11EEA01A13
:1042000080ED0B1AD0ED030AF1EE601AB4EEE10A6C
:10421000F1EE10FA02D8B0EE610A06E0B4EEE00A60
:10422000F1EE10FA01DBB0EE600A80ED0A0A32EE20
:10423000000A30EE010A80ED0C0AD0ED040AB1EE5E
:10424000601AB4EEC10AF1EE10FA02D8B0EE410ADB
:1042500006E0B4EEE00AF1EE10FA01DBB0EE600A1F
:1042600080ED0C0A704780EC050A70472DE9F0419B
:10427000184C0F46054666692068001D00F070FA6C
:1042800038B9206890F82C1001208840A16981433A
:10429000A161681C07D137B12168BDE8F0410E4823
:1042A000091D00F0A1BA20683544B5424560216877
:1042B00005D2A068BDE8F041091D00F07DBA606834
:1042C000091D00F079FA206B854200D22563BDE814
:1042D000F08100001C000020900500202DE9F04135
:1042E000054600F08DFA2E4C2069401C20612068A4
:1042F0002C4F10B1E06940B32DE025602069012802
:1043000029D1002606EB860007EB800000F046FA74
:10431000761C072EF6D323488C3000F03FFA214854
:10432000A03000F03BFA1F48B43000F037FA1D48C7
:10433000C83000F033FA1B48DC3000F02FFA19487F
:104340008C3060601430A06005E02068E96AC06AC3
:10435000884200D82560E06A401CE062E96A0120DA
:10436000A26988401043A06101EB810007EB800047
:10437000291D00F039FA00F063FAE06900280CD03A
:104380002068E96AC06A884207D207494FF0805026
:104390000860BFF34F8FBFF36F8FBDE8F08100005F
:1043A0001C000020B404002004ED00E010B5044619
:1043B00090F8510058B101280CD002280FD050209D
:1043C00080F31188BFF34F8FBFF36F8FFEE7206B31
:1043D00000F04AFA2046BDE8104000F045BA10BD92
:1043E00010484FF47051420706D0C01D0D4920F00F
:1043F0000700411AC1F570510B4A00230144C2E97C
:1044000000030839103A21F0070111604B600B607E
:104410000B1AC0E9001393604FF000405360D06066
:1044200070470000A405002068000020144E154CC1
:10443000A6F1C8074FF08058DFF84C9012E000BF9B
:1044400000F0DEF9F068C568281D00F089F92069E0
:10445000401E2061E068401EE06000F0F1F928464F
:10446000FFF7A4FFE0680028EAD138680128F9D9ED
:10447000C9F80080BFF34F8FBFF36F8FF2E70000E2
:104480007C0500201C00002004ED00E02DE9F04731
:104490009A46DDE9098481466FF00303206B03EB44
:1044A00082021044089D20F00706700707D05020B4
:1044B00080F31188BFF34F8FBFF36F8FFEE7231890
:1044C0000A5C83F834200A5C12B1401C1028F6D331
:1044D000002784F84370072D00D30625E562C4E960
:1044E0001157201D00F065F904F1180000F061F982
:1044F0002461C5F107006462A061E76484F850702C
:1045000052464946304600F0BFF82060B8F1000F2F
:1045100001D0C8F80040BDE8F087000030B511496F
:1045200000E011460A688242FBD34B685C18844263
:1045300003D1406818444860084643681C189442F8
:1045400009D1084C103C2468A24209D052681A4490
:1045500042600A6812680260814200D0086030BD83
:104560000460F9E76800002006484168096829B13D
:104570004168C968C9684968016370474FF0FF31F5
:10458000FAE700001C00002008484068401C4FF07B
:10459000500080F3118804D0BFF34F8FBFF36F8FAB
:1045A000FEE7BFF34F8FBFF36F8FFEE77000002071
:1045B0002DE9F0410546002700F0A6FA314E30689B
:1045C00008B9FFF70DFFF06805424BD1C5B30835B8
:1045D00068070ED005F00700C0F108000544680721
:1045E00007D0502080F31188BFF34F8FBFF36F8F38
:1045F000FEE72DB37068854234D82248103001465A
:104600000C6801E020460C466168A94202D221688C
:104610000029F7D131688C4224D0076821680160F5
:1046200060680837411B10290FD96019420708D06C
:10463000502080F31188BFF34F8FBFF36F8FFEE7D9
:1046400010E041606560FFF769FF61687068401ABB
:104650007060B268904200D2B060F0680143002000
:10466000C4E9000100F0E0FB780707D0502080F398
:104670001188BFF34F8FBFF36F8FFEE73846BDE859
:10468000F08100005800002010B5031F4FF0807427
:104690001C601B1F21F001011960191F044B0B60E6
:1046A00014390A60091F6FF0020244380A6010BD15
:1046B0008945000801B50A23012269460148FDF732
:1046C00076FE08BD1404002010B588B04FF40074C5
:1046D000029400240A9804940594082406940C0A71
:1046E0008DF800408DF80110110A8DF80210190A9A
:1046F0008DF804108DF80530010A8DF806108DF83C
:1047000003208DF8070001236A4602A90248FCF73E
:10471000C9FA08B010BD00000001002070B50320E8
:10472000FFF7C8FFFC20FFF7C5FF0C4D002400BFBA
:1047300015F81400FFF7BEFF35F81400C0F307208A
:10474000FFF7B8FF641CE4B2082CF1D3FC20FFF79C
:10475000B1FFBDE870400320FFF7ACBFCC440020A0
:10476000D0E9013201699A60D0E901235A604A68B0
:10477000824201D182684A60002202610868401EBC
:104780000860086870470000034B036003F15400A1
:1047900008608020106070472801002000F10801A7
:1047A0004FF0FF32C0E90112C160016100210160D8
:1047B000704700210161704730B50B685A1C02D068
:1047C00000F1080202E0026904E02246546825680C
:1047D0009D42FAD953684B6099608A6051600861C4
:1047E0000168491C016030BD42684A6093688B6073
:1047F00093685960916008610168491C01607047C5
:10480000502080F31188BFF34F8FBFF36F8F0A4999
:104810004868401C486001280CD10848006810F026
:10482000FF0F07D0502080F31188BFF34F8FBFF3E5
:104830006F8FFEE7704700007000002004ED00E07D
:104840000849486828B1401E486001D180F31188AA
:104850007047502080F31188BFF34F8FBFF36F8FE5
:10486000FEE700007000002070B5002827D0144D2E
:10487000A0F108046168E868014207D1502080F384
:104880001188BFF34F8FBFF36F8FFEE722683AB1F5
:10489000502080F31188BFF34F8FBFF36F8FFEE777
:1048A0008143616000F030F96068696808446860BD
:1048B0002046FFF733FEBDE8704000F0B5BA70BD8A
:1048C000580000204FF0E02000210161816105497E
:1048D0004FF47A720968B1FBF2F1491E4161072178
:1048E000016170471800002010B5020014D00F4875
:1048F000806B38B1502080F31188BFF34F8FBFF326
:104900006F8FFEE700F000F900211046FFF7AEFCC4
:1049100000F08AFA002807D105494FF0805008605E
:10492000BFF34F8FBFF36F8F10BD00001C0000203E
:1049300004ED00E070B50546FFF762FF254C05B9B0
:104940002568281DFFF70CFF58B9E86A224A00EBDA
:10495000800152F8211021B901218140A0698843CA
:10496000A061A86A18B105F11800FFF7F9FEE06A26
:10497000401CE0622068854208D11748291DC830D4
:10498000FFF732FFE068401CE06007E02069401E4E
:1049900020612846FFF70AFDFFF7E6FDFFF750FF0D
:1049A000E069002814D02068854211D1A06B38B18D
:1049B000502080F31188BFF34F8FBFF36F8FFEE756
:1049C00006494FF080500860BFF34F8FBFF36F8FE1
:1049D00070BD00001C000020B404002004ED00E0C5
:1049E00010B586B00024039405AA04A903A8049472
:1049F000FFF7CAFEDDE903010094CDE901100023B1
:104A00000EA11048059A00F072F90F49002848637A
:104A100011D0502080F31188BFF34F8FBFF36F8FF9
:104A20004FF0FF3008630120C8614C6106B0BDE85B
:104A3000104000F09FB806B010BD000049444C453E
:104A4000000000002D4400081C00002070B5044642
:104A5000FFF7D6FE294D04B92C68201DFFF780FE14
:104A600058B9E06A264A00EB800152F8211021B9BA
:104A700001218140A8698843A861A06A18B104F1A6
:104A80001800FFF76DFE1E48211DDC30FFF7ACFE5D
:104A900094F850000026012801D184F85060FFF7F7
:104AA000CFFEE86928B1FFF7ABFEFFF75DFDFFF72A
:104AB000C7FE2868844213D1E86990B1A86B38B169
:104AC000502080F31188BFF34F8FBFF36F8FFEE745
:104AD0000C494FF080500860BFF34F8FBFF36F8FCA
:104AE00070BD0748DC3000682969884201D12E601A
:104AF00070BDBDE8704000F00FB800001C00002041
:104B0000B404002004ED00E00248816B491C81637D
:104B1000704700001C0000201448816B11B1012176
:104B200041627047002141628169B1FA81F1C1F1AE
:104B30001F0101EB81020E4951F822306BB101EBEC
:104B4000820101F108034A6852684A609A4201D121
:104B500052684A60D16801607047502080F3118824
:104B6000BFF34F8FBFF36F8FFEE700001C000020E4
:104B7000B40400201CB537480168374A914207D178
:104B8000502080F31188BFF34F8FBFF36F8FFEE784
:104B900000683149491E884207D1502080F31188AE
:104BA000BFF34F8FBFF36F8FFEE72C49087801905A
:104BB000FF20087008788DF800009DF800009DF82F
:104BC000002000F0F000904207D0502080F31188C0
:104BD000BFF34F8FBFF36F8FFEE79DF80000204BB0
:104BE00000F0500018700720986005E09DF8002044
:104BF00052008DF80020401E9DF800201206F5D4CA
:104C00009860032807D0502080F31188BFF34F8F9E
:104C1000BFF36F8FFEE74FF4407098600198087003
:104C20000C482030016841F470010160016841F0D6
:104C300070410160FFF746FE00205860FBF7E4FA80
:104C40000848016841F040410160FBF7C9FA0020C3
:104C50001CBD000000ED00E071C20F4100E400E067
:104C60007000002034EF00E010B5502080F3118870
:104C7000BFF34F8FBFF36F8F00F072F818B1044984
:104C80004FF080500860002080F3118810BD0000B4
:104C900004ED00E02DE9FF5F8346DDE90E879946CC
:104CA00016468A469000FFF783FC05001CD054206E
:104CB000FFF77EFC040014D00020256384F8510027
:104CC000CDE90240CDE900874B4632465146584671
:104CD000FFF7DCFB2046FFF701FB012004B0BDE835
:104CE000F09F2846FFF7C0FD4FF0FF30F6E7F0B524
:104CF00085B0DDE90B640A9DA6B1DCB154270097AD
:104D00002663022684F85160002604AFCDE90246EE
:104D1000CDE90057FFF7BAFB2046FFF7DFFA04980A
:104D200005B0F0BD502080F31188BFF34F8FBFF363
:104D30006F8FFEE7502080F31188BFF34F8FBFF3D2
:104D40006F8FFEE70548C16919B1806B18B100206B
:104D50007047012070470220704700001C000020AF
:104D60002DE9F0412E4C0027A06B40B1206A401C79
:104D70002062606A00B101273846BDE8F0816669AB
:104D8000761C666113D16068006838B1502080F3EA
:104D90001188BFF34F8FBFF36F8FFEE76068A16884
:104DA0006160A060A06A401CA062FFF7DDFB206B81
:104DB000DFF87080864209D36068006880B160685F
:104DC000C068C568686886420DD220632068C06AE2
:104DD00000EB800158F821000128CAD90127C8E753
:104DE0004FF0FF30F1E7281DFFF7BAFCA86A18B1B1
:104DF00005F11800FFF7B4FCE86A0121A2698140BF
:104E00001143A16100EB800108EB8100291DFFF730
:104E1000EBFCE86A2168C96A8842CDD30127CBE759
:104E20001C000020B40400202DE9F0472C4D002484
:104E30002746A86B38B1FFF7E3FCA86B401EA863B8
:104E4000A86B40B146E0502080F31188BFF34F8F2C
:104E5000BFF36F8FFEE72969224E0120D1B3A6F17F
:104E6000B40980463068E8B1F068C46804F11800FD
:104E7000FFF776FC201DFFF773FCE06AAA6908FAC9
:104E800000F11143A96100EB800109EB8100211DB4
:104E9000FFF7AAFCE06A2968C96A8842E2D3C5F82C
:104EA0002480DFE70CB1FFF75FFB2C6A44B1464674
:104EB000FFF756FF00B16E62641EF9D10020286230
:104EC000686A38B10849012738070860BFF34F8F77
:104ED000BFF36F8FFFF7B4FC3846BDE8F0870000E2
:104EE0001C0000206805002004ED00E000600008C0
:104EF00029280008000000000000000080000000D9
:104F00000000000000000000E05F00086D240008C1
:104F1000020000000000000080000000000000000F
:104F200000000000F05F00086D0A000801000000AA
:104F300000000000800000000000000000000000F1
:104F40000006101600061016000000000000000009
:104F5000010203040607080900000000010203041F
:104F6000ABAA2A3EABAAAA3E000000000000000047
:104F700000000000000000003F40000000000000B2
:104F800000003000400030004000000009000BC06D
:104F90003D000BC03D00090018C024407FE02240C6
:104FA00031800000180024C01B000D8032400180B9
:104FB00003801C4027401C80074000401000600018
:104FC00000000000000000000000000000001F8042
:104FD000204040200000402020401F8000000000B2
:104FE000090006001F8006000900000004000400FC
:104FF0003F8004000400000000100060000000007A
:10500000000000000400040004000400040000008C
:10501000000000400000000000000000002001C06F
:1050200006003800400000001F8020402040204043
:105030001F800000000010403FC000400000000042
:1050400018C0214022402440184000001080204019
:10505000244024401B80000002000D0011003FC0CE
:10506000014000003C802440244024402380000074
:105070001F80244024403440038000003000200082
:1050800027C03800200000001B802440244024401A
:105090001B8000001C0022C0224022401F80000014
:1050A00000000000084000000000000000000000B8
:1050B0000460000000000000000004000A0011006D
:1050C0002080404009000900090009000900000093
:1050D00000004040208011000A0004001800200059
:1050E00023402400180000001F8020402740294052
:1050F0001F400000004007C039000F0001C0004001
:1051000020403FC0244024401B8000001F802040DE
:10511000204020403080000020403FC02040204000
:105120001F80000020403FC024402E4030C00000BF
:1051300020403FC024402E00300000000F001080AF
:10514000204022403380020020403FC00400040081
:105150003FC02040204020403FC020402040000071
:105160000060202020203FC02000200020403FC0C1
:1051700024400B0030C0204020403FC02040004071
:10518000004000C03FC03C0003C03C003FC00000E6
:1051900020403FC00C4023003FC020001F80204023
:1051A000204020401F80000020403FC024402400B9
:1051B000180000001F802140214020E01FA00000B7
:1051C00020403FC02440260019C0004018C02440A1
:1051D0002440224031800000300020403FC0204069
:1051E0003000000020003F80004000403F80200051
:1051F00020003E0001C0070038002000380007C032
:105200003C0007C038000000204039C0060039C00B
:10521000204000002000384007C038402000000037
:10522000304021C02640384020C00000000000006F
:105230007FE0402040200000000070000C00038050
:10524000004000000000402040207FE000000000FF
:1052500000002000400020000000000000100010AE
:1052600000100010001000100000000040000000BE
:1052700000000000000002800540054003C000401F
:1052800020003FC004400440038000000000038071
:105290000440044006400000000003800440244015
:1052A0003FC000400000038005400540034000006F
:1052B000000004401FC0244024402000000002E001
:1052C000055005500650042020403FC00440040013
:1052D00003C000400000044027C000400000000060
:1052E00000100010041027E00000000020403FC024
:1052F0000140070004C00440204020403FC000405F
:105300000040000007C0040007C0040003C0000004
:10531000044007C00440040003C0004000000380B4
:105320000440044003800000041007F004500440CF
:1053300003800000000003800440045007F00010C8
:10534000044007C0024004000400000000000640C2
:105350000540054004C00000000004001F80044018
:1053600000400000040007800040044007C00040E7
:105370000400070004C0018006000400060001C00C
:10538000070001C006000000044006C0010006C07E
:10539000044000000410071004E00180060004002F
:1053A0000000044005C0064004400000000000006A
:1053B00004007BE040200000000000000000FFF03F
:1053C00000000000000040207BE00400000000001E
:1053D000400080004000200020004000000000004D
:1053E00000000000000000000000000000000000BD
:1053F00000000000000000000000000000000000AD
:10540000000000000000000000000000000000009C
:10541000000000000000000000000000000000008C
:1054200000000006000000000000001E0000000058
:10543000000000DE00000000000000D800000000B6
:10544000000000D800000000000000D800000000AC
:10545000000000DE00000000000000FE0000000070
:10546000000000F6000000000000007200000000D4
:1054700000000000000000000000007C00000000B0
:10548000000000FE00000000000000C60000000058
:10549000000000C600000000000000C60000000080
:1054A000000000FE000000000000007C0000000082
:1054B00000000000000000000000001E00000000CE
:1054C000000000DE00000000000000D60000000028
:1054D000000000D600000000000000D60000000020
:1054E000000000D600000000000000DE40000000C8
:1054F000000000FE600000000010006C7000000062
:10550000003000007800000000F0007C7C0000000B
:1055100007F000FE7E0000003FF000C67F000001A3
:10552000FFF000C67F80000FFFF000C67FC0007F45
:10553000FFF000FE7FE003FFFFF0007C7FF03FFF05
:10554000FFF000027FF83FFFFFF000067FFC3FFF07
:10555000FFF0001E7FFE3FFFFFF000BC7FFF3FFF1C
:10556000FFF000E07FFFBFFFFF8000F87FFFFFFF3D
:10557000FC00003E7FFFFFFFE000000E7FFFFFFF0B
:10558000000000B87FFFFFF8000000E07FFFFFF0A1
:10559000000000FE7FFFFFF00000001E7FFFFFF015
:1055A000000000027FFFFFF0000000007FEFFFF02F
:1055B000020000067FE7FFF00200000E7FE3FFF02D
:1055C0000200001C7FE1FFF8030000BA7FE0FFFC4F
:1055D000030000F67FE07FFE038000E67FE03FFFF0
:1055E000038000F67FE03FFF83C0003E7FE03FFF87
:1055F000C3C0000E7FE03FFFE3E000027FE03FFF1B
:10560000F3E000007FE03FFFFBF000027FE03FFFA0
:10561000FFF000667FE03FFFFFF800F67FE03FFF0E
:10562000FFF800D67FE03FFFFFFC00D67FF07FFF52
:10563000FFFC00D67FF8FFF7FFFE00D67FFFFFF3E9
:10564000FFFE00DE3FFFFFE1FFFF008C3FFFFFE0BA
:10565000FFCF00401FFFFFC07FC780C01FFFFFC0FC
:105660003FC380C00FFFFF801FC1C0FE07FFFF00C8
:105670000FC0C0FE03FFFE0007C060C001FFFC00BA
:1056800003C020C0007FF00001C00086000F800032
:1056900000C0001600000000004000D6000000001E
:1056A000000000D600000000000000D6000000004E
:1056B000000000D600000000000000D6000000003E
:1056C000000000D000000000000000C0000000004A
:1056D00000000006000000000000001E00000000A6
:1056E000000000DE00000000000000D80000000004
:1056F000000000D800000000000000D800000000FA
:10570000000000DE00000000000000DE00000000DD
:10571000000000F600000000000000720000000021
:105720000000000000000000000000620000000017
:10573000000000F600000000000000F6000000007D
:10574000000000D600000000000000D600000000AD
:10575000000000D600000000000000DE0000000095
:105760000000008C000000000000000000000000AD
:105770000000000000000000000000000000000029
:105780000000000000000000000000000000000019
:105790000000000000000000000000000000000009
:1057A00000000000000000000000000000000000F9
:1057B00000000000000000000000000000000000E9
:1057C00000000000000000000000000000000000D9
:1057D00000000000000000000000000000000000C9
:1057E000920E493CB10AC93C2BC3163D2EFB483DE5
:1057F000752B7B3D04A9963D80B6AF3D36BDC83DB7
:105800002FBCE13D73B2FA3D87CF093E8340163E7F
:10581000B5AB223EA2102F3ECF6E3B3EC2C5473EE7
:105820000115543E135C603E7F9A6C3ECCCF783EAF
:10583000C07D823E938E883E229A8E3E32A0943E58
:1058400086A09A3EE59AA03E128FA63ED47CAC3E3E
:10585000EF63B23E2A44B83E491DBE3E15EFC33E3B
:1058600053B9C93ECA7BCF3E4136D53E80E8DA3EC9
:105870004F92E03E7533E63EBBCBEB3EEA5AF13E3B
:10588000CBE0F63E275DFC3EE4E7003F3D9C033F56
:10589000824B063F9BF5083F6B9A0B3FDA390E3F70
:1058A000CDD3103F2A68133FD9F6153FC07F183F6C
:1058B000C6021B3FD17F1D3FCBF61F3F9967223F9A
:1058C00025D2243F5636273F1594293F4AEB2B3FDC
:1058D000DE3B2E3FBB85303FC9C8323FF304353F26
:1058E000233A373F4268393F3B8F3B3FF9AE3D3F5C
:1058F00067C73F3F70D8413F01E2433F03E4453F64
:1059000065DE473F12D1493FF8BB4B3F029F4D3FF9
:10591000207A4F3F3D4D513F4918533F31DB543FB3
:10592000E595563F5348583F6AF2593F1A945B3FFA
:10593000532D5D3F05BE5E3F2146603F97C5613FE9
:105940005A3C633F59AA643F880F663FD86B673F54
:105950003CBF683FA7096A3F0C4B6B3F5E836C3FBF
:1059600093B26D3F9ED86E3F73F56F3F0809713F4C
:105970005213723F4714733FDD0B743F0BFA743FB1
:10598000C6DE753F07BA763FC58B773FF853783F41
:105990009812793F9DC7793F02737A3FBE147B3FCF
:1059A000CDAC7B3F283B7C3FC9BF7C3FAC3A7D3FC1
:1059B000CCAB7D3F23137E3FB0707E3F6DC47E3FF6
:1059C000580E7F3F6D4E7F3FAB847F3F0FB17F3FCF
:1059D00097D37F3F43EC7F3F11FB7F3F0000803F29
:1059E00011FB7F3F43EC7F3F97D37F3F0FB17F3F5A
:1059F000AB847F3F6D4E7F3F580E7F3F6DC47E3F2F
:105A0000B0707E3F23137E3FCCAB7D3FAC3A7D3FF1
:105A1000C9BF7C3F283B7C3FCDAC7B3FBE147B3F66
:105A200002737A3F9DC7793F9812793FF853783FC8
:105A3000C58B773F07BA763FC6DE753F0BFA743FDA
:105A4000DD0B743F4714733F5213723F0809713FD7
:105A500073F56F3F9ED86E3F93B26D3F5E836C3F90
:105A60000C4B6B3FA7096A3F3CBF683FD86B673F51
:105A7000880F663F59AA643F5A3C633F97C5613F10
:105A80002146603F05BE5E3F532D5D3F1A945B3F4C
:105A90006AF2593F5348583FE595563F31DB543F32
:105AA0004918533F3D4D513F207A4F3F029F4D3F94
:105AB000F8BB4B3F12D1493F65DE473F03E4453F0A
:105AC00001E2433F70D8413F67C73F3FF9AE3D3FDA
:105AD0003B8F3B3F4268393F233A373FF304353F22
