:020000040800F2
:1000000098510020810200088B360008F131000869
:10001000893600081F0B000805400008000000009A
:10002000000000000000000000000000C101000806
:10003000A50E0008000000001D020008A5380008F9
:100040009B0200089B0200089B0200089B0200081C
:100050009B0200089B0200089B0200089B0200080C
:100060009B0200089B0200089B0200089B020008FC
:100070009B0200089B0200089B0200089B020008EC
:100080009B0200089B0200089B020008850B0008E9
:10009000790B00089B0200089B0200089B020008E5
:1000A0009B0200089B0200089B0200089B020008BC
:1000B0009B0200089B020008953900089B0200087B
:1000C0009B0200089B0200089B0200089B0200089C
:1000D0009B020008F93F00089B0200089B020008F1
:1000E0009B0200089B0200089B0200089B0200087C
:1000F0009B0200089B0200089B0200089B0200086C
:100100009B0200089B0200089B0200089B0200085B
:100110009B0200089B0200089B0200089B0200084B
:100120009B0200089B020008F50D00089B020008D6
:100130009B0200089B0200089B0200089B0200082B
:100140009B0200089B0200089B0200089B0200081B
:100150009B0200089B0200089B0200089B0200080B
:100160009B0200089B0200089B0200089B020008FB
:100170009B0200089B0200089B0200080000000090
:100180009B0200089B0200089B0200089B020008DB
:100190009B0200089B0200089B0200089B020008CB
:1001A00000000000000000009B020008DFF80CD0F7
:1001B00000F066FC0048004779650008985100206F
:1001C0002C4B19680868B0E8F04F80F30988BFF33A
:1001D0006F8F4FF0000080F311887047000000001F
:1001E00008480068006880F308884FF0000080F33A
:1001F000148862B661B6BFF34F8FBFF36F8F00DF15
:1002000000BF00BF08ED00E0DFF80C00016841F41A
:1002100070010160704700BF88ED00E0EFF30980D6
:10022000BFF36F8F134B1A681EF0100F08BF20ED3D
:10023000108A20E9F04F106009B44FF0500080F3AD
:100240001188BFF34F8FBFF36F8F07F0C7FB4FF0DD
:10025000000080F3118809BC19680868B0E8F04F05
:100260001EF0100F08BFB0EC108A80F30988BFF3AE
:100270006F8F704734000020EFF305807047000057
:100280000648804706480047FEE7FEE7FEE7FEE730
:10029000FEE7FEE7FEE7FEE7FEE7FEE7413900087E
:1002A000AD0100089FED1A1AF5EE000A40EE010AB2
:1002B000BDEEE00AF5EEC00A10EE100AF1EE10FAFB
:1002C00038BF401E00EE100A1349F7EE001AB8EED0
:1002D000C00A30EEC00ADFED0F0A20EE200AFCEE65
:1002E000C00A10EE900AC0F3080000EE900A01EB7D
:1002F0008000F8EE600A90ED011A70EE600A90ED51
:10030000000A71EEE01A21EE800A00EE810A7047C1
:1003100083F9223E0000004464870008B5EEC00A5D
:10032000F1EE10FA07D2DFED1E0AB4EEE00AF1EEAC
:1003300010FAA8BF7047DFED1B0AB5EEC00A60EEE9
:10034000200ABDEEE01A11EE100AF1EE10FA38BFE5
:10035000401E00EE100A1549F7EE001AB8EEC00A6A
:1003600030EEC00ADFED100A60EE200ABCEEE00AB3
:1003700010EE100AC0F3080000EE100A01EB800036
:10038000B8EE400A90ED011A70EEC00A90ED000A36
:1003900071EEE01A21EE800A00EE810A704700003B
:1003A000CD024CB483F9223E00000044648700086B
:1003B0002DE9F05F0546002092469B46884606469A
:1003C000814640241BE0284641464746224600F02D
:1003D00034F953465A46C01A914110D31146184673
:1003E000224600F01BF92D1A67EB01084F46224602
:1003F0000120002100F012F917EB00094E41201EE8
:10040000A4F10104DFDC484631462A464346BDE8F4
:10041000F09F40EA01039B0703D009E008C9121FBF
:1004200008C0042AFAD203E011F8013B00F8013BAE
:10043000521EF9D27047D2B201E000F8012B491EDA
:10044000FBD270470022F6E710B513460A46044671
:100450001946FFF7F0FF204610BD2DE9FE4F81EA57
:10046000030404F0004421F0004100944FF0000B1D
:1004700023F0004350EA01045ED052EA03045BD04B
:10048000C3F30A54C1F30A552C44A4F2F334019483
:10049000A0FB0254C1F3130141F48011C3F3130311
:1004A00043F4801301FB024400FB034E840A970AC5
:1004B00044EA815447EA8357A4FB076802958D0AF2
:1004C00005FB07854FEA932C04FB0C542705029D7E
:1004D0004FEA065847EA1637B5EB08056EEB070CEE
:1004E000870E920E47EA811742EA8312A7FB0201A8
:1004F000B6EB0B0164EB00042B0D43EA0C335E18E2
:1005000044EB1C50DA465146E7FB0201C5F31304E5
:100510004FEA0B3343EA14534FEA0432019C43EA97
:100520000603A4F10C040294009CCDE900B400F091
:10053000DAF803B0BDE8F08F00200146F9E70EB508
:10054000C10F80EAE0700844CA07002140F233433B
:100550008DE80E000A460B4600F0C5F803B000BD5A
:1005600000F0004230F000400AD0C10D01F560718A
:10057000C0F3160042EA0151C20840071143704718
:10058000002001467047000030B5041E71F10004E0
:1005900004DB4FF00044404264EB0101141E73F190
:1005A000000405DB1C464FF00043524263EB04039A
:1005B000994208BF904230BD01F0004330B421F0B1
:1005C000004150EA010206D00A0DA2F56072C1F3A3
:1005D0001301002A02DC30BC00207047440F44EABB
:1005E000C104C100E01830BC00EBC25000F035B8C7
:1005F00030B50B46014600202022012409E021FAF3
:1006000002F59D4205D303FA02F5491B04FA02F5EF
:100610002844151EA2F10102F1DC30BD202A04DBC2
:10062000203A00FA02F1002070479140C2F1200305
:1006300020FA03F3194390407047202A04DB203A44
:1006400021FA02F00021704721FA02F3D040C2F1F2
:10065000200291400843194670470029A8BF7047FF
:10066000401C490008BF20F00100704710B4B0FAE8
:1006700080FC00FA0CF050EA010404BF10BC704783
:1006800049B1CCF1200421FA04F411FA0CF118BF9D
:10069000012121430843A3EB0C01CB1D4FEA00616C
:1006A0004FEA102042BF002010BC704700EBC3503F
:1006B00010440029A4BF10BC7047401C490008BF6B
:1006C00020F0010010BC704710B5141E73F1000437
:1006D00008DA401C41F1000192185B411A4301D134
:1006E00020F0010010BD2DE9F04D92469B4611B15E
:1006F000B1FA81F202E0B0FA80F220329046FFF7C0
:100700008DFF04460F4640EA0A0041EA0B015346BA
:100710005A46084313D0114653EA010019D0C8F1D4
:1007200040025046FFF789FF05460E46504659469F
:100730004246FFF773FF084305D0012004E020463E
:100740003946BDE8F08D0020054346EAE0762C43AB
:1007500037430A986305E40AA0EB08000022FD0A6B
:1007600044EA47540A3002D500200146E9E7010572
:1007700010196941DDE9084500196941BDE8F04DEE
:10078000A2E72DE9FE4F804681EA0300C00F0C4628
:10079000009021F0004123F00045B8EB0200A94190
:1007A00005D24046214690461C460B46024623F0A1
:1007B0000040104347D0270DC7F30A00C3F30A5186
:1007C0000290401A019040286BDAC3F3130040F402
:1007D000801B0098924620B10023D2EB030A63EB02
:1007E0000B0B01985946C0F140025046FFF716FF27
:1007F00006460D4650465946019A00F053F910EB53
:1008000008006141002487EA115284EAE7731A4321
:1008100040D0009A62B3019A012A4FEA075215DCD0
:10082000001B61EB02014FF0004202EA0752CDE9E2
:100830000042001C41F5801132462B46FFF753FF62
:1008400003B0BDE8F08F40462146F9E7001B61EB9D
:100850000201001C41F5801300185B412018A2F52D
:10086000001747EB030140EAD570B6196D4111E05E
:100870006D084FEA360645EAC0754FEA0752001B7D
:1008800061EB0201001C41F5801149084FEA30007C
:100890000019514132462B4603B0BDE8F04FFFF737
:1008A00013BF0098012240000023D0EB020263EB4B
:1008B000E073009821464FEAE074B8EB000061EB6A
:1008C0000401E9E783F000435BE781F0004158E76A
:1008D0002DE9F04D81EA030404F0004B21F00045BE
:1008E00014464FF0000A23F0004150EA050220D0E0
:1008F00054EA01021DD0C5F30A570246C5F313039B
:10090000C1F31300C1F30A5640F4801543F4801379
:10091000A7EB0608101BD64608F2FD3873EB05005E
:1009200002D308F1010801E092185B41B8F1000F11
:1009300003DA00200146BDE8F08D00204FF480115D
:10094000064684460EE0171B73EB050705D3121B02
:1009500063EB050306434CEA010C49084FEA3000FB
:1009600092185B4150EA0107EDD152EA030012D020
:1009700082EA040083EA0501084305D0101BAB415D
:1009800006D20122002306E000224FF0004302E0DD
:100990006FF0010253101AEB06004CEB085110EBFC
:1009A0000A0041EB0B01BDE8F04DFFF78DBE2DE9CC
:1009B000F04D00231A461B1A8A4103DB0020014632
:1009C000BDE8F08DC1F30A52C1F3130141F4801563
:1009D0004FF0000BD10702D100186D41521E0027C5
:1009E000044640F2FF11384601EB620A3E4680465B
:1009F000024600204FF48011FFF71FFEC21971411B
:100A0000BB1846EB0100B4EB030C75EB000C04D3F0
:100A1000E41A65EB000517460E46241908F101009B
:100A20006D4180463428E3DDF91946EB0600091BC9
:100A3000A84103D24FF0FF32134601E000221346D3
:100A40001BEB070046EB0A51BDE8F04DFFF73CBE3B
:100A5000C1F30A52C1F3130140F2FF3341F4801194
:100A60009A4202DA00200146704740F233439A422C
:100A7000A2F2334202DC5242FFF7DFBDFFF7CEBDE8
:100A8000064C074D06E0E06840F0010394E80700DB
:100A900098471034AC42F6D3FFF78CFBD090000897
:100AA000F0900008202A06DBCB17203A41FA02F02A
:100AB00043EAE07306E041FA02F3D040C2F12002BB
:100AC000914008431946704770B58C1810F8015BC7
:100AD00015F0070301D110F8013B2A1106D110F8D7
:100AE000012B03E010F8016B01F8016B5B1EF9D1DB
:100AF0002B0705D40023521E0DD401F8013BFAE761
:100B000010F8013BCB1A921C03E013F8015B01F8CB
:100B1000015B521EF9D5A142D8D3002070BDFEE77B
:100B2000F0EE400AC0ED020A91ED030AD1ED041A7D
:100B300090ED011A20EE200A90ED002AD0ED032A54
:100B400001EE810AD1ED051A01EE820A91ED012A2A
:100B5000D0ED041A02EE610A91ED022A02EE620A59
:100B600080ED050A80ED001AC0ED010AC0ED031A00
:100B700080ED040A70470000014800F062BD0000EB
:100B800020020020014800F05CBD0000200200208F
:100B900010B50A88C2F30A02A2F5806202804A7880
:100BA0008B78D20842EA4312C2F30A02A2F58062AD
:100BB00042808A78CB78920942EA83020B7942EA32
:100BC0008322C2F30A02A2F5806282800A794B79FD
:100BD000520842EAC312C2F30A02A2F58062C2803E
:100BE0004A79920902724A79C2F301124272CA88A2
:100BF00042810A8982814A89C2810A7B02744A7BC6
:100C00004274C989418201F0B9F9054908604A680E
:100C1000821AB2F5FA7F01D9486010BD886010BD14
:100C2000AC01002070B504002DED048B6BD00420C6
:100C3000207404F0A7FF206004F090FFE06004F04F
:100C4000A5FF606004F09AFF9FED308ADFED308AE7
:100C5000DFED309A9FED309A0025A060284604F021
:100C600073FF05EB850104EB8101B0EE690A486171
:100C700005EB850000EBC50004EB8000B0EE482AD0
:100C8000F0EE681AB0EE401AF0EE490A643006F051
:100C9000A9F96D1CEDB2042DE0D3F1EE081ADFEDD9
:100CA000200A9FED1E2A9FED1F0AB0EE601A04F580
:100CB0009A7006F097F99FED1D8A1B4904F5B470F0
:100CC000B0EE480A04F015FF1749B0EE480A091DB6
:100CD00004F5BC7004F00DFFB0EE080A84ED6B0A59
:100CE000B8EE080A84ED6C0A9FED110A204684EDE7
:100CF0006D0A9FED100A84ED6E0ABDEC048BBDE811
:100D0000704004F099BCBDEC048B70BD0000FA4447
:100D100000007A460000964400004842CDCC4C3E8C
:100D20000000000000002042D47E00086F12033B48
:100D30009A9939409A9939C008B526A003F064F908
:100D400040F2651006F0A8F82748FFF76BFF264C25
:100D5000264E0125244804F0ADFB2348417C027C4B
:100D6000914214D011B142B1012903D0012A09D016
:100D700002290BD0022A05D008E09FED1D0A80ED64
:100D8000690A03E090ED6F0A80ED6A0A4274164822
:100D900004F052FC144804F0BDFD134804F0B4FB09
:100DA00000950023327A0121184606F025F805F057
:100DB000B7FFB4F960000090B4F94C30B4F93820B2
:100DC000B4F92410022006F063FB022006F0AEFC0A
:100DD000C0E70000496E20436861737369735F5414
:100DE00061736B210D0A0000A8430020B048002069
:100DF00000000000014800F065BE00005806002019
:100E000001681823CAB2103AB2FBF3F2054B6FF334
:100E10000901032A9B5CC36500D9091D8165084649
:100E200070470000B47E000810B5014600208B69B1
:100E30008A6A4FF0C07453B1B3F5005F15D072B138
:100E4000012A0CD0022A0AD0032A09D104E01AB1DF
:100E5000012A06D0022A03D1C96AC90100D501209E
:100E600010BDC96AA142FAD010BD002AF7D0012AEC
:100E7000F2D0022AF3D0032AF3D010BD30B50468B3
:100E8000256825F480252560046863608368402B0D
:100E9000036803D099600068C26030BD9A60006842
:100EA000C16030BD7047704710B504001CD002F01F
:100EB000C9F9606890ED020A84ED630AD4F8D8009D
:100EC000B4F87811808805F087FB84ED610A6068CA
:100ED00090ED000A84ED300AE068B4F8AC10808828
:100EE00005F07AFB84ED2E0A10BD00002DE9F047D5
:100EF00004002DED048B7DD004F03CFEE06004F096
:100F000035FEC4F8D80004F029FE606004F02AFE23
:100F1000A06004F037FE9FED5A8AF2EE041AB0EE9C
:100F2000482A9FED581A206004F11000F0EE480A9C
:100F3000B2EE040A824606F055F804F14400B0EE21
:100F4000482AF2EE041AB0EE481AF0EE480AB2EE61
:100F5000000A814606F046F8DFED4B8AB0EE682ABB
:100F60009FED4A9AB0EE481AF0EE480AF0EE491AA0
:100F70009FED470A04F17800804606F033F804F14B
:100F8000DC00B0EE482AF2EE041AB0EE481AF0EE99
:100F9000480AB2EE0E0A054606F024F804F58870F9
:100FA000B0EE482AF2EE041AB0EE481AF0EE480A03
:100FB000B3EE040A064606F015F804F5A270B0EE8A
:100FC000682AF0EE491AB0EE481AF3EE040A9FEDD3
:100FD000310A074606F006F8504605F0EDFF484690
:100FE00005F0EAFF404605F0E7FF284605F0E4FF7C
:100FF000304600E03FE005F0DFFF384605F0DCFF5B
:1010000041F29E209FED248ADFED248AA4F8AC00F3
:101010004FF48C60A4F87801B0EE481AF0EE680A3C
:101020009FED1F0A05F084FA84ED2C0AB0EE481AF1
:10103000F0EE680A9FED1B0A05F07AFA84ED2D0A9E
:10104000B0EE481AF0EE680A9FED170A05F070FA44
:1010500084ED5F0AB0EE481AF0EE680A9FED130ABD
:1010600005F066FA84ED600A2046BDEC048BBDE80D
:10107000F047FFF719BFBDEC048BBDE8F087000017
:10108000000000009A99993E00409C450060EA46A5
:1010900000007A4400C01444DB0F4940DB0F49C014
:1010A00000406F4500C0B245000024420060064584
:1010B00010B5040014D02068C188184889B10021F7
:1010C000816094ED670A84ED660AA06894ED660A73
:1010D000D0ED000A04F5A27005F016FF84ED680A51
:1010E00010BD816829B994ED610A012184ED620A7D
:1010F000816060689FED0A1ADFED0A0A90ED020A2E
:1011000005F016FAF0EE400A94ED620A04F58870D4
:1011100005F0FAFE84ED680AD7E70000A000002081
:10112000DB0F4940DB0F49C010B500283CD00268F6
:101130000021B2F9043003F10A04152C02D3A0F8FF
:10114000A83101E0A0F8A811B2F9063003F10A04B1
:10115000152C02D3A0F8A63101E0A0F8A611127A4E
:10116000022A22D0032A27D0012A1ED090F8A411E7
:10117000E9B1012918D100BFB0F9A611DFED100ABD
:1011800000EE101AB8EEC00A20EE200ADFED0D0ABC
:1011900080ED670AB0F9A81100EE101AB8EEC00A87
:1011A00020EE200A80ED340A10BD80F8A4119FEDD6
:1011B000060A80ED670AF5E7012180F8A411DBE754
:1011C000156AF63B156AF6BB0000000010B5040076
:1011D00014D020688188134889B10021416094EDC2
:1011E000340A84ED330AA06894ED330AD0ED020A84
:1011F00004F1780005F088FE84ED350A10BD4168E1
:1012000029B994ED2E0A012184ED2F0A4160D4ED15
:101210002E0A94ED2F0A04F1440005F075FE84EDCA
:10122000350AE0E7A00000202DED028B82B0C92036
:1012300005F032FE4548FFF759FE454E434D4FF04D
:1012400000099FED448A444CDFF81081F2EE048AD5
:101250003E48FFF729FE3D48FFF766FF3B4F97F8F2
:10126000A40110B1012805D00AE00020FFF720FFFB
:10127000002003E03846FFF71BFF3846FFF7A6FFC4
:1012800095ED680AB1EE400ABDEEC00A10EE100AF4
:1012900001B2718095ED350AB1EE400ABDEEC00A8B
:1012A00010EE100A02B2328095F8A40110B10128A4
:1012B00006D00BE000231A461946CDF8009002E054
:1012C0000023CDF80090002006F0E2F8012005F0A0
:1012D000E3FD95ED610A20EE080ABDEEC00A10EEAE
:1012E000100A208095ED620A20EE080ABDEEC00AC1
:1012F00010EE100A608095ED2E0A20EE080ABDEE71
:10130000C00A10EE100AA08098ED0E0ABDEEC00AC9
:1013100010EE101AE18098ED0D0ABDEEC00A10EE35
:10132000101A218198ED040ABDEEC00A10EE100AD1
:10133000608195ED680A20EE280ABDEEC00A10EE25
:10134000100AA08106F0D6F882E700007045002060
:10135000A00000200000C8421C470020C44C002010
:1013600090F82020012A07D0022A05D0416A41F4D2
:101370008021416201207047006842690A4342614E
:1013800000207047F0B590F820500468A468012D43
:1013900005D0022D03D0416A41F4802153E014F0BE
:1013A000406F01D1E5004BD5C4F30164022C03D991
:1013B000416A41F4000146E00125A5401D608D68A9
:1013C0004FF4C0739DB1CE6835434E6845EAC605FB
:1013D000066803EB0417F5514FF4C275076805EB77
:1013E00004150E697E51097D012905D009E00E889A
:1013F000CD6845EA4655EBE701684E5946F48076DC
:101400004E511179D2F805504FF4C67641EA0525C0
:10141000016806EB04168D511178D2F801204FF4C3
:10142000C47541EA0221026805EB041551510068B8
:1014300003EB0411425842F0010242500020F0BD7B
:10144000416A41F4001141620120F0BD10B590F8ED
:101450002020012A07D0022A05D0416A41F48021C8
:101460004162012010BD3B48D0F8002242F0010249
:10147000C0F80022D0F8002222F47C52C0F80022EA
:10148000D0F800224B6A42EA0322C0F800220A7D0B
:1014900002F01F0301229A40D0F81C329343C0F897
:1014A0001C32CB69B3B9D0F80C329343C0F80C327C
:1014B0008C894B6864F31F434C6900EBC404C4F887
:1014C00040320C890B6864F31F434C6900EBC40481
:1014D000C4F84432CB69012B16D1D0F80C32134337
:1014E000C0F80C320C884B6864F31F434C6900EB66
:1014F000C404C4F840320C89CB6864F31F434C69C0
:1015000000EBC404C4F844328B69002BD0F80432D9
:101510000ED01343C0F804320B69002BD0F81432FC
:1015200008D01343C0F81432096A012904D008E036
:101530009343EFE79343F5E7D0F81C121143C0F84B
:101540001C12D0F8001221F00101C0F80012002096
:1015500010BD000000640040704730B590F8204096
:10156000012C05D0022C03D0416A41F480215DE0BA
:101570000468002955D02469A40754D04FF4D874C6
:10158000056804EB01142D5915F0040595600568F4
:101590002D594ED0ED08556005682C59C4F3400410
:1015A000D4604FF4DA74056804EB01142D5905F08A
:1015B0000F05156105682D59C5F307259561056867
:1015C0002C59240C54614FF4DC72046802EB0112B4
:1015D000A4581C700468A458240A5C700468A458B9
:1015E000240C9C700468A258120EDA704FF4DE725C
:1015F000046802EB0112A4581C710468A458240A60
:101600005C710468A458240C9C710468A258120EE2
:10161000DA71006881B1016941F0200101610020A7
:1016200030BDE468A8E7416A41F40011416201203D
:1016300030BD6D0D1560AFE7C16841F02001C1609C
:10164000EDE72DE9F05F0546006800244669D0F813
:1016500004908768D0F80CB0D0F810A0D0F81880AB
:10166000F10748D0F90714D001218160B80703D5EC
:10167000284600F020FA0CE0780702D54FF4006409
:1016800007E0380702D54FF4805402E0284600F006
:1016900011FAF80516D529684FF480708860B805EE
:1016A00003D5284600F009FA0CE0780502D544F489
:1016B000005407E0380502D544F4804402E028468F
:1016C00000F0FAF9F80316D529684FF480308860E5
:1016D000B80303D5284600F0F2F90CE0780302D5F0
:1016E00044F4004407E0380302D544F4803402E0B7
:1016F000284600F0E3F9300707D55FEACB6004D550
:101700002968102044F40074C86070074FF008077F
:1017100007D55FEA0B7004D52868C760284600F03B
:101720005FF9B00706D52868C068800702D0284650
:1017300000F058F9700607D55FEACA6004D5296839
:10174000102044F480640861B00607D55FEA0A708F
:1017500004D528680761284600F07CF9F00606D514
:1017600028680069800702D0284600F074F9B003A9
:1017700008D55FEAC96005D5296810204860284669
:1017800000F06AF9F00307D55FEA097004D528680C
:101790004760284600F094F9300446D55FEA497066
:1017A00040D5F00504D55FEAC87001D044F00104CB
:1017B000B00504D55FEA887001D544F002047005D5
:1017C00004D55FEA487001D544F00404300529D5FA
:1017D00018F0700F26D008F07000402815D006DCF5
:1017E000102809D020280AD0302816D10AE0502825
:1017F0000ED0602811D10EE044F008040DE044F052
:1018000010040AE044F0200407E044F0400404E03F
:1018100044F0800401E044F480742868816921F078
:1018200070018161296804204860002C05D0686A35
:10183000204368622846FFF78FFEBDE8F09F70B531
:10184000040003D094F8200010B104E0012070BD22
:10185000204600F081F82068016821F00201016053
:1018600000F08CFB0546052604E000F087FB401BDA
:101870000A2811D8206840688007F6D420680168DB
:1018800041F00101016000F079FB05460BE000F03A
:1018900075FB401B0A2806D9606A40F4003060627C
:1018A00084F82060D2E720684068C007EFD0207E2F
:1018B0000128206801683DD021F080010160607E30
:1018C00001282068016838D021F040010160A07E25
:1018D00001282068016833D021F020010160E07EFA
:1018E0000128206801682ED041F010010160207F9E
:1018F00001282068016829D021F008010160607F7B
:1019000001282068016824D021F004010160D4E995
:1019100002010843D4E90412114308436168491ED7
:1019200008432168C86100206062012084F820001B
:10193000002070BD41F08001C0E741F04001C5E7E3
:1019400041F02001CAE721F01001CFE741F0080182
:10195000D4E741F00401D9E710B586B0044614215C
:101960006846FEF76FFD1B49206888422FD11A4850
:101970000021026842F000720260006800F000700E
:10198000059015481038026842F0080202600068AD
:10199000022200F0080005900320CDE90210CDE9F5
:1019A00000020920049069460C4800F0FBF900226F
:1019B0000C21132000F054FB132000F043FB002205
:1019C0000C21142000F04CFB142000F03BFB06B06F
:1019D00010BD00000064004040380240000C02408E
:1019E0007047000000B5194A01688BB0914204D1DC
:1019F00001AB03AA0021FFF7B0FD03981449A0F240
:101A00000120072819D20A88C0B2521C0A8000EBB4
:101A10008002081D00EB820082884280BDF804200D
:101A200052BA8280BDF8062052BAC280BDF80820A2
:101A300052BA02819DF80A2082720888B0F5FA7FB6
:101A400001D1002008800BB000BD00000064004000
:101A50001C010020704770477047000070B50446B5
:101A600090F82000012804D0606A40F400206062F1
:101A700018E0022084F820002068016821F00101AC
:101A8000016000F07BFA05460EE000BF00F076FA38
:101A9000401B0A2808D9606A40F4003060620520C3
:101AA00084F82000012070BD20684068C007EDD197
:101AB000606270BD704770477047704770477047ED
:101AC000704700002DE9F84304464FF00009CDF8B7
:101AD000009063484FF41651A56D0068B0FBF1F714
:101AE0002E6894F85C10082000FA01F131420FD002
:101AF00021680A6852070BD50A6822F004020A60BE
:101B000094F85C108840A860606D40F0010060654A
:101B100094F85C104FF0010808FA01F0304208D048
:101B200021684969090604D5A860606D40F002008B
:101B3000606594F85C1004208840304208D0216829
:101B40000968890704D5A860606D40F004006065ED
:101B500094F85C1010208840304218D02168096841
:101B6000090714D5A86020680168490304D50068F6
:101B7000000308D5A16C07E00168C90503D401681A
:101B800021F008010160216C09B12046884794F8D2
:101B90005C1020208840304231D021680968C90695
:101BA0002DD5A86094F8350005282068016806D076
:101BB000490347D5006800031DD4616C1CE021F087
:101BC000160101602068416921F080014161206CAB
:101BD00008B9A06C20B12068016821F008010160FB
:101BE00094F85C103F208840A86084F8349084F812
:101BF0003580216D1FE0E16B09B120468847606D9B
:101C000000282BD0606DC00714D0052084F8350063
:101C10002068016821F0010101600098401C0090DB
:101C2000B84203D820680068C007F6D184F8349021
:101C300084F83580E16C002910D001B02046BDE861
:101C4000F04308470168C905D5D4016821F01001A7
:101C5000016084F8349084F83580CCE7BDE8F883DF
:101C6000300000202DE9F041044600F087F90646D7
:101C70005CB1002584F83450022084F835002068D7
:101C8000016821F0010101600DE00120BDE8F08153
:101C900000F074F9801B052805D920206065032019
:101CA00084F83500F2E720680068C007F0D12268A8
:101CB000116820480140D4E901031843D4E90336F0
:101CC0003343184363691843A3691843E36918430E
:101CD000236A18430843616A042903D1D4E90B132A
:101CE00019430843106020684069666A20F00701C4
:101CF00030460E43012704280CD1A06A0643E06A4F
:101D000040B12046FFF790F820B14020606584F88C
:101D10003570BAE7206846612046FFF771F894F8FD
:101D20005C203F2191408160656584F8357000201A
:101D3000ACE700003F8010F070B5044690F8340026
:101D4000002501280CD0012084F8340094F8356077
:101D50000020012E06D084F834000225284670BDEC
:101D6000022070BD022684F8356060652046FFF7CA
:101D700085F82068016841F001010160EEE700008C
:101D800070B5044600F0FAF80546601C02D004481D
:101D90000078044400F0F2F8401BA042FAD370BD72
:101DA000240000202DE9F84FDFF890B100224FF019
:101DB00001084FF0030A4FF00F090BF1040E00BFAA
:101DC0000B6808FA02F42340A3426ED14D68022D3D
:101DD00001D0122D0ED1D50800EB850CDCF8205077
:101DE0005607F70E09FA07F6B5430E69BE402E43B3
:101DF000CCF82060066855000F790AFA05FC07F058
:101E0000030726EA0C06AF40374307604E68012EF1
:101E100005D0022E03D0112E01D0122E0ED18768CC
:101E2000CE6827EA0C07AE403E4386604668A6436C
:101E30000C79C4F30014944034434460C4688E6841
:101E400024EA0C04AE402643C6604C68E4006FD51B
:101E50003B4C256845F480452560246822F0030545
:101E600004F480440094374C2E19D6F8084895079E
:101E70002F0F09FA07F5AC43334DA84201D10025D5
:101E80002EE0324DA84201D1012529E0304DA84273
:101E900001D1022524E02F4DA84201D103251FE0E6
:101EA0002D4DA84202D104251AE041E02B4DA84255
:101EB00001D1052514E02A4DA84201D106250FE0E5
:101EC000284DA84201D107250AE0274DA84201D19B
:101ED000082505E0254DA84201D1092500E00A2585
:101EE000BD402543C6F80858DBF800405D464E6803
:101EF0009C43F60300D51C432C60DEF80040754679
:101F00004E689C43B60300D51C432C600B4D08352E
:101F10002C684E689C43F60200D51C432C60074D8C
:101F20000C352C684E689C43B60200D51C432C60CF
:101F3000521C102AFFF444AFBDE8F88F003C01406A
:101F400044380240003001400000024000040240DA
:101F500000080240000C0240001002400014024041
:101F600000180240001C02400020024000240240F1
:101F70000AB1816170470904FBE7000001488068ED
:101F80007047000024000020024881680278114454
:101F900081607047240000200B4810B5016841F4AF
:101FA00000710160016841F480610160016841F4E1
:101FB00080710160032000F073F80F2000F006F834
:101FC00000F024F8002010BD003C024070B50D4D1B
:101FD00004464FF47A712878B1FBF0F00A49096899
:101FE000B1FBF0F000F02BFD48B9102C07D2002215
:101FF0002146501E00F034F800206C6070BD0120B6
:1020000070BD000024000020300000200C4882B089
:10201000016841F480410160006800F48040009054
:102020000748001F016841F08051016000680022EC
:1020300000F0805000900F21901E02B000F010B808
:1020400044380240002809DB00F01F0201219140C2
:102050004009800000F1E020C0F800117047000046
:10206000F0B40E4B1B680C46C3F30223C3F1070503
:10207000042D00D90425191D072901D2002300E0F1
:10208000DB1E012606FA05F1491E214099409E40BB
:10209000761E16403143F0BC01F0DEBF0CED00E0CF
:1020A000064900F0070208684FF6FF03184040EAAF
:1020B0000220034A10430860704700000CED00E066
:1020C0000000FA052DE9F0470E46050065D0DFF85F
:1020D0001481D8F80000F7B200F00F00B04207D228
:1020E00088F80070D8F8000000F00F00B04254D11A
:1020F00028683D4C810712D5400703D5206840F47D
:10210000E05020602878000703D5206840F4604044
:1021100020602068A96820F0F0000843206028783B
:10212000C0072DD0304968680839012812D002282C
:1021300013D0032811D00968890700292DDA2168F6
:1021400021F0030101432160FFF718FF814641F2AE
:10215000883A0EE009688903EFE709688901ECE72E
:10216000FFF70CFFA0EB0901514502D90320BDE8A0
:10217000F0872068696800F00C00B0EB810FEFD1A8
:10218000D8F80010404601F00F01B14207D907709E
:10219000006800F00F00B04201D00120E7E7287886
:1021A000400705D52068E96820F4E0500843206026
:1021B0002878000706D52068296920F4604040EAA5
:1021C000C100206000F036F82168084AC1F303110D
:1021D000515CC840064908600F20FFF7F7FE002059
:1021E000C5E70000003C024008380240BC7E000801
:1021F000300000200448054900680968044AC1F31A
:102200008221515CC84070473000002008380240ED
:10221000CC7E00080448054900680968044AC1F3F7
:102220004231515CC84070473000002008380240FD
:10223000CC7E0008154810B5006810F00C02144858
:1022400013D01449042A0FD0082A0ED10F4C241F92
:102250002268236802F03F025B0207D52068C0F3C2
:102260008810A0FB010106E0084610BD2168C1F3FB
:102270008811A1FB00010023FEF79AF82168C1F341
:102280000141491C4900B0FBF1F010BD0838024083
:102290000024F400001BB7002DE9F84F050076D0AC
:1022A0002878DFF8F8B2BE4CC00749D0DBF8001040
:1022B0005846C1F38101012908D00068C0F38100AC
:1022C00002280AD1201D0068400206D5206880033C
:1022D00036D568680028E2D032E06868B0F5803F03
:1022E00010D0B0F5A02F206810D020F480302060EE
:1022F000206820F4802020606868A0B1FFF73EFECF
:1023000006460CE0206840F48030F4E740F480207A
:102310002060F7E7FFF732FE801B642873D820683F
:102320008003F7D50CE0FFF729FE064605E000BF65
:10233000FFF724FE801B6428F0D820688003F7D4C0
:102340002878DFF8608280074FF000093ED5DBF87F
:102350000010584611F00C0F09D00068C0F381003E
:1023600002280BD18D48001F0068400206D4206867
:10237000800715D5E868012809D111E0E868B8B1EF
:102380000120C8F80000FFF7F9FD064605E002E16C
:10239000FFF7F4FD801B0228C0D820688007F7D51E
:1023A0002068296920F0F80040EAC10020600DE0B3
:1023B000C8F80090FFF7E2FD064604E0FFF7DEFDF7
:1023C000801B02281FD820688007F7D428780007D0
:1023D00022D5724E744869696C3671B10121016071
:1023E000FFF7CCFD074604E0FFF7C8FDC01B02283D
:1023F00009D830688007F7D50EE0C0F80090FFF7E5
:10240000BDFD074605E083E0FFF7B8FDC01B0228CD
:102410007ED830688007F7D42878400768D5DFF881
:102420007CA100270AF1380ADAF80000C0000BD4BA
:10243000DAF8001041F08051CAF80010DAF8000014
:10244000012700F080500090584E3068C00510D42D
:10245000306840F480703060FFF790FD009005E038
:10246000FFF78CFD0099401A022851D83068C0054A
:10247000F6D54A4EA868683601280FD0052830687E
:1024800010D020F001003060306820F0040030608F
:10249000A868B8B1FFF772FD00900FE0306840F017
:1024A0000100F4E740F004003060F7E7FFF766FD55
:1024B0000099411A41F28830814264D8306880071F
:1024C000F4D50EE0FFF75AFD009007E0FFF756FD48
:1024D0000099411A41F28830814254D8306880070F
:1024E000F4D42FB1DAF8001021F08051CAF80010AE
:1024F000A869C0B3DBF80010C1F3810102294AD0FA
:102500000228484607D0C8F86000FFF737FD00E012
:1025100039E005463AE04746C8F86000FFF72EFD6F
:10252000064604E0FFF72AFD801B02282BD820680E
:102530008001F7D4D5E907010843A96A1C4A490874
:1025400002EB01416A6A41EA8211084395F82C10B6
:1025500040EA01611148001F016001203866FFF761
:102560000DFD054605E014E0FFF708FD401B0228BD
:1025700009D820688001F7D50BE000BFFFF7FEFC0B
:10258000401B022802D90320BDE8F88F2068800193
:10259000F4D40020F8E70120F6E7000008380240F4
:1025A0000038024000004742800E47420070004061
:1025B0000000FFFF70B5040005D00025A56294F867
:1025C000510010B106E0012070BD84F85050204643
:1025D00000F030F8022084F851002068016821F0F2
:1025E00040010160D4E901010843D4E90312114319
:1025F000084361690843218B01F400710843E169D4
:102600000843216A0843A16A084321680860A06959
:10261000042101EA1040616A08432168486020688B
:10262000C16921F40061C1616565012084F8510030
:10263000002070BDF0B587B0044614216846FDF750
:1026400001FF2A48284B2268002428491438022513
:10265000032605279A4227D10A6842F480520A606D
:10266000096801F480510591016841F0020101609F
:10267000016801F002010591016841F0010101606A
:10268000006802AA00F0010005900820CDE90005CD
:1026900082E8D00069461648FFF784FB8020CDE928
:1026A00000056946134818E0134B9A421AD10A688C
:1026B00042F480120A60096801F4801105910168F2
:1026C00041F0200101600068694600F0200005909B
:1026D0004FF46070CDE90005084802AA82E8D000F6
:1026E000FFF760FB07B0F0BD003001404438024006
:1026F000000402400000024000500140001402406B
:102700002DE9F84F044690F8500000271D46164664
:10271000894601280DD04FF0010B84F850B0FFF727
:102720002DFC804694F85100BA46012804D00227B7
:102730008EE00220BDE8F88FB9F1000F7DD0002EA9
:102740007BD0032084F85100C4F854A0C4F8309022
:10275000A686E686C4F838A0A4F83CA0A4F83EA05B
:10276000C4F844A0C4F840A0A068B0F5004F04D15C
:102770002068016841F480410160206801684906D1
:1027800003D4016841F040010160E068B0F5006FDA
:10279000606803D030B3012E24D040E008B1012E90
:1027A0001CD1206B21680088C86006E02068816821
:1027B000890709D5216B0988C160206B801C2063C3
:1027C000E08E401EE08609E0FFF7D8FBA0EB080092
:1027D000A84202D3681C01D031E07DB3E08E00280E
:1027E000E4D11FE0206B21680078087306E02068C0
:1027F0008168890709D5216B09780173206B401C1A
:102800002063E08E401EE08609E0FFF7B7FBA0EBF7
:102810000800A84202D3681C01D010E075B1E08E18
:102820000028E4D142462946204600F067FF08B15F
:1028300020206065A06820B107E008E0FFE70327DB
:1028400006E02068C16880680090606D00B10127D3
:1028500084F851B084F850A038466BE72DE9F84F62
:10286000044690F8500000270A9E1D4692468B466B
:102870004FF0010901280ED0012084F85000FFF725
:102880007DFB804694F85100616801280CD0B1F5B9
:10289000827F07D102E00220BDE8F88FA16809B964
:1028A000042801D00227C2E0BBF1000F27D0BAF103
:1028B000000F24D01DB394F85100042802D0052045
:1028C00084F8510000206065C4F838A0E587A5872A
:1028D000C4F830B0E586A58620646064206801688D
:1028E000490603D4016841F040010160E068B0F599
:1028F000006F606805D0E8B3012D46D07FE0012766
:1029000095E008B1012D39D1206B21680088C8609D
:10291000206B801C2063E08E401EE0862EE0206845
:10292000816889070FD5E18E69B1B9F1010F0AD12C
:10293000216B0988C160206B801C2063E08E401EE3
:10294000E0864FF0000920688168C9070CD0E18F4C
:1029500051B1C068A16B0880A06B801CA063E08FA0
:10296000401EE0874FF00109FFF708FBA0EB0800CD
:10297000B04200E009E001D3701C50D1E08E002885
:10298000CDD1E08F0028CAD13FE0206B21680078CC
:102990000873206B401C2063E08E401EE0862EE012
:1029A0002068816889070FD5E18E69B1B9F1010FFF
:1029B0000AD1216B09780173206B401C2063E08EE3
:1029C000401EE0864FF0000920688168C9070CD0DE
:1029D000E18F51B1C068A16B0870A06B401CA0636F
:1029E000E08F401EE0874FF00109FFF7C7FAA0EB28
:1029F0000800B04202D3701C01D010E07EB1E08E1E
:102A00000028CDD1E08F0028CAD142463146204669
:102A100000F074FE28B101272020606507E003273D
:102A200005E0A06818B92068C1688068009001209E
:102A300084F85100002084F8500038462CE710B587
:102A4000401EB0F1807F01D3012010BD4FF0E02483
:102A500060610F21601701F0FFFA0020A0610720DC
:102A60002061002010BD7047704770B590F83C2081
:102A7000012A19D0012400F83C4F0222427050F87C
:102A80003C3C5A689D6822F070060A6849683243E7
:102A900025F0800529435A6050F83C2C9160447021
:102AA00000210170084670BD022070BD10B5040001
:102AB00003D094F83D0010B107E0012010BD0020C4
:102AC00084F83C00204600F00DF8022084F83D0018
:102AD000211D206800F06CFF012084F83D000020DB
:102AE00010BD000008B500680B49884212D10B48A0
:102AF000016841F0040101600068002200F0040058
:102B0000009005211E20FFF7ABFABDE808401E200B
:102B1000FFF798BA08BD00000008004040380240A6
:102B200070B5044690F83C00012817D0012584F8C0
:102B30003C50022084F83D002068826822F0770231
:102B400022F47F4282600868502830D00DDC2028B3
:102B50004DD005DC98B310283BD148E0022070BD71
:102B6000302844D0402834D139E0602828D070285B
:102B700006D0B0F5805F2CD0B0F5005F29D10AE017
:102B8000CB68D1E90121206800F076FF20688168D8
:102B900041F0770109E0CB68D1E90121206800F01C
:102BA0006BFF2068816841F48041816011E0CA6850
:102BB0004968206801F034F85021206807E016E0E9
:102BC000CA684968206801F03CF86021206800F07C
:102BD0005DFF84F83D50002084F83C0070BDCA6859
:102BE0004968206801F01CF840212068EFE722685E
:102BF00001461046EBE7704770B50446006801696E
:102C00004FF00005C943890715D4C168C943890736
:102C100011D4E91E016101202077206880698007B6
:102C2000204602D0FFF7E7FF04E000F0C3F820469B
:102C300000F058F9257720680169C943490717D47E
:102C4000C168C943490713D46FF004010161022030
:102C500020772068806910F4407F204602D0FFF77B
:102C6000CAFF04E000F0A6F8204600F03BF9257703
:102C700020680169C943090716D4C168C943090717
:102C800012D46FF008010161042020772068C06928
:102C90008007204602D0FFF7AEFF04E000F08AF87C
:102CA000204600F01FF9257720680169C943C9064D
:102CB00017D4C168C943C90613D46FF0100101616C
:102CC000082020772068C06910F4407F204602D099
:102CD000FFF791FF04E000F06DF8204600F002F9E4
:102CE000257720680169C943C90708D1C168C9436C
:102CF000C90704D1891E0161204600F0F4F820685C
:102D00000169C943090609D4C168C943090605D444
:102D10006FF0800101612046FFF7A5FE2068016980
:102D2000C943490609D4C168C943490605D46FF0AF
:102D300040010161204600F0D7F820680169C943CD
:102D400089060BD4C168C943890607D46FF02001F6
:102D500001612046BDE87040FFF786BE70BD0000EF
:102D600010B586B0044614216846FDF76BFB0E498A
:102D70002068884215D10D480021026842F0020205
:102D80000260006800F00200059020200090022000
:102D9000CDE901010321CDE9031069460448FFF79D
:102DA00001F806B010BD00000004004030380240B9
:102DB00000040240704770B5044690F83C000D4690
:102DC00001280DD0012684F83C60022084F83D00E3
:102DD00042B1042A18D0082A2AD00C2A4DD139E051
:102DE000022070BD206800F059FE2068816941F022
:102DF000080181612068816921F0040181612068F6
:102E000081692A69114311E0206800F077FE20688B
:102E1000816941F4006181612068816921F48061E8
:102E20008161206881692A6941EA0221816124E087
:102E3000206800F099FE2068C16941F00801C16175
:102E40002068C16921F00401C1612068C1692A6953
:102E5000114311E0206800F0BBFE2068C16941F415
:102E60000061C1612068C16921F48061C16120688D
:102E7000C1692A6941EA0221C16184F83D600020EC
:102E800084F83C0070BD10B5040003D094F83D00F8
:102E900010B107E0012010BD002084F83C0020465E
:102EA00000F00CF8022084F83D00211D206800F09D
:102EB0007FFD012084F83D00002010BD08B50068AA
:102EC0000649884208D10648016841F002010160C4
:102ED000006800F00200009008BD000000040040FF
:102EE00040380240704770477047000030B40168B6
:102EF0000A68D2065ED50A684968416B304A09689B
:102F000091420AD02F4A914207D02D4A6032914215
:102F100003D02C4A6032914201D1202222E0284B7A
:102F20001833DA1499421DD0264B1833994219D020
:102F3000234B7833994215D0224B7833994211D0E4
:102F40001F4B9202303399420CD01E4B30339942C2
:102F500008D01B4B9033994204D01A4B90339942BE
:102F600000D092010B6823F001030B60416B154BFD
:102F700009684833994202D91249091F05E0104BEC
:102F8000A833994203D90F4908390A6008E00C4C6C
:102F90000B4B4834103BA14201D9DA6000E09A6043
:102FA000426B818D12685160416B09680A6842F07A
:102FB00001020A60816A30BC0348FDF7E9BD0000E8
:102FC0001060024010640240B048002070B5040058
:102FD00004D094F83900002510B106E0012070BD3E
:102FE00084F83850204600F023F8242084F8390073
:102FF0002068C16821F40051C160204600F074FED1
:103000002068016921F4904101612068416921F043
:103010002A0141612068C16841F40051C160E56343
:10302000202084F8390084F83A00002070BD0000A8
:10303000F0B587B0064614216846FDF703FA334918
:10304000DFF8C4C037680025304814390222012354
:103050000324674539D1076847F010070760006807
:1030600000F010000590086840F002000860086851
:10307000694600F002000590C0208DE81D00072081
:1030800004902348FEF78EFE234C224820604FF028
:103090000060C4E901054014C4E903506561A561FD
:1030A000E561256220466562FEF7DCFD08B1FDF7AB
:1030B000FAFE7463002206212520A663FEF7D0FFE6
:1030C0002520FEF7BFFF07B0F0BD144DAF42FAD187
:1030D000056845F020050560006800F020000590B7
:1030E000086840F0400008600868694600F0400049
:1030F00005904FF484408DE81D0008200490084896
:10310000FEF750FEDFE700000010014044380240A7
:1031100000040240406402405806002000140140B0
:103120000018024030B40368DC6844F01004DC602E
:1031300030BC00F09CBD2DE9F843044690F83900FE
:103140001F4616460D46202850D1A5B19EB194F8D1
:10315000380001284AD0012084F838004FF00008D8
:10316000C4F83C80212084F83900FEF707FFA684CC
:103170008146E68426E00120BDE8F883E08C401E0D
:10318000E084A0684B46B0F5805F4FF000024FF03E
:1031900080012046009703D000F0FCFEE8B90DE066
:1031A00000F0F8FEC8B928882168C0F3080048601C
:1031B000206908B16D1C05E0AD1C03E0216815F81D
:1031C000010B4860E08C0028D8D14B4600224021FA
:1031D0002046009700F0DEFE08B10320CCE7202057
:1031E00084F8390084F838800020C5E70220C3E75E
:1031F000FEE700000DA000F007FF03F0FFFC002039
:1032000003F0B8FC03F084FC0A2003F045FE00F054
:1032100022F8002003F0AEFC03F082FD084C206889
:1032200004F076FB012003F037FEF8E7496E2049F1
:103230006E697469616C5F5461736B0D0A00000004
:103240000800002010B503F013FA02F0A3FCBDE85B
:10325000104002F0F5BE10B503F0D8F9BDE81040FB
:1032600002F0A8BF1B4800F17C0190ED040A81ED3B
:10327000000A90ED050A81ED010A90ED060A81ED44
:10328000020AB0F9001000EE101A00F18801B8EE41
:10329000C00A81ED000AB0F9022000EE102AB8EE53
:1032A000C00A81ED010AB0F9042000EE102AB8EE40
:1032B000C00A81ED020A90ED0F0A0C3181ED000A7F
:1032C00090ED0E0A81ED010A90ED0D0A81ED020AE2
:1032D00070470000C44C00200F4810B50D49016034
:1032E0000321416000214FF400228160C0E90312F4
:1032F0004FF440124261017641768176C1760177C2
:103300004177FEF79CFA002803D0BDE81040FDF796
:10331000CABD10BD0064004020020020094808B565
:10332000016841F4800101600068002200F480001F
:10333000009005213A20FEF793FEBDE808403A20B0
:10334000FEF780BE3038024000B587B01C22074926
:103350006846FDF75EF80021684603F0ABFD0449BE
:10336000486004A000F050FE07B000BDD47D000806
:103370000000002045766572797468696E6720697F
:1033800073207265616479210A53746172742074C8
:103390006F20666967687421212121210A000000DD
:1033A0002DE9F04387B014216846FDF74BF83A4801
:1033B0000024016841F002010160016801F002018E
:1033C0000591016841F040010160016801F0400190
:1033D0000591016841F001010160016801F00101FE
:1033E0000591016841F008010160016801F00801E0
:1033F0000591016841F080010160016801F08001E0
:103400000591016841F020010160016801F020018F
:103410000591016841F01001016000681F4F00F044
:1034200010004FF4C0650590002229463846FEF78B
:103430009FFDDFF86C80012240214046FEF798FD99
:10344000DFF86090FE14002231464846FEF790FDFA
:103450000022F1004046FEF78BFD00950125CDE9E5
:103460000154694638460394FEF79CFC44F2400040
:103470000090CDE90154694640460394FEF792FC62
:103480000096CDE90154694648460394FEF78AFC4C
:1034900007B0BDE8F083000030380240000402406D
:1034A0000014024000100240114810B50F4901609D
:1034B0004FF4827141604FF4004181600021C1608E
:1034C0004FF400720161C0E905122022C0E9072112
:1034D000416281620A21C162FFF76CF8002803D0C3
:1034E000BDE81040FDF7DFBC10BD0000003001401A
:1034F000A8040020104810B50E4901604FF48271F5
:10350000416000218160C1604FF400720161C0E937
:1035100005123022C0E90721416281620A21C1629D
:10352000FFF748F8002803D0BDE81040FDF7BBBC0A
:1035300010BD0000005001400005002010B58AB009
:10354000002407941C2168460894FCF77BFF16486A
:10355000144901600921C0E9011441F26701C0E981
:1035600003148461FFF78FFC08B1FDF79CFC0794FE
:1035700007A90D480894FFF778FA08B1FDF793FC06
:103580006020CDE9000402940422694606480494B0
:10359000FFF711FC08B1FDF786FC0348FFF7E0FBDD
:1035A0000AB010BD000400405805002010B586B0D8
:1035B000002417480094019402940394049413493E
:1035C000059401606321C0E9011440F24731C0E96C
:1035D000031480218161FFF769FA08B1FDF763FCEC
:1035E0004FF48050009069460948FFF799FA08B1F6
:1035F000FDF759FC049404A905480594FFF735FA32
:10360000002801D0FDF74FFC06B010BD00080040B7
:10361000980500200C4810B50A4901600B4941602B
:10362000002181600C22C160C0E904128161C16186
:10363000FFF7CCFC002803D0BDE81040FDF733BCF9
:1036400010BD000000100140D8050020A086010038
:103650000C4810B50A4901604FF4E1314160002186
:1036600081600C22C160C0E904128161C161FFF771
:10367000ADFC002803D0BDE81040FDF714BC10BD20
:103680000014014018060020FEE77047012003F0F7
:1036900003FCFBE7154D164C04F0D0FA20602968B6
:1036A000401A0528E0680ED904F032F9206904F0C8
:1036B0002FF9206A04F02CF9A06904F029F9E069D7
:1036C00004F0B0F80DE004F0ADF8206904F0AAF8B9
:1036D000206A04F0A7F8A06904F0A4F8E06904F0F7
:1036E00017F93221024803F0DEFBD5E7AC010020D8
:1036F00000000020012003F0CFFBFBE738B50446B3
:103700001248134B0068B0FBF3F04FF47A73584340
:1037100000906068B0F5827F0DD10B4600920022C8
:103720008021204600F016F870B1606D40F0200056
:103730006065032038BD009830B1401E00902068BD
:103740008068C0430006F6D5002038BD3000002058
:1037500000366E012DE9F0411D4617460E4604461F
:10376000DDF8188008E0681C06D0FEF707FCA0EB27
:103770000800A8420BD255B12068806836EA0000E4
:1037800030D00020B842EED10020BDE8F0812068A2
:10379000416821F0E00141606068B0F5827F0BD1A3
:1037A000A068B0F5004F02D0B0F5806F04D120685A
:1037B000016821F040010160A06AB0F5005F09D105
:1037C0002068016821F4005101602068016841F41B
:1037D00000510160012084F85100002084F850005D
:1037E0000320D2E70120CDE7B2B003F02BFF1C226B
:1037F0002A496846FCF70DFE0021684603F05AFB93
:10380000274C26491C22A0601C3107A8FCF701FEAA
:10381000002107A803F04EFB2049E0601C2238314C
:103820000EA8FCF7F6FD00210EA803F043FB1B4990
:1038300020611C22543115A8FCF7EBFD002115A8CE
:1038400003F038FB154920621C2270311CA8FCF7DC
:10385000E0FD00211CA803F02DFB1049A0611C22F3
:103860008C3123A8FCF7D5FD002123A803F022FB0F
:103870000A49E0611C22A8312AA8FCF7CAFD0021F0
:103880002AA803F017FB6061606803F075FF03F07E
:10389000F9FE012003F000FBFBE70000F07D0008CB
:1038A0000000002010B5FEF76FFB04F0B9F9012805
:1038B00003D0BDE8104004F045B910BD30B593B059
:1038C00030216846FCF7BEFD14210CA8FCF7BAFDB8
:1038D00019480025016841F080510160006800F03E
:1038E000805011901548016841F440410160006822
:1038F000022400F440401190012000900004019047
:103900008001CDE9064006200890A820CDE90904F1
:1039100004200B906846FEF7BFFC0CA90F2081E83D
:1039200031004FF4A0500F90E002109005210CA838
:10393000FEF7C8FB13B030BD4038024000700040B5
:103940001048016841F4700101600F48016841F0BE
:10395000010101600C4A00210832116002680B4B22
:103960001A400260031D0A4A1A60026822F480228B
:10397000026005480C300160024958068039086031
:103980007047000088ED00E000380240FFFFF6FEBF
:103990001030002410B50448FFF72EF903480168E1
:1039A000491C016010BD0000980500209C0000200B
:1039B000F0B50268254C264D264E274F274B4FF079
:1039C000804CA04209D0604507D0A84205D0B04243
:1039D00003D0B84201D0984204D122F0700E4A6858
:1039E00042EA0E02A0421BD0604519D0A84217D06F
:1039F000B04215D0B84213D0984211D0184DA84209
:103A00000ED0184DA8420BD0174DA84208D0174D24
:103A1000A84205D0164DA84202D0164DA84203D1A7
:103A200022F44075CA682A434D6922F080022A4375
:103A300002608A68C2620A688262A04201D098422B
:103A400001D10969016301214161F0BD000001401C
:103A50000004004000080040000C00400004014049
:103A6000004001400044014000480140001800406F
:103A7000001C00400020004010B5846842EA032288
:103A800024F47F440A432243826010BD826822F0FE
:103A900070020A4342F0070181607047F0B5026A84
:103AA00022F001020262036A42688469124E24F025
:103AB00073050C682C4323F002058B682B430D4DD6
:103AC000A84201D0B04205D123F00807CB683B43A0
:103AD00023F00403A84201D0B04205D14D6922F47D
:103AE000407215438A692A43426084614968416390
:103AF0000362F0BD0000014000040140F0B5026A1D
:103B000022F010020262026A436884690D6824F49C
:103B1000E64444EA05248D6822F0200242EA0512B8
:103B20000F4D104EA84201D0B04206D1CF6822F00E
:103B3000800242EA071222F04002A84201D0B042BD
:103B400007D14D6923F4406343EA85038D6943EA55
:103B5000850343608461496881630262F0BD0000AF
:103B60000000014000040140F0B5026A22F48072B6
:103B70000262026A4368C46922F4007224F0730589
:103B80000C68124E2C438D6842EA05220E4DA84265
:103B900001D0B04206D1CF6822F4006242EA072287
:103BA00022F48062A84201D0B04207D14D6923F4CB
:103BB000405343EA05138D6943EA05134360C4612A
:103BC0004968C1630262F0BD000001400004014089
:103BD00030B5026A22F480520262046A4268C36904
:103BE0000D6823F4E64343EA05238D6824F400546A
:103BF00044EA0534084DA84202D0084DA84204D139
:103C00004D6922F4804242EA85124260C3614968EC
:103C10000164046230BD0000000001400004014066
:103C200010B5036A046A24F001040462846924F074
:103C3000F00444EA021423F00A020A438461026297
:103C400010BD10B5036A23F0100303628369046A90
:103C500023F4704343EA023224F0A00343EA011143
:103C60008261016210BD012003F016F9FBE7F8B58F
:103C7000044690F83A00202833D179B372B394F80F
:103C8000380001282DD0012084F83800A162A285D7
:103C90000025E563222084F83A00606B1346056531
:103CA0000846666B216802463046091DFEF744F857
:103CB000206801684168009184F83850C16841F477
:103CC0008071C1602068416941F001014161206853
:103CD000416941F0400141610020F8BDFFE701204A
:103CE000FBE70220F9E700002DE9F04104460068F7
:103CF0000169E26821F44051114301612169A06822
:103D0000E26908436169114322680843D16849F2B6
:103D10000C6399430143D16020684169A26921F491
:103D2000407111434161E2696425B2F5004F974843
:103D3000974922684FF032083FD08A4201D0824230
:103D40007CD1FEF767FA00EBC00101EB001061685F
:103D50008900B0FBF1F6FEF75DFA00EBC00101EB64
:103D6000001061688900B0FBF1F0B0FBF5F06FF076
:103D70001801484306EB800108EB0110B0FBF5F099
:103D800000F0F006FEF746FA00EBC00101EB001070
:103D900061688900B0FBF1F0B0FBF5F006EB0016AE
:103DA000FEF738FA00EBC00101EB001061688900F2
:103DB000B0FBF1F7FEF72EFAD2E08A4201D0824240
:103DC0003DD1FEF727FA00EBC00101EB001061685E
:103DD0004900B0FBF1F0B0FBF5F00601FEF71AFA6E
:103DE00000EBC00101EB001061684900B0FBF1F786
:103DF000FEF710FA00EBC00101EB0010616849000A
:103E0000B0FBF1F0B0FBF5F06FF01801484307EBA1
:103E1000800108EBC100B0FBF5F000F0F80006EB04
:103E20004006FEF7F7F900EBC00101EB00106168F6
:103E30004900B0FBF1F7FEF7EDF93CE055E0FEF785
:103E4000D9F900EBC00101EB001061684900B0FB3B
:103E5000F1F0B0FBF5F00601FEF7CCF900EBC00184
:103E600001EB001061684900B0FBF1F7FEF7C2F901
:103E700000EBC00101EB001061684900B0FBF1F0FC
:103E8000B0FBF5F06FF01801484307EB800108EB39
:103E9000C100B0FBF5F000F0F80006EB4006FEF7BD
:103EA000A9F900EBC00101EB001061684900B0FB0B
:103EB000F1F7FEF79FF900EBC00101EB001061681C
:103EC0004900B0FBF1F0B0FBF5F06FF0180148438A
:103ED00007EB800108EBC100B0FBF5F000F0070034
:103EE000216830448860BDE8F081FEF783F900EB7B
:103EF000C00101EB001061688900B0FBF1F6FEF72C
:103F000079F900EBC00101EB001061688900B0FB9A
:103F1000F1F0B0FBF5F06FF01801484306EB8001BB
:103F200008EB0110B0FBF5F000F0F006FEF762F9C7
:103F300000EBC00101EB001061688900B0FBF1F0FB
:103F4000B0FBF5F006EB0016FEF754F900EBC001EC
:103F500001EB001061688900B0FBF1F7FEF74AF948
:103F600000EBC00101EB001061688900B0FBF1F0CB
:103F7000B0FBF5F06FF01801484307EB800108EB48
:103F80000110B0FBF5F000F00F00A9E700140140AC
:103F9000001001402DE9F041984617460E460446B0
:103FA000069D1DE0681C1BD02DB1FDF7E7FFA0EBBF
:103FB0000800A84214D92068C16821F4D071C160FA
:103FC0002068416921F001014161202084F8390015
:103FD00084F83A00002084F838000320BDE8F0811E
:103FE0002068006836EA000004D00020B842D9D02A
:103FF0000020F3E70120F9E70148FEF777BF000052
:10400000D8050020FEE700000FB4054B10B503A94A
:10401000044A029800F014FE10BC5DF814FB000086
:10402000255B00081802002003B4019841000098A5
:1040300050EAC12018BF04204A0D18BF40F001000B
:1040400040F2FF72B2EB515F08BF40F0020001285E
:1040500008BF052002B070470907090E002804DBDD
:1040600000F1E02080F80014704700F00F0000F12C
:10407000E02080F8141D704770B5C1482DED020B8B
:104080002DED0E8B82B0119D25F000449FEDBEDB1F
:104090009FEDBFEB84423EDBA4F140511098A1F1AB
:1040A0007F6108430FD0BC48844202DC28D11098BD
:1040B00030B39DED100B02B0BDEC0E8B02B0BDE82D
:1040C000704000F0B0BC9DED100B53EC1D2B51EC7B
:1040D000100BFCF7C2F99DED100B41EC180B53ECE3
:1040E0001E2B51EC100BFCF7B8F953EC182BFCF716
:1040F00048FB41EC100B02B0BDEC0E8B02B070BD62
:10410000012000F0D5FC02B0BDEC0E8B02B0BDE882
:10411000704000F09DBCA1489FEDA18B844256DA0F
:104120009DED100BB4F1795F0ADA51EC100BFFF73B
:104130007BFF042808BF00F09BFC9DED100BDAE725
:1041400053EC102B51EC100BFCF787F941EC190BD9
:1041500095480621B0EE490AF0EE690A784400F06D
:10416000E6FB53EC192B51EC100BFCF776F941EC04
:104170001A0B8E48B0EE490AF0EE690A0421784421
:1041800000F0D5FB53EC192B51EC100BFCF765F943
:1041900053EC182BFCF7F5FA41EC100B51EC1A0B11
:1041A00053EC102BFCF794FBCDE900019DED000BC7
:1041B00053EC102B9DED100B51EC100BFCF74DF94F
:1041C0009DED101B53EC112BFCF7DBFAD2E09DEDBB
:1041D000100B51EC100B01F059FC53EC182BFCF7B1
:1041E00074FB9FED730BCDE9000153EC102B9DED9B
:1041F000000B51EC100BFCF730F941EC190B6E4839
:104200000621B0EE490AF0EE690A784400F08FFB0F
:1042100053EC192B51EC100BFCF71FF941EC1B0B65
:104220006648B0EE490AF0EE690A0421784400F0CD
:104230007EFB53EC192B51EC100BFCF70EF953ECF1
:10424000182BFCF79EFA41EC1C0B51EC190B03F0F8
:1042500073F941EC180B5A489FED5BABA04222DC8E
:1042600053EC1C2B51EC1B0BFCF732FBCDE900018E
:104270009DED000B51EC180B53EC102BFCF7EDF8F7
:1042800053EC182BFCF77DFA53EC1A2BFCF7E5F8EE
:1042900053EC1D2BFCF716FB53EC1E2BFCF715FB08
:1042A00041EC100B5FE08DED008B002000909DED48
:1042B000000B51EC180B53EC102BFCF762FA9DED40
:1042C000000B41EC1E0B53EC102B51EC100BFCF7C8
:1042D000C4F853EC192BFCF7F8FA53EC1E2BFCF73F
:1042E000F7FA41EC190B53EC1C2B51EC1B0BFCF7B0
:1042F000EFFA41EC1B0B53EC1A2B51EC190BFCF7AA
:10430000ACF853EC1D2BFCF7E0FA41EC190B53EC25
:104310001A2B51EC180BFCF7A0F853EC1B2BFCF7F5
:104320009CF853EC192BFCF7CDFA9DED000B41ECFA
:10433000180B53EC1A2B51EC100BFCF78EF89FED79
:10434000249B53EC192BFCF7C0FA41EC100B51ECF9
:10435000180B53EC102BFCF7B5FA53EC192BFCF7A8
:10436000B4FA41EC100B002D3FF7C5AE51EC100B29
:1043700081F0004141EC100BBDE6000000000000A0
:104380000000F03F00000000075C143326A6913CBB
:10439000182D4454FB21F93F0000F07F0000E03F5E
:1043A000000000000000F03F084E0000164E000024
:1043B000000000000000E03F5A4D0000684D000082
:1043C0003333EF3F00000000000000000000004019
:1043D000182D4454FB21E93F70B59B482DED020B8D
:1043E0002DED068B079D25F00044A04218DC974870
:1043F000844202DC0AD1069840B19DED060BBDEC6B
:10440000068B02B0BDE8704000F00DBB002DCCBFA4
:104410009FED8F0B9FED900BBDEC068B02B070BD36
:104420008F48A04215DD8F48A042D8BF4FF0FF341F
:1044300058DD9DED060B51EC100BFFF7F5FD042840
:1044400008BF00F015FB9DED060BBDEC068B02B01E
:1044500070BD9DED060B51EC100B01F017FBCDE983
:10446000060181489FED828BA0423CDD8248A0423C
:104470001FDD00249FED82AB9DED060B53EC1A2B44
:1044800051EC100BFCF77DF99DED060B41EC190B7F
:1044900053EC1A2B51EC100BFBF7DFFF53EC182BEE
:1044A000FCF710FA53EC192BFCF712FACDE90601D0
:1044B00049E09DED060B012453EC182B51EC100B39
:1044C000FCF75FF99DED060B41EC190B53EC182B33
:1044D00051EC100BFCF7F6F953EC192BFCF7F8F93B
:1044E000CDE906012FE06848A0421FDD02249FEDC0
:1044F000689B9DED060B53EC192B51EC100BFBF751
:10450000ACFF53EC182BFCF73CF99DED060B41EC8E
:10451000180B53EC192B51EC100BFCF7D3F953EC9F
:10452000182BFCF7D5F9CDE906010CE09DED060B43
:10453000032453EC102B9FED580B51EC100BFCF7A0
:10454000C7F9CDE906019DED060B53EC102B51EC9C
:10455000100BFBF782FF41EC180B53EC182BFBF709
:104560007CFF41EC190B4E480621B0EE490AF0EEF3
:10457000690A784400F0DBF953EC182B51EC100B6E
:10458000FBF76BFF41EC180B4648B0EE490AF0EE22
:10459000690A0521784400F0CAF953EC192B51EC53
:1045A000100BFBF75AFF41EC100B51EC180B53ECBE
:1045B000102B002C0EDAFCF7E4F89DED061B53ECF3
:1045C000112BFBF74AFF9DED061B53EC112BFCF75B
:1045D0007CF935E0FCF7D5F89DED061B53EC112B6B
:1045E000FBF73BFF41EC100B2F48784400EBC40075
:1045F00090ED001B51EC100B53EC112BFCF762F902
:104600009DED061B53EC112BFCF75CF941EC100BF4
:104610002648784400EBC40090ED001B51EC100BD1
:1046200053EC112BFCF751F941EC100B002DA2BFFC
:10463000BDEC068B02B070BD51EC100B81F0004157
:1046400041EC100B01E70000000010440000F07F77
:10465000182D4454FB21F93F182D4454FB21F9BF78
:104660000000DC3F0000203E0000F33F000000009F
:10467000000000000000F03F0000E63F00000000E6
:104680000000000000000040008003400000000027
:10469000000000000000F83F000000000000F0BF34
:1046A000AA4A0000604A0000EA490000A24900004E
:1046B00070B56B4E2DED040B2DED028B82B0DDF845
:1046C0001CC0DDE905235C422CF000411C4341EA9B
:1046D000D474049D22F00040B44205D86C422C43AF
:1046E00040EAD474B4420BD99DED061B9DED040B3A
:1046F00002B0BDEC028B04B0BDE8704000F09DB983
:10470000ACF14054A4F17F641C430BD0022404EAB2
:10471000AC7444EAD27405439FED538B9FED542B48
:1047200007D015E09DED040B51EC100B00F01FFEBF
:1047300042E0002C11BF012C9DED040B02B0BDEC3A
:10474000028B04BF04B070BD022C38D0032C3BD0C8
:104750000B439FED491B9FED4A0B0AD0B14218D184
:10476000B04209D121F0804120F0804007910590AE
:104770000FE0002A15DA10E0434B7B44002C08BF01
:1047800093ED000B0DD0012C10D0022C17D0032C70
:104790001AD0B0421DD1002A03DAB0EE410AF0EE81
:1047A000610A02B0BDEC028B04B070BD93ED000B4A
:1047B00051EC100B81F0004141EC100BF1E7B0EE31
:1047C000480AF0EE680AECE7B0EE420AF0EE620A40
:1047D000E7E7401A00153C28C8BF8DED000B19DC37
:1047E000BCF1000FBEBF10F13C0F9FED290B8DED0A
:1047F000000B0FDB9DED060B53EC102B9DED040B16
:1048000051EC100BFCF764F801F040F900F0AFFD3B
:10481000CDE90001002C08BF9DED000BC1D0012C9B
:1048200010D0022C9FED1C0B53EC102B9DED000BB8
:1048300051EC100B0DD0FCF745F853EC182BFCF79E
:1048400041F8B9E7019880F0004001909DED000B20
:10485000A7E7FCF737F853EC182BFCF736F8ABE773
:104860000000F07F00000000182D4454FB21094097
:10487000182D4454FB2109C0182D4454FB21F9BFC5
:10488000182D4454FB21F93FD248000000000000DD
:104890000000000000000000075C143326A6A13CC5
:1048A0002DED020B019820F0004001909DED000BD2
:1048B00002B0704700B52DED048BB0EE409AF0EEDB
:1048C000609A83B051EC190BFCF771F841EC180BAE
:1048D00018EE100A18EE901A8DED008B002818BF04
:1048E0000120084320F00040C0F17F6000F1E0406B
:1048F000C00F14D019EE101A19EE900A8DED009B1E
:10490000002918BF0121084320F00040C0F17F605A
:1049100000F1E040C00F04BF012000F0C9F8B0EE84
:10492000480A03B0F0EE680ABDEC048B00BD70B518
:1049300004462DED028B4D1E00EBC500B0EE408A03
:10494000F0EE608A90ED000B35F0060017D053ECC6
:10495000182B51EC100BFBF780FD41EC100B6D1E7A
:1049600004EBC50090ED001B51EC100B53EC112B28
:10497000FBF707FF41EC100B35F00600E7D1022DE5
:1049800036D0042D1CD0062D1CBFBDEC028B70BD93
:1049900053EC182B51EC100BFBF75FFD94ED0A1B49
:1049A00053EC112BFBF7EDFE53EC182BFBF755FDE9
:1049B00094ED081B53EC112BFBF7E3FE41EC100BBD
:1049C00053EC182B51EC100BFBF747FD94ED061B35
:1049D00053EC112BFBF7D5FE53EC182BFBF73DFDE9
:1049E00094ED040B53EC102BFBF7CBFE41EC100BBA
:1049F00053EC182B51EC100BFBF72FFD94ED021B21
:104A000053EC112BFBF7BDFE53EC182BFBF725FDE8
:104A100094ED001B53EC112BFBF7B3FEBDEC028BA6
:104A200041EC100B70BD10B553EC102B51EC100B7A
:104A3000FBF7A7FE41EC100B10BD10B553EC112B8A
:104A400051EC100BFBF79DFE41EC100B10BD00006C
:104A50009FED050B10B553EC102B51EC100BFBF731
:104A600037FF41EC100B10BD0000000000000000FB
:104A70009FED050B10B553EC102B51EC100BFBF711
:104A8000ECFC41EC100B10BD000000000000001019
:104A900002E008C8121F08C1002AFAD17047704707
:104AA000002001E001C1121F002AFBD17047000065
:104AB00001490860704700001C0200202DE9FF5FDB
:104AC00082B00021DDE90430020DDDF840B003437F
:104AD00018D044F61050A2F2FF3242431514119838
:104AE00001281FD0A5EB0B00401C5FEA000A4FF025
:104AF00000064E4FDFF83891B046504615D5CAF142
:104B0000000413E0119801244AA3012801D16FEA9F
:104B10000B010298119AC0E90031C0E9024206B0C7
:104B2000BDE8F09FCBF10000DFE704460021404ADA
:104B3000491842EB0450CDE9001012E0E00707D01D
:104B400032463B4640464946FBF787FC804689464D
:104B500032463B4610461946FBF77FFC06460F4699
:104B60006410002CEAD1DDE90401DDE90023BAF18B
:104B7000000F06DAFBF771FC42464B46FBF76DFC73
:104B800005E0FBF7A5FE42464B46FBF7A1FE0446B7
:104B90000E460022284BFBF7F7FC03D84FF0FF30FE
:104BA000014607E00022254B20463146FBF7E9FD90
:104BB000FBF74EFF102409E0002C0ADB0A22002339
:104BC000FBF7F6FB039B30321A55641E50EA0102D4
:104BD000F2D1641C039AC4F111031444119A012AFE
:104BE00003D0012208430DD10AE0084304D000207D
:104BF0004FF0110B119072E7A3EB0B056D1E0DE04A
:104C00005B4504DD4FF0000205F1010504E003DA25
:104C10004FF00002A5F10105002AECD0029811998D
:104C2000C0E90231C0E9004579E700000000144006
:104C30000000F03F300000000000F0430000E03FC3
:104C40002DE9FF4F95B09B468946064600250FE2A9
:104C5000252877D100242746F84A0121059400E051
:104C6000044316F8013F203B01FA03F01042F7D14C
:104C700030782A2811D06FF02F033078A0F130025D
:104C8000092A16D8059A44F0020402EB820203EBCB
:104C900042021044761C0590EFE759F8042B059268
:104CA000002A03DA504244F40054059044F0020410
:104CB000761C30782E2816D116F8010F44F0040423
:104CC0002A280DD06FF02F023078A0F13003092B85
:104CD00009D807EB870302EB4303C718761CF3E7F9
:104CE00059F8047B761C30786C280FD006DC4C28F1
:104CF00017D068280DD06A2814D104E0742810D089
:104D00007A280FD10DE044F400140AE044F4801432
:104D100001E044F440147278824202D104F5801418
:104D2000761C761C307866280BD013DC582877D098
:104D300009DC002875D04528F6D04628F4D047284D
:104D40001AD19DE118E0632835D0642879D0652810
:104D500012D195E1702873D008DC6728F1D069285A
:104D60006FD06E280DD06F2806D1B5E073282CD0F7
:104D7000752875D0782874D05A46179990476D1CBD
:104D800075E1C4F30250022809D003280DD0D9F8E8
:104D9000001004280DD00D6009F1040967E1D9F86D
:104DA0000010EA17C1E90052F6E7D9F800100D80AB
:104DB000F2E70D70F0E719F8041B8DF800100020E1
:104DC0008DF80100EA46012003E059F804AB4FF0EA
:104DD000FF3061074FF0000102D40DE008F101013E
:104DE0008846B9420FDA8045F8DB1AF80810002926
:104DF000F4D108E008F1010188468142FADB1AF893
:104E000008100029F6D105985B46A0EB080721465B
:104E10003846179A00F094FA284400EB080507E09A
:104E20004DE029E10DE01AF8010B5A461799904719
:104E3000B8F10108F7D25B4621463846179A13E1CC
:104E400042E00A220092C4F302524FF0000A022A02
:104E500008D059F804CB032A4FEAEC710AD00DE0D0
:104E600029E02AE009F1070121F00702F2E802C176
:104E7000914609E00FFA8CFC4FEAEC71042A03D149
:104E80004FFA8CFC4FEAEC71002907DA0A46002140
:104E9000DCF1000C61EB02012D2202E0220504D5B9
:104EA0002B228DF80420012203E0E20701D020220A
:104EB000F7E7904659E00A2102E010220DE01021A8
:104EC0004FF0000A00910BE010224FF0000A44F06E
:104ED00004040827009203E008224FF0000A009221
:104EE000C4F30252022A05D059F804CB0021032A48
:104EF00008D009E009F1070121F00702F2E802C138
:104F0000914605E01FFA8CFC042A01D10CF0FF0C3D
:104F10004FF00008220728D5702806D0009B83F0A8
:104F2000100353EA0A0305D00EE040228DF8042056
:104F3000012208E05CEA010206D030228DF804204C
:104F40008DF8050002229046009B83F0080353EA87
:104F50000A030AD15CEA010201D1620705D53022B9
:104F60008DF804204FF001087F1E582804D034A08B
:104F700003900EA802900DE036A0F9E75346604674
:104F8000009AFBF715FA84460398825C0298401E4B
:104F9000029002705CEA0100F0D1029806A9081A9A
:104FA00000F1200A600702D524F4803400E00127D4
:104FB000574502DDA7EB0A0000E0002000EB0A01E4
:104FC000009005984144401A0590E00306D45B46E2
:104FD0002146179A059800F0B3F90544002706E02A
:104FE00001A85A46C05D179990476D1C7F1C474524
:104FF000F6DBE0030CD55B462146179A059800F0D6
:105000009FF9054404E030205A46179990476D1CDB
:105010000099481E00900029F5DC08E002980299EA
:105020005A460078491C0291179990476D1CBAF1B5
:105030000001AAF1010AF1DC65E100000928010084
:1050400030313233343536373839616263646566FE
:1050500000000000303132333435363738394142C0
:10506000434445460000000000F058F90544761C12
:10507000307800287FF4ECAD19B02846BDE8F08FF9
:10508000620700D4062709F1070222F0070CFCE8AA
:105090000223E14603F000485FEA080C02D00FF259
:1050A000702C0DE05FEA045C02D50FF2682C07E07B
:1050B0005FEAC47C02D00FF2602C01E0AFF2700C0A
:1050C0004FF0FF3823F00043CDF850C065280CD0D6
:1050D00006DC452809D046281DD047283DD13DE0B3
:1050E000662818D067287ED138E00021112F01DB17
:1050F000112000E0781CCDE9000106A90EA8FFF7F9
:10510000DDFCDDE90F010E9A03910021009207F109
:10511000010A04914DE04FF000400097CDE90110E5
:1051200006A90EA8FFF7CAFCDDE90F0203920E9B49
:1051300011990022DDF80CA00093049211B9791C9A
:1051400000EB010AB7EB0A0004D4C0F1FF3007F10D
:10515000010A0490AAEB0700019044E0012F00DA55
:1051600001270021112F01DD112000E03846CDE993
:10517000000106A90EA8FFF7A1FCDDE90F010E9AB8
:105180000391002104910092BA4621070CD403999F
:10519000514500DA8A46BAF1010F05DD009AAAF1FD
:1051A0000101515C302908D0B84202DA10F1040F35
:1051B00006DA0121CDE9011015E0AAF10101E9E7C4
:1051C000002805DC049901440491AAEB000102E0E7
:1051D000411C514500DD8A460499401A401C01904B
:1051E0004FF000400290200704D40198504501DBA5
:1051F000CDF8048000208DF84F0002980DF14F0784
:10520000B0F1004F25D02B200E9002984FF00208ED
:1052100000280CDA404202902D200E9007E00A216F
:105220000298FBF7E5F93031029007F8011DB8F15B
:105230000001A8F10108F2DC02980028EFD1791EE4
:105240000E980870307800F0200040F0450007F814
:10525000020D12A8C01B00F107081498007800B1D5
:10526000012000EB0A01019801EBE071059841442F
:10527000401A401E0590E00306D45B462146179A6B
:10528000059800F05DF805441498007818B15A4666
:10529000179990476D1CE00324D55B462146179A69
:1052A000059800F04DF805441CE00498002807DB41
:1052B000DDE90301884203DD0098405C179901E0B5
:1052C000179930205A469047049805F10105401C73
:1052D00004900198401E019004D12E205A4617993F
:1052E00090476D1CBAF10001AAF1010ADDDC05E06E
:1052F00017F8010B5A46179990476D1CB8F1000139
:10530000A8F10108F4DC5B462146179A0598ABE644
:105310002D0000002B000000200000002DE9F041CE
:10532000044600251E461746880404D405E0394685
:105330002020B0476D1C641EF9D52846BDE8F081D9
:105340002DE9F041044600251E469046C80301D5CC
:10535000302700E02027880404D505E04146384680
:10536000B0476D1C641EF9D52846BDE8F08110B524
:1053700041EC100BFFF730F851EC100B10BD0000A2
:1053800000B58BB000210122CDE9061205910091F4
:1053900001910291039104910E21CDE90821694602
:1053A000FCF754F80448FCF759FB02210248FBF7CC
:1053B000D7FF0BB000BD00002002002070B5002810
:1053C00036D0002934D0002A32D0002B30D0334CD4
:1053D0009FED330A247864B3012C2AD0022C2DD0FF
:1053E000032C2FD0042C46D0052C21D11C68B4F9F5
:1053F000004004EB8404640000EE104A6FF00904DE
:10540000B8EEC00A80ED000A1868408810FB04F06E
:1054100000EE100AB8EEC00A81ED000A1868808814
:1054200010FB04F000EE100AB8EEC00A82ED000A8C
:1054300070BD80ED000A81ED000AF7E7BDE870401D
:1054400000F08AB914461D461A4600F0E7F92868AC
:1054500095ED6A0A9FED131AB0F9040000EE900A68
:10546000F8EEE00A00EEC10A9FED0F1ADFED0F0A19
:1054700001F05EF80FE014461D461A4600F0CEF922
:105480002868DFED0B0AB0F9040000EE100AB8EE50
:10549000C00A20EE200A84ED000A70BDAC00002096
:1054A00000000000A69BC43BDB0F4940DB0F49C056
:1054B0000AD723BC30B5002818D0016802220C7A24
:1054C0001049032C13D00125022C14D00423012CE5
:1054D00013D0097849B1012910D0022908D0032935
:1054E0000ED004290AD0052900D1037430BD0A70FA
:1054F0000021017430BD0D7000E00B70027430BDEE
:10550000057430BDAC0000207FB504469FED470A0E
:1055100000200090019002900390D4ED651A94ED64
:10552000661AD4ED670A014631EE612ADFED402AA2
:1055300031EEC13A684600EEA23A8DED003A31EE06
:10554000813AF1EE611A71EEC11A9FED3A1A00EE3E
:10555000A23A40EE811A00EE812A8DED013ACDED9E
:10556000021A8DED032A227C042A11D100EB81025C
:1055700001EB810392ED000A04EB8303491CBDEEAD
:10558000C00AC9B2042910EE102A9A84EED37FBD56
:1055900000EB8102D2ED000A01EB810204EB8202F2
:1055A000C2ED080AF0EEE00AB4EEE00AF1EE10FAFD
:1055B00001D2B0EE600A491CC9B20429E8D310EE4A
:1055C000100AB0F1814F13DDB1EE001A5FF0000058
:1055D000C1EE000A00EB800104EB8101401C91ED5B
:1055E000080AC0B2042820EE200A81ED080AF1D38F
:1055F0005FF0000505EB850004EB800605EB8500F8
:1056000000EBC50004EB8000D6ED070A96ED080A12
:10561000643001F079FCBDEEC00A6D1CEDB210EEF5
:10562000100A042DB084E5D37FBD00000000000007
:10563000EB5138BEAF4761BE10B504002DED028BB3
:105640007CD00020DFED3F0A9FED3F1A00EB800188
:1056500004EB81014A69B2F9062000EE102A00EB42
:10566000800202EBC002B8EEC00A04EB8202401CCA
:10567000C0B220EE200A042881ED070A92ED200A2C
:10568000D2ED211A30EE610A20EE010A81ED060A00
:10569000DCD394ED0C2AD4ED071A94ED111A9FED8A
:1056A0002C8A32EE610AF1EE611ADFED2A8A71EE80
:1056B000C21A70EE010A94ED160A31EE812A31EE1B
:1056C000C11A70EEC02AF5EE000A32EE002A31EE61
:1056D000400A62EEA02A22EE202A20EE200ADFED08
:1056E0001B0AC4ED622A84ED632A80EE201A84ED41
:1056F000641AE068B0EE481A90ED000A6068D0EDD8
:105700002B0A30EE600AF0EE680A00F011FF84ED1B
:105710006F0AE068B0EE481A90ED020AA068D0ED7A
:105720002B0A30EE600AF0EE680A00F001FF84ED0B
:10573000700AE06890ED010A84ED710ABDEC028BFD
:1057400010BD00000A01DA390000FA43CDCC4C3E0E
:10575000DB0F4940DB0F49C070B51C4615460028D9
:105760004DD000294BD0002D49D0002C47D01A46EF
:1057700000F054F820689FED220A224C408A8106EE
:1057800006D5617831B90121617084ED010A01E02B
:1057900000216170810703D1410701D4000702D5C0
:1057A000DFED190A01E0DFED190AC4ED030A6078A4
:1057B00090B194ED010AFAF7B1FDD4ED030A20EEA1
:1057C000200ADFED130A84ED020A94ED010A30EE9F
:1057D000200A84ED010A03E084ED020A94ED010A37
:1057E0000C4910EE100A884205DDDFED0B0A30EEA1
:1057F000600A84ED010A94ED020A85ED000A70BD8D
:1058000000000000AC0000207CD9A03E3333333FC1
:105810002EE34D3CDB0FC940DB0FC94070B51400CF
:105820002DED028B0D46064663D0002E61D0002D73
:105830005FD02268B2F9000000F10A01152900D2F8
:105840000020B2F9021001F10A03152B00D2002149
:1058500000EE100ADFED280A508AB8EEC00A60EEAA
:10586000208A00EE101ADFED250AC107B8EEC00A43
:1058700020EE208A02D0D4ED6B8A03E0810701D5A7
:10588000D4ED6C8A410702D594ED6D8A03E00007E0
:1058900001D594ED6E8AB0EE680A04F5B47000F09C
:1058A00001F9B0EE480A04F5BC7000F0FBF818EE00
:1058B000900A13499FED130A884206DA18EE900AFF
:1058C0001149884201D284ED5B0A18EE100A0F4993
:1058D000884206DA18EE100A0D49884201D284ED9A
:1058E0005F0A94ED5B0A86ED000A94ED5F0A85ED90
:1058F000000ABDEC028B70BDA69BC43B0AD7A3BBBC
:1059000090C2753D0000000090C275BDCCCC4C3DEE
:10591000CCCC4CBD30B504002DED048B83B02BD026
:105920009FED548A03468DED008A8DED018A8DED41
:10593000028A02AA01A96846FFF740FD217C9FED7B
:105940004E9ADFED4E8A04F59A75C9B101295CD0F3
:1059500002297AD004290FD19DED000A84ED650A51
:105960009DED010A84ED660A9DED020A84ED670A49
:1059700084ED5B8A84ED5F8A03B0BDEC048B30BD9F
:10598000606890ED2B0AB1EE400AFAF7C7FC606838
:10599000B0EE408A90ED2B0AB1EE400AFAF782FC95
:1059A000DDED000A9DED011A60EE201A20EE010ADD
:1059B00048EE011A08EE600AB0EE491AF0EE680AE5
:1059C000C4ED651A84ED660A9DED020A00F0B0FD93
:1059D00084ED690A6068D0ED2B0A284601F094FA3C
:1059E000B1EE400A84ED670A94ED6B1AD4ED6C0AAF
:1059F00094ED650A00F086F884ED650A94ED6D1A61
:105A0000D4ED6E0A94ED660A1AE0B0EE491AF0EE93
:105A1000680A9DED020A00F08BFD84ED6A0AD4ED60
:105A20006F0AB0EE491A30EE600AF0EE680A00F034
:105A30007FFDF0EE480A284601F066FA07E004E030
:105A400000F060F884ED660A96E79DED020A84EDA9
:105A5000670A94ED6B1AD4ED6C0A9DED000A00F014
:105A600051F884ED650A94ED6D1AD4ED6E0A9DED42
:105A7000010AE5E700000000DB0F4940DB0F49C0E9
:105A800001490020087070479C00002082B0CDE9D9
:105A9000000121F0004001909DED000B02B051EC9F
:105AA000100B704710B510EE103A03608168C268A1
:105AB00000EE101A00EE902A446830EE201A00EE34
:105AC000101AC0EE010A00EE104A20EE801A00EE15
:105AD000101A00EE902A70EE201A00EE102AC0EE86
