:020000040800F2
:10000000104F002081020008232F0008B12A0008A9
:10001000212F00081B0900089D380008000000007F
:10002000000000000000000000000000C101000806
:10003000190C0008000000001D0200083D310008F6
:100040009B0200089B0200089B0200089B0200081C
:100050009B0200089B0200089B0200089B0200080C
:100060009B0200089B0200089B0200089B020008FC
:100070009B0200089B0200089B0200089B020008EC
:100080009B0200089B0200089B0200082909000847
:100090001D0900089B0200089B0200089B02000843
:1000A0009B0200089B0200089B0200089B020008BC
:1000B0009B0200089B0200082D3200089B020008EA
:1000C0009B0200089B0200089B0200089B0200089C
:1000D0009B020008913800089B0200089B02000860
:1000E0009B0200089B0200089B0200089B0200087C
:1000F0009B0200089B0200089B0200089B0200086C
:100100009B0200089B0200089B0200089B0200085B
:100110009B0200089B0200089B0200089B0200084B
:100120009B0200089B020008690B00089B02000864
:100130009B0200089B0200089B0200089B0200082B
:100140009B0200089B0200089B0200089B0200081B
:100150009B0200089B0200089B0200089B0200080B
:100160009B0200089B0200089B0200089B020008FB
:100170009B0200089B0200089B0200080000000090
:100180009B0200089B0200089B0200089B020008DB
:100190009B0200089B0200089B0200089B020008CB
:1001A00000000000000000009B020008DFF80CD0F7
:1001B00000F072FB00480047954C0008104F0020EB
:1001C0002C4B19680868B0E8F04F80F30988BFF33A
:1001D0006F8F4FF0000080F311887047000000001F
:1001E00008480068006880F308884FF0000080F33A
:1001F000148862B661B6BFF34F8FBFF36F8F00DF15
:1002000000BF00BF08ED00E0DFF80C00016841F41A
:1002100070010160704700BF88ED00E0EFF30980D6
:10022000BFF36F8F134B1A681EF0100F08BF20ED3D
:10023000108A20E9F04F106009B44FF0500080F3AD
:100240001188BFF34F8FBFF36F8F05F085FD4FF01F
:10025000000080F3118809BC19680868B0E8F04F05
:100260001EF0100F08BFB0EC108A80F30988BFF3AE
:100270006F8F704734000020EFF305807047000057
:100280000648804706480047FEE7FEE7FEE7FEE730
:10029000FEE7FEE7FEE7FEE7FEE7FEE7D9310008EE
:1002A000AD010008B5EEC00AF1EE10FA07D2DFED9D
:1002B0001E0AB4EEE00AF1EE10FAA8BF7047DFEDB7
:1002C0001B0AB5EEC00A60EE200ABDEEE01A11EE80
:1002D000100AF1EE10FA38BF401E00EE100A154960
:1002E000F7EE001AB8EEC00A30EEC00ADFED100AD1
:1002F00060EE200ABCEEE00A10EE100AC0F308001F
:1003000000EE100A01EB8000B8EE400A90ED011AF1
:1003100070EEC00A90ED000A71EEE01A21EE800A3C
:1003200000EE810A70470000CD024CB483F9223EF2
:1003300000000044E06A00082DE9F05F0546002057
:1003400092469B4688460646814640241BE0284646
:1003500041464746224600F004F953465A46C01A21
:10036000914110D311461846224600F0EBF82D1AA1
:1003700067EB01084F4622460120002100F0E2F819
:1003800017EB00094E41201EA4F10104DFDC4846B2
:1003900031462A464346BDE8F09F40EA01039B07E9
:1003A00003D009E008C9121F08C0042AFAD203E0EA
:1003B00011F8013B00F8013B521EF9D27047D2B24E
:1003C00001E000F8012B491EFBD270470022F6E73E
:1003D00010B513460A4604461946FFF7F0FF2046BB
:1003E00010BD2DE9FE4F81EA030404F0004421F022
:1003F000004100944FF0000B23F0004350EA010449
:100400005ED052EA03045BD0C3F30A54C1F30A5529
:100410002C44A4F2F3340194A0FB0254C1F3130161
:1004200041F48011C3F3130343F4801301FB02442E
:1004300000FB034E840A970A44EA815447EA835733
:10044000A4FB076802958D0A05FB07854FEA932CEC
:1004500004FB0C542705029D4FEA065847EA16375D
:10046000B5EB08056EEB070C870E920E47EA811775
:1004700042EA8312A7FB0201B6EB0B0164EB000416
:100480002B0D43EA0C335E1844EB1C50DA46514600
:10049000E7FB0201C5F313044FEA0B3343EA14539D
:1004A0004FEA0432019C43EA0603A4F10C040294CF
:1004B000009CCDE900B400F073F803B0BDE8F08F04
:1004C00000200146F9E70EB5C10F80EAE07008444C
:1004D000CA07002140F233438DE80E000A460B465E
:1004E00000F05EF803B000BD30B5041E71F10004E9
:1004F00004DB4FF00044404264EB0101141E73F131
:10050000000405DB1C464FF00043524263EB04033A
:10051000994208BF904230BD30B50B4601460020DD
:100520002022012409E021FA02F59D4205D303FAB5
:1005300002F5491B04FA02F52844151EA2F1010236
:10054000F1DC30BD202A04DB203A00FA02F1002061
:1005500070479140C2F1200320FA03F31943904001
:100560007047202A04DB203A21FA02F0002170476C
:1005700021FA02F3D040C2F120029140084319460B
:10058000704710B5141E73F1000408DA401C41F1E5
:10059000000192185B411A4301D120F0010010BD07
:1005A0002DE9F04D92469B4611B1B1FA81F202E07D
:1005B000B0FA80F220329046FFF7C4FF04460F469F
:1005C00040EA0A0041EA0B0153465A46084313D059
:1005D000114653EA010019D0C8F140025046FFF716
:1005E000C0FF05460E46504659464246FFF7AAFF51
:1005F000084305D0012004E020463946BDE8F08DCF
:100600000020054346EAE0762C4337430A98630509
:10061000E40AA0EB08000022FD0A44EA47540A302D
:1006200002D500200146E9E7010510196941DDE91D
:10063000084500196941BDE8F04DA2E72DE9FE4FDC
:10064000804681EA0300C00F0C46009021F0004173
:1006500023F00045B8EB0200A94105D240462146EF
:1006600090461C460B46024623F00040104347D0FC
:10067000270DC7F30A00C3F30A510290401A0190F4
:1006800040286BDAC3F3130040F4801B00989246B5
:1006900020B10023D2EB030A63EB0B0B0198594600
:1006A000C0F140025046FFF74DFF06460D4650464A
:1006B0005946019A00F002F910EB0800614100244C
:1006C00087EA115284EAE7731A4340D0009A62B372
:1006D000019A012A4FEA075215DC001B61EB020167
:1006E0004FF0004202EA0752CDE90042001C41F5FA
:1006F000801132462B46FFF753FF03B0BDE8F08F61
:1007000040462146F9E7001B61EB0201001C41F560
:10071000801300185B412018A2F5001747EB030176
:1007200040EAD570B6196D4111E06D084FEA360602
:1007300045EAC0754FEA0752001B61EB0201001C3D
:1007400041F5801149084FEA300000195141324605
:100750002B4603B0BDE8F04FFFF713BF009801220E
:1007600040000023D0EB020263EBE07300982146C7
:100770004FEAE074B8EB000061EB0401E9E783F0B5
:1007800000435BE781F0004158E72DE9F04D81EA35
:10079000030404F0004B21F0004514464FF0000A1A
:1007A00023F0004150EA050220D054EA01021DD096
:1007B000C5F30A570246C5F31303C1F31300C1F38F
:1007C0000A5640F4801543F48013A7EB0608101B6B
:1007D000D64608F2FD3873EB050002D308F1010894
:1007E00001E092185B41B8F1000F03DA00200146E6
:1007F000BDE8F08D00204FF48011064684460EE0DF
:10080000171B73EB050705D3121B63EB05030643A8
:100810004CEA010C49084FEA300092185B4150EA5B
:100820000107EDD152EA030012D082EA040083EA04
:100830000501084305D0101BAB4106D2012200235D
:1008400006E000224FF0004302E06FF00102531077
:100850001AEB06004CEB085110EB0A0041EB0B01C0
:10086000BDE8F04DFFF78DBEC1F30A52C1F313018D
:1008700040F2FF3341F480119A4202DA002001462F
:10088000704740F233439A42A2F2334202DC5242B2
:10089000FFF767BEFFF756BE064C074D06E0E0685F
:1008A00040F0010394E8070098471034AC42F6D3B7
:1008B000FFF780FC5C7300087C730008202A06DBCD
:1008C000CB17203A41FA02F043EAE07306E041FA1E
:1008D00002F3D040C2F1200291400843194670470C
:1008E00030B58C1810F8012B12F00F0301D110F85D
:1008F000013B120906D110F8012B03E010F8015B4F
:1009000001F8015B5B1EF9D101E001F8013B521EC9
:10091000FBD1A142E6D3002030BDFEE7014800F044
:10092000F2BA000084010020014800F0ECBA000097
:100930008401002010B50A88C2F30A02A2F5806281
:1009400002804A788B78D20842EA4312C2F30A0244
:10095000A2F5806242808A78CB78920942EA8302CB
:100960000B7942EA8322C2F30A02A2F580628280F6
:100970000A794B79520842EAC312C2F30A02A2F57D
:100980008062C2804A79920902724A79C2F30112E6
:100990004272CA8842810A8982814A89C2810A7B5D
:1009A00002744A7B4274C989418200F047FF0549BD
:1009B00008604A68821AB2F5FA7F01D9486010BD12
:1009C000886010BD1401002070B504002DED048B6B
:1009D00062D00420207103F091FF9FED318ADFED9A
:1009E000318ADFED319A9FED319A0025206028464B
:1009F00003F07AFF05EB850104EB8101B0EE690A93
:100A0000886005EB850000EBC50004EB8000B0EECC
:100A1000482AF0EE681AB0EE401AF0EE490A583053
:100A200004F00BFD6D1CEDB2042DE0D3F1EE081ABD
:100A30009FED200A9FED1E2A04F59470B0EE401A37
:100A4000F0EE400A04F0F9FC9FED1C8A1A4904F507
:100A5000AE70B0EE480A03F01CFF1749B0EE480A2A
:100A6000091D04F5B67003F014FFB0EE080A84ED1A
:100A7000680AB8EE080A84ED690A9FED110A20465B
:100A800084ED6A0A9FED0F0A84ED6B0ABDEC048BBE
:100A9000BDE8704003F0F4BCBDEC048B70BD0000F9
:100AA0000000FA4400007A460000964400004842E4
:100AB000CDCC4C3E00002042506200086F12033B38
:100AC0009A9939409A9939C008B540F2651004F0F6
:100AD0002BFC2248FFF778FF204C214E01251F48B0
:100AE00003F00CFC1D4841790279914214D011B1F8
:100AF00042B1012903D0012A09D002290BD0022AD0
:100B000005D008E09FED170A80ED660A03E090ED3E
:100B10006C0A80ED670A4271104803F0B1FC0F487F
:100B200003F0EAFD0D4803F013FC00950023327A30
:100B30000121184604F0A8FB04F03AFBB4F9540074
:100B40000090B4F94030B4F92C20B4F9181000200A
:100B500004F0BCFE022004F0A7FFC0E778440020A8
:100B60009846002000000000014800F00BBC000087
:100B7000BC05002001681823CAB2103AB2FBF3F298
:100B8000054B6FF30901032A9B5CC36500D9091D5E
:100B900081650846704700003062000810B50146C4
:100BA00000208B698A6A4FF0C07453B1B3F5005FBF
:100BB00015D072B1012A0CD0022A0AD0032A09D119
:100BC00004E01AB1012A06D0022A03D1C96AC90178
:100BD00000D5012010BDC96AA142FAD010BD002A7B
:100BE000F7D0012AF2D0022AF3D0032AF3D010BDA5
:100BF00030B50468256825F48025256004686360A5
:100C00008368402B036803D099600068C26030BDE0
:100C10009A600068C16030BD704770470A2004F0D8
:100C200083FBFBE790F82020012A07D0022A05D099
:100C3000416A41F4802141620120704700684269A5
:100C40000A43426100207047F0B590F820500468D4
:100C5000A468012D05D0022D03D0416A41F4802102
:100C600053E014F0406F01D1E5004BD5C4F30164AB
:100C7000022C03D9416A41F4000146E00125A54058
:100C80001D608D684FF4C0739DB1CE6835434E68CA
:100C900045EAC605066803EB0417F5514FF4C27523
:100CA000076805EB04150E697E51097D012905D001
:100CB00009E00E88CD6845EA4655EBE701684E59D4
:100CC00046F480764E511179D2F805504FF4C6762D
:100CD00041EA0525016806EB04168D511178D2F81A
:100CE00001204FF4C47541EA0221026805EB0415A6
:100CF0005151006803EB0411425842F00102425086
:100D00000020F0BD416A41F4001141620120F0BDB4
:100D100010B590F82020012A07D0022A05D0416A98
:100D200041F480214162012010BD3B48D0F80022EF
:100D300042F00102C0F80022D0F8002222F47C52D6
:100D4000C0F80022D0F800224B6A42EA0322C0F821
:100D500000220A7D02F01F0301229A40D0F81C32C3
:100D60009343C0F81C32CB69B3B9D0F80C3293432B
:100D7000C0F80C328C894B6864F31F434C6900EB5C
:100D8000C404C4F840320C890B6864F31F434C69F7
:100D900000EBC404C4F84432CB69012B16D1D0F85F
:100DA0000C321343C0F80C320C884B6864F31F43B9
:100DB0004C6900EBC404C4F840320C89CB6864F37E
:100DC0001F434C6900EBC404C4F844328B69002B08
:100DD000D0F804320ED01343C0F804320B69002B54
:100DE000D0F8143208D01343C0F81432096A01292C
:100DF00004D008E09343EFE79343F5E7D0F81C12E3
:100E00001143C0F81C12D0F8001221F00101C0F803
:100E10000012002010BD000000640040704730B593
:100E200090F82040012C05D0022C03D0416A41F4F7
:100E300080215DE00468002955D02469A40754D0BE
:100E40004FF4D874056804EB01142D5915F004050E
:100E5000956005682D594ED0ED08556005682C59F0
:100E6000C4F34004D4604FF4DA74056804EB011451
:100E70002D5905F00F05156105682D59C5F3072596
:100E8000956105682C59240C54614FF4DC72046898
:100E900002EB0112A4581C700468A458240A5C7068
:100EA0000468A458240C9C700468A258120EDA70CE
:100EB0004FF4DE72046802EB0112A4581C7104683E
:100EC000A458240A5C710468A458240C9C7104681A
:100ED000A258120EDA71006881B1016941F0200157
:100EE0000161002030BDE468A8E7416A41F40011C7
:100EF0004162012030BD6D0D1560AFE7C16841F062
:100F00002001C160EDE72DE9F05F0546006800248F
:100F10004669D0F804908768D0F80CB0D0F810A0DB
:100F2000D0F81880F10748D0F90714D0012181606A
:100F3000B80703D5284600F01EFA0CE0780702D562
:100F40004FF4006407E0380702D54FF4805402E004
:100F5000284600F00FFAF80516D529684FF480707E
:100F60008860B80503D5284600F007FA0CE078053C
:100F700002D544F4005407E0380502D544F4804417
:100F800002E0284600F0F8F9F80316D529684FF476
:100F900080308860B80303D5284600F0F0F90CE0F3
:100FA000780302D544F4004407E0380302D544F442
:100FB000803402E0284600F0E1F9300707D55FEA07
:100FC000CB6004D52968102044F40074C860700711
:100FD0004FF0080707D55FEA0B7004D52868C76093
:100FE000284600F05FF9B00706D52868C06880077A
:100FF00002D0284600F058F9700607D55FEACA60AB
:1010000004D52968102044F480640861B00607D52F
:101010005FEA0A7004D528680761284600F07AF96B
:10102000F00606D528680069800702D0284600F03F
:1010300072F9B00308D55FEAC96005D529681020A8
:101040004860284600F068F9F00307D55FEA0970A8
:1010500004D528684760284600F092F9300446D548
:101060005FEA497040D5F00504D55FEAC87001D049
:1010700044F00104B00504D55FEA887001D544F05E
:101080000204700504D55FEA487001D544F00404F9
:10109000300529D518F0700F26D008F070004028D0
:1010A00015D006DC102809D020280AD0302816D107
:1010B0000AE050280ED0602811D10EE044F0080458
:1010C0000DE044F010040AE044F0200407E044F08E
:1010D000400404E044F0800401E044F48074286893
:1010E000816921F070018161296804204860002C29
:1010F00005D0686A204368622846FFF78FFEBDE886
:10110000F09F70B5040003D094F8200010B104E003
:10111000012070BD204600F081F82068016821F0B0
:101120000201016000F08AFB0546052604E000F09C
:1011300085FB401B0A2811D8206840688007F6D438
:101140002068016841F00101016000F077FB05466D
:101150000BE000F073FB401B0A2806D9606A40F4DC
:101160000030606284F82060D2E720684068C007E1
:10117000EFD0207E0128206801683DD021F0800159
:101180000160607E01282068016838D021F04001AC
:101190000160A07E01282068016833D021F0200181
:1011A0000160E07E0128206801682ED041F0100126
:1011B0000160207F01282068016829D021F0080102
:1011C0000160607F01282068016824D021F00401BB
:1011D0000160D4E902010843D4E904121143084331
:1011E0006168491E08432168C861002060620120CF
:1011F00084F82000002070BD41F08001C0E741F07C
:101200004001C5E741F02001CAE721F01001CFE716
:1012100041F00801D4E741F00401D9E710B586B0E8
:10122000044614216846FFF7D1F81B49206888421C
:101230002FD11A480021026842F000720260006853
:1012400000F00070059015481038026842F008025E
:1012500002600068022200F0080005900320CDE93A
:101260000210CDE900020920049069460C4800F004
:10127000F9F900220C21132000F052FB132000F09A
:1012800041FB00220C21142000F04AFB142000F046
:1012900039FB06B010BD0000006400404038024039
:1012A000000C02407047000000B5184A016889B080
:1012B000914204D107AB6A460021FFF7B0FD0099C7
:1012C0001348A1F20121072917D20288C9B2521C82
:1012D0000280C1EBC103BDF81C20811C01EB43015E
:1012E00052BA8A80BDF81E2052BACA80BDF82020AA
:1012F00052BA4A819DF822200A730188B1F5FA7F1B
:1013000001D10021018009B000BD0000006400404F
:10131000B0000020704770477047000070B5044669
:1013200090F82000012804D0606A40F40020606238
:1013300018E0022084F820002068016821F00101F3
:10134000016000F07BFA05460EE000BF00F076FA7F
:10135000401B0A2808D9606A40F40030606205200A
:1013600084F82000012070BD20684068C007EDD1DE
:10137000606270BD70477047704770477047704734
:10138000704700002DE9F84304464FF00009CDF8FE
:10139000009063484FF41651A56D0068B0FBF1F75B
:1013A0002E6894F85C10082000FA01F131420FD049
:1013B00021680A6852070BD50A6822F004020A6005
:1013C00094F85C108840A860606D40F00100606592
:1013D00094F85C104FF0010808FA01F0304208D090
:1013E00021684969090604D5A860606D40F00200D3
:1013F000606594F85C1004208840304208D0216871
:101400000968890704D5A860606D40F00400606534
:1014100094F85C1010208840304218D02168096888
:10142000090714D5A86020680168490304D500683D
:10143000000308D5A16C07E00168C90503D4016861
:1014400021F008010160216C09B12046884794F819
:101450005C1020208840304231D021680968C906DC
:101460002DD5A86094F8350005282068016806D0BD
:10147000490347D5006800031DD4616C1CE021F0CE
:10148000160101602068416921F080014161206CF2
:1014900008B9A06C20B12068016821F00801016042
:1014A00094F85C103F208840A86084F8349084F859
:1014B0003580216D1FE0E16B09B120468847606DE2
:1014C00000282BD0606DC00714D0052084F83500AB
:1014D0002068016821F0010101600098401C009023
:1014E000B84203D820680068C007F6D184F8349069
:1014F00084F83580E16C002910D001B02046BDE8A9
:10150000F04308470168C905D5D4016821F01001EE
:10151000016084F8349084F83580CCE7BDE8F88326
:10152000300000202DE9F041044600F087F906461E
:101530005CB1002584F83450022084F8350020681E
:10154000016821F0010101600DE00120BDE8F0819A
:1015500000F074F9801B052805D920206065032060
:1015600084F83500F2E720680068C007F0D12268EF
:10157000116820480140D4E901031843D4E9033637
:101580003343184363691843A3691843E369184355
:10159000236A18430843616A042903D1D4E90B1371
:1015A00019430843106020684069666A20F007010B
:1015B00030460E43012704280CD1A06A0643E06A96
:1015C00040B12046FFF7EAFA20B14020606584F878
:1015D0003570BAE7206846612046FFF7CBFA94F8E9
:1015E0005C203F2191408160656584F83570002062
:1015F000ACE700003F8010F070B5044690F834006E
:10160000002501280CD0012084F8340094F83560BE
:101610000020012E06D084F834000225284670BD33
:10162000022070BD022684F8356060652046FFF711
:10163000DFFA2068016841F001010160EEE7000077
:1016400070B5044600F0FAF80546601C02D0044864
:101650000078044400F0F2F8401BA042FAD370BDB9
:10166000240000202DE9F84FDFF890B100224FF060
:1016700001084FF0030A4FF00F090BF1040E00BFF1
:101680000B6808FA02F42340A3426ED14D68022D84
:1016900001D0122D0ED1D50800EB850CDCF82050BE
:1016A0005607F70E09FA07F6B5430E69BE402E43FA
:1016B000CCF82060066855000F790AFA05FC07F09F
:1016C000030726EA0C06AF40374307604E68012E39
:1016D00005D0022E03D0112E01D0122E0ED1876814
:1016E000CE6827EA0C07AE403E4386604668A643B4
:1016F0000C79C4F30014944034434460C4688E6889
:1017000024EA0C04AE402643C6604C68E4006FD562
:101710003B4C256845F480452560246822F003058C
:1017200004F480440094374C2E19D6F808489507E5
:101730002F0F09FA07F5AC43334DA84201D100251C
:101740002EE0324DA84201D1012529E0304DA842BA
:1017500001D1022524E02F4DA84201D103251FE02D
:101760002D4DA84202D104251AE041E02B4DA8429C
:1017700001D1052514E02A4DA84201D106250FE02C
:10178000284DA84201D107250AE0274DA84201D1E2
:10179000082505E0254DA84201D1092500E00A25CC
:1017A000BD402543C6F80858DBF800405D464E684A
:1017B0009C43F60300D51C432C60DEF800407546C0
:1017C0004E689C43B60300D51C432C600B4D083576
:1017D0002C684E689C43F60200D51C432C60074DD4
:1017E0000C352C684E689C43B60200D51C432C6017
:1017F000521C102AFFF444AFBDE8F88F003C0140B2
:101800004438024000300140000002400004024021
:1018100000080240000C0240001002400014024088
:1018200000180240001C0240002002400024024038
:101830000AB1816170470904FBE700000148806834
:10184000704700002400002002488168027811449B
:1018500081607047240000200B4810B5016841F4F6
:1018600000710160016841F480610160016841F428
:1018700080710160032000F073F80F2000F006F87B
:1018800000F024F8002010BD003C024070B50D4D62
:1018900004464FF47A712878B1FBF0F00A490968E0
:1018A000B1FBF0F000F02BFD48B9102C07D200225C
:1018B0002146501E00F034F800206C6070BD0120FD
:1018C00070BD000024000020300000200C4882B0D1
:1018D000016841F480410160006800F4804000909C
:1018E0000748001F016841F0805101600068002234
:1018F00000F0805000900F21901E02B000F010B850
:1019000044380240002809DB00F01F020121914009
:101910004009800000F1E020C0F80011704700008D
:10192000F0B40E4B1B680C46C3F30223C3F107054A
:10193000042D00D90425191D072901D2002300E038
:10194000DB1E012606FA05F1491E214099409E4002
:10195000761E16403143F0BC01F0B2BF0CED00E042
:10196000064900F0070208684FF6FF03184040EAF6
:101970000220034A10430860704700000CED00E0AD
:101980000000FA052DE9F0470E46050065D0DFF8A6
:101990001481D8F80000F7B200F00F00B04207D26F
:1019A00088F80070D8F8000000F00F00B04254D161
:1019B00028683D4C810712D5400703D5206840F4C4
:1019C000E05020602878000703D5206840F460408C
:1019D00020602068A96820F0F00008432060287883
:1019E000C0072DD0304968680839012812D0022874
:1019F00013D0032811D00968890700292DDA21683E
:101A000021F0030101432160FFF718FF814641F2F5
:101A1000883A0EE009688903EFE709688901ECE775
:101A2000FFF70CFFA0EB0901514502D90320BDE8E7
:101A3000F0872068696800F00C00B0EB810FEFD1EF
:101A4000D8F80010404601F00F01B14207D90770E5
:101A5000006800F00F00B04201D00120E7E72878CD
:101A6000400705D52068E96820F4E050084320606D
:101A70002878000706D52068296920F4604040EAEC
:101A8000C100206000F036F82168084AC1F3031154
:101A9000515CC840064908600F20FFF7F7FE0020A0
:101AA000C5E70000003C02400838024038620008E8
:101AB000300000200448054900680968044AC1F361
:101AC0008221515CC8407047300000200838024035
:101AD000486200080448054900680968044AC1F3DF
:101AE0004231515CC8407047300000200838024045
:101AF00048620008154810B5006810F00C02144840
:101B000013D01449042A0FD0082A0ED10F4C241FD9
:101B10002268236802F03F025B0207D52068C0F309
:101B20008810A0FB010106E0084610BD2168C1F342
:101B30008811A1FB00010023FEF7FEFB2168C1F321
:101B40000141491C4900B0FBF1F010BD08380240CA
:101B50000024F400001BB7002DE9F84F050076D0F3
:101B60002878DFF8F8B2BE4CC00749D0DBF8001087
:101B70005846C1F38101012908D00068C0F38100F3
:101B800002280AD1201D0068400206D52068800383
:101B900036D568680028E2D032E06868B0F5803F4A
:101BA00010D0B0F5A02F206810D020F48030206035
:101BB000206820F4802020606868A0B1FFF73EFE16
:101BC00006460CE0206840F48030F4E740F48020C2
:101BD0002060F7E7FFF732FE801B642873D8206887
:101BE0008003F7D50CE0FFF729FE064605E000BFAD
:101BF000FFF724FE801B6428F0D820688003F7D408
:101C00002878DFF8608280074FF000093ED5DBF8C6
:101C10000010584611F00C0F09D00068C0F3810085
:101C200002280BD18D48001F0068400206D42068AE
:101C3000800715D5E868012809D111E0E868B8B136
:101C40000120C8F80000FFF7F9FD064605E002E1B3
:101C5000FFF7F4FD801B0228C0D820688007F7D565
:101C60002068296920F0F80040EAC10020600DE0FA
:101C7000C8F80090FFF7E2FD064604E0FFF7DEFD3E
:101C8000801B02281FD820688007F7D42878000717
:101C900022D5724E744869696C3671B101210160B8
:101CA000FFF7CCFD074604E0FFF7C8FDC01B022884
:101CB00009D830688007F7D50EE0C0F80090FFF72C
:101CC000BDFD074605E083E0FFF7B8FDC01B022815
:101CD0007ED830688007F7D42878400768D5DFF8C9
:101CE0007CA100270AF1380ADAF80000C0000BD402
:101CF000DAF8001041F08051CAF80010DAF800005C
:101D0000012700F080500090584E3068C00510D474
:101D1000306840F480703060FFF790FD009005E07F
:101D2000FFF78CFD0099401A022851D83068C00591
:101D3000F6D54A4EA868683601280FD005283068C5
:101D400010D020F001003060306820F004003060D6
:101D5000A868B8B1FFF772FD00900FE0306840F05E
:101D60000100F4E740F004003060F7E7FFF766FD9C
:101D70000099411A41F28830814264D83068800766
:101D8000F4D50EE0FFF75AFD009007E0FFF756FD8F
:101D90000099411A41F28830814254D83068800756
:101DA000F4D42FB1DAF8001021F08051CAF80010F5
:101DB000A869C0B3DBF80010C1F3810102294AD041
:101DC0000228484607D0C8F86000FFF737FD00E05A
:101DD00039E005463AE04746C8F86000FFF72EFDB7
:101DE000064604E0FFF72AFD801B02282BD8206856
:101DF0008001F7D4D5E907010843A96A1C4A4908BC
:101E000002EB01416A6A41EA8211084395F82C10FD
:101E100040EA01611148001F016001203866FFF7A8
:101E20000DFD054605E014E0FFF708FD401B022804
:101E300009D820688001F7D50BE000BFFFF7FEFC52
:101E4000401B022802D90320BDE8F88F20688001DA
:101E5000F4D40020F8E70120F6E70000083802403B
:101E60000038024000004742800E474200700040A8
:101E70000000FFFF70B5040005D00025A56294F8AE
:101E8000510010B106E0012070BD84F8505020468A
:101E900000F030F8022084F851002068016821F039
:101EA00040010160D4E901010843D4E90312114360
:101EB000084361690843218B01F400710843E1691B
:101EC0000843216A0843A16A084321680860A069A1
:101ED000042101EA1040616A0843216848602068D3
:101EE000C16921F40061C1616565012084F8510078
:101EF000002070BDF0B587B0044614216846FEF797
:101F000065FA2A48284B22680024284914380225FB
:101F1000032605279A4227D10A6842F480520A60B4
:101F2000096801F480510591016841F002010160E6
:101F3000016801F002010591016841F001010160B1
:101F4000006802AA00F0010005900820CDE9000514
:101F500082E8D00069461648FFF784FB8020CDE96F
:101F600000056946134818E0134B9A421AD10A68D3
:101F700042F480120A60096801F480110591016839
:101F800041F0200101600068694600F020000590E2
:101F90004FF46070CDE90005084802AA82E8D0003D
:101FA000FFF760FB07B0F0BD00300140443802404D
:101FB00000040240000002400050014000140240B2
:101FC0002DE9F84F044690F8500000271D461646AC
:101FD000894601280DD04FF0010B84F850B0FFF76F
:101FE0002DFC804694F85100BA46012804D00227FF
:101FF0008EE00220BDE8F88FB9F1000F7DD0002EF1
:102000007BD0032084F85100C4F854A0C4F8309069
:10201000A686E686C4F838A0A4F83CA0A4F83EA0A2
:10202000C4F844A0C4F840A0A068B0F5004F04D1A3
:102030002068016841F48041016020680168490618
:1020400003D4016841F040010160E068B0F5006F21
:10205000606803D030B3012E24D040E008B1012ED7
:102060001CD1206B21680088C86006E02068816868
:10207000890709D5216B0988C160206B801C20630A
:10208000E08E401EE08609E0FFF7D8FBA0EB0800D9
:10209000A84202D3681C01D031E07DB3E08E002855
:1020A000E4D11FE0206B21680078087306E0206807
:1020B0008168890709D5216B09780173206B401C61
:1020C0002063E08E401EE08609E0FFF7B7FBA0EB3F
:1020D0000800A84202D3681C01D010E075B1E08E60
:1020E0000028E4D142462946204600F053FF08B1BB
:1020F00020206065A06820B107E008E0FFE7032723
:1021000006E02068C16880680090606D00B101271A
:1021100084F851B084F850A038466BE72DE9F84FA9
:10212000044690F8500000270A9E1D4692468B46B2
:102130004FF0010901280ED0012084F85000FFF76C
:102140007DFB804694F85100616801280CD0B1F500
:10215000827F07D102E00220BDE8F88FA16809B9AB
:10216000042801D00227C2E0BBF1000F27D0BAF14A
:10217000000F24D01DB394F85100042802D005208C
:1021800084F8510000206065C4F838A0E587A58771
:10219000C4F830B0E586A5862064606420680168D4
:1021A000490603D4016841F040010160E068B0F5E0
:1021B000006F606805D0E8B3012D46D07FE00127AD
:1021C00095E008B1012D39D1206B21680088C860E5
:1021D000206B801C2063E08E401EE0862EE020688D
:1021E000816889070FD5E18E69B1B9F1010F0AD174
:1021F000216B0988C160206B801C2063E08E401E2B
:10220000E0864FF0000920688168C9070CD0E18F93
:1022100051B1C068A16B0880A06B801CA063E08FE7
:10222000401EE0874FF00109FFF708FBA0EB080014
:10223000B04200E009E001D3701C50D1E08E0028CC
:10224000CDD1E08F0028CAD13FE0206B2168007813
:102250000873206B401C2063E08E401EE0862EE059
:102260002068816889070FD5E18E69B1B9F1010F46
:102270000AD1216B09780173206B401C2063E08E2A
:10228000401EE0864FF0000920688168C9070CD025
:10229000E18F51B1C068A16B0870A06B401CA063B6
:1022A000E08F401EE0874FF00109FFF7C7FAA0EB6F
:1022B0000800B04202D3701C01D010E07EB1E08E65
:1022C0000028CDD1E08F0028CAD1424631462046B1
:1022D00000F060FE28B101272020606507E0032799
:1022E00005E0A06818B92068C168806800900120E6
:1022F00084F85100002084F8500038462CE710B5CF
:10230000401EB0F1807F01D3012010BD4FF0E024CA
:1023100060610F21601701F0D3FA0020A06107204F
:102320002061002010BD7047704770B590F83C20C8
:10233000012A19D0012400F83C4F0222427050F8C3
:102340003C3C5A689D6822F070060A68496832432E
:1023500025F0800529435A6050F83C2C9160447068
:1023600000210170084670BD022070BD10B5040048
:1023700003D094F83D0010B107E0012010BD00200B
:1023800084F83C00204600F00DF8022084F83D005F
:10239000211D206800F058FF012084F83D00002036
:1023A00010BD000008B500680B49884212D10B48E7
:1023B000016841F0040101600068002200F004009F
:1023C000009005211E20FFF7ABFABDE808401E2053
:1023D000FFF798BA08BD00000008004040380240EE
:1023E00070B5044690F83C00012817D0012584F808
:1023F0003C50022084F83D002068826822F0770279
:1024000022F47F4282600868502830D00DDC2028FA
:102410004DD005DC98B310283BD148E0022070BDB8
:10242000302844D0402834D139E0602828D07028A2
:1024300006D0B0F5805F2CD0B0F5005F29D10AE05E
:10244000CB68D1E90121206800F062FF2068816833
:1024500041F0770109E0CB68D1E90121206800F063
:1024600057FF2068816841F48041816011E0CA68AB
:102470004968206801F020F85021206807E016E044
:10248000CA684968206801F028F86021206800F0D7
:1024900049FF84F83D50002084F83C0070BDCA68B4
:1024A0004968206801F008F840212068EFE72268B9
:1024B00001461046EBE7704770B5044600680169B5
:1024C0004FF00005C943890715D4C168C94389077E
:1024D00011D4E91E016101202077206880698007FE
:1024E000204602D0FFF7E7FF04E000F0C3F82046E3
:1024F00000F058F9257720680169C943490717D4C6
:10250000C168C943490713D46FF004010161022077
:1025100020772068806910F4407F204602D0FFF7C2
:10252000CAFF04E000F0A6F8204600F03BF925774A
:1025300020680169C943090716D4C168C94309075E
:1025400012D46FF008010161042020772068C0696F
:102550008007204602D0FFF7AEFF04E000F08AF8C3
:10256000204600F01FF9257720680169C943C90694
:1025700017D4C168C943C90613D46FF010010161B3
:10258000082020772068C06910F4407F204602D0E0
:10259000FFF791FF04E000F06DF8204600F002F92B
:1025A000257720680169C943C90708D1C168C943B3
:1025B000C90704D1891E0161204600F0F4F82068A3
:1025C0000169C943090609D4C168C943090605D48C
:1025D0006FF0800101612046FFF7A5FE20680169C8
:1025E000C943490609D4C168C943490605D46FF0F7
:1025F00040010161204600F0D7F820680169C94315
:1026000089060BD4C168C943890607D46FF020013D
:1026100001612046BDE87040FFF786BE70BD000036
:1026200010B586B0044614216846FDF7CFFE0E496A
:102630002068884215D10D480021026842F002024C
:102640000260006800F00200059020200090022047
:10265000CDE901010321CDE9031069460448FFF7E4
:1026600001F806B010BD0000000400403038024000
:1026700000040240704770B5044690F83C000D46D7
:1026800001280DD0012684F83C60022084F83D002A
:1026900042B1042A18D0082A2AD00C2A4DD139E098
:1026A000022070BD206800F045FE2068816941F07D
:1026B000080181612068816921F00401816120683D
:1026C00081692A69114311E0206800F063FE2068E7
:1026D000816941F4006181612068816921F4806130
:1026E0008161206881692A6941EA0221816124E0CF
:1026F000206800F085FE2068C16941F00801C161D1
:102700002068C16921F00401C1612068C1692A699A
:10271000114311E0206800F0A7FE2068C16941F470
:102720000061C1612068C16921F48061C1612068D4
:10273000C1692A6941EA0221C16184F83D60002033
:1027400084F83C0070BD10B5040003D094F83D003F
:1027500010B107E0012010BD002084F83C002046A5
:1027600000F00CF8022084F83D00211D206800F0E4
:102770006BFD012084F83D00002010BD08B5006805
:102780000649884208D10648016841F0020101600B
:10279000006800F00200009008BD00000004004046
:1027A00040380240704770477047000030B40168FD
:1027B0000A68D2065ED50A684968416B304A0968E2
:1027C00091420AD02F4A914207D02D4A603291425D
:1027D00003D02C4A6032914201D1202222E0284BC2
:1027E0001833DA1499421DD0264B1833994219D068
:1027F000234B7833994215D0224B7833994211D02C
:102800001F4B9202303399420CD01E4B3033994209
:1028100008D01B4B9033994204D01A4B9033994205
:1028200000D092010B6823F001030B60416B154B44
:1028300009684833994202D91249091F05E0104B33
:10284000A833994203D90F4908390A6008E00C4CB3
:102850000B4B4834103BA14201D9DA6000E09A608A
:10286000426B818D12685160416B09680A6842F0C1
:1028700001020A60816A30BC0348FEF75BB80000C1
:1028800010600240106402409846002070B50400B9
:1028900004D094F83900002510B106E0012070BD85
:1028A00084F83850204600F023F8242084F83900BA
:1028B0002068C16821F40051C160204600F060FE2C
:1028C0002068016921F4904101612068416921F08B
:1028D0002A0141612068C16841F40051C160E5638B
:1028E000202084F8390084F83A00002070BD0000F0
:1028F000F0B587B0064614216846FDF767FD3349F9
:10290000DFF8C4C03768002530481439022201239B
:102910000324674539D1076847F01007076000684E
:1029200000F010000590086840F002000860086898
:10293000694600F002000590C0208DE81D000720C8
:1029400004902348FEF78EFE234C224820604FF06F
:102950000060C4E901054014C4E903506561A56144
:10296000E561256220466562FEF7DCFD08B1FEF7F1
:1029700054F97463002206212520A663FEF7D0FFD8
:102980002520FEF7BFFF07B0F0BD144DAF42FAD1CE
:10299000056845F020050560006800F020000590FE
:1029A000086840F0400008600868694600F0400090
:1029B00005904FF484408DE81D00082004900848DD
:1029C000FEF750FEDFE700000010014044380240EF
:1029D0000004024040640240BC0500200014014095
:1029E0000018024030B40368DC6844F01004DC6076
:1029F00030BC00F088BD2DE9F843044690F839005A
:102A00001F4616460D46202850D1A5B19EB194F818
:102A1000380001284AD0012084F838004FF000081F
:102A2000C4F83C80212084F83900FEF707FFA68413
:102A30008146E68426E00120BDE8F883E08C401E54
:102A4000E084A0684B46B0F5805F4FF000024FF085
:102A500080012046009703D000F0E8FEE8B90DE0C1
:102A600000F0E4FEC8B928882168C0F30800486077
:102A7000206908B16D1C05E0AD1C03E0216815F864
:102A8000010B4860E08C0028D8D14B460022402141
:102A90002046009700F0CAFE08B10320CCE72020B2
:102AA00084F8390084F838800020C5E70220C3E7A5
:102AB000FEE700002DED048B1EA000F0F1FE02F0F9
:102AC000E5FA002002F09EFA02F06AFA0A2002F00B
:102AD0002BFC00F045F81C4D9FED1C8ADFED1C8A95
:102AE0009FED1C9ADFED1C9A002400BF04EB8400CC
:102AF00000EBC40005EB8000B0EE482AF0EE681A47
:102B0000B0EE491AF0EE690AB7EE080A02F095FC39
:102B1000641CE4B2072CE9D3002002F073FA02F03F
:102B200047FB0E4C206803F0B1F8012002F0FCFBDB
:102B3000F8E70000496E20496E697469616C5F5462
:102B400061736B0D0A0000000C43002000008046FA
:102B500000409C4500000000CDCCCC3D080000208A
:102B600010B502F0C7F8BDE8104001F0CBBE000080
:102B70000F4810B50D4901600321416000214FF459
:102B800000228160C0E903124FF4401242610176D5
:102B900041768176C17601774177FEF7B2FA002857
:102BA00003D0BDE81040FEF738B810BD0064004007
:102BB00084010020094808B5016841F480010160E2
:102BC0000068002200F48000009005213A20FEF702
:102BD000A7FEBDE808403A20FEF794BE3038024018
:102BE00000B587B01C2207496846FDF7D6FB0021D7
:102BF000684602F0A7FB0449486004A000F050FEBC
:102C000007B000BD506100080000002045766572E5
:102C1000797468696E6720697320726561647921CF
:102C20000A537461727420746F2066696768742136
:102C3000212121210A0000002DE9F04387B0142151
:102C40006846FDF7C3FB3A480024016841F00201E1
:102C50000160016801F002010591016841F0400145
:102C60000160016801F040010591016841F0010136
:102C70000160016801F001010591016841F008015E
:102C80000160016801F008010591016841F08001CF
:102C90000160016801F080010591016841F02001A7
:102CA0000160016801F020010591016841F0100107
:102CB000016000681F4F00F010004FF4C0650590E0
:102CC000002229463846FEF7B3FDDFF86C8001226A
:102CD00040214046FEF7ACFDDFF86090FE14002274
:102CE00031464846FEF7A4FD0022F1004046FEF7BB
:102CF0009FFD00950125CDE90154694638460394AE
:102D0000FEF7B0FC44F240000090CDE90154694662
:102D100040460394FEF7A6FC0096CDE901546946AF
:102D200048460394FEF79EFC07B0BDE8F083000020
:102D300030380240000402400014024000100240FB
:102D4000114810B50F4901604FF4827141604FF492
:102D5000004181600021C1604FF400720161C0E94F
:102D600005122022C0E90721416281620A21C16265
:102D7000FFF780F8002803D0BDE81040FDF74DBFF5
:102D800010BD0000003001400C040020104810B5B8
:102D90000E4901604FF48271416000218160C16081
:102DA0004FF400720161C0E905123022C0E9072129
:102DB000416281620A21C162FFF75CF8002803D0FA
:102DC000BDE81040FDF729BF10BD000000500140D4
:102DD0006404002010B58AB0002407941C216846C2
:102DE0000894FDF7F3FA1648144901600921C0E977
:102DF000011441F26701C0E903148461FFF7A3FCE9
:102E000008B1FDF70AFF079407A90D480894FFF7DA
:102E10008CFA08B1FDF701FF6020CDE900040294AF
:102E20000422694606480494FFF725FC08B1FDF723
:102E3000F4FE0348FFF7F4FB0AB010BD00040040A5
:102E4000BC04002010B586B00024174800940194FB
:102E50000294039404941349059401606321C0E92A
:102E6000011440F24731C0E9031480218161FFF76A
:102E70007DFA08B1FDF7D1FE4FF48050009069460D
:102E80000948FFF7ADFA08B1FDF7C7FE049404A99D
:102E900005480594FFF749FA002801D0FDF7BDFE6B
:102EA00006B010BD00080040FC0400200C4810B51E
:102EB0000A4901600B494160002181600C22C16018
:102EC000C0E904128161C161FFF7E0FC002803D072
:102ED000BDE81040FDF7A1BE10BD0000001001408C
:102EE0003C050020A08601000C4810B50A4901608D
:102EF0004FF4E1314160002181600C22C160C0E9E2
:102F000004128161C161FFF7C1FC002803D0BDE854
:102F10001040FDF782BE10BD001401407C0500206A
:102F2000FEE77047012002F0FFF9FBE7154D164C54
:102F300003F042F820602968401A0528E0680ED99D
:102F400002F0A4FE206902F0A1FE206A02F09EFEBB
:102F5000A06902F09BFEE06902F022FE0DE002F0A3
:102F60001FFE206902F01CFE206A02F019FEA06913
:102F700002F016FEE06902F089FE3221024802F0FA
:102F8000DAF9D5E71401002000000020012002F04A
:102F9000CBF9FBE738B504461248134B0068B0FB89
:102FA000F3F04FF47A73584300906068B0F5827F75
:102FB0000DD10B46009200228021204600F016F829
:102FC00070B1606D40F020006065032038BD00984E
:102FD00030B1401E009020688068C0430006F6D5DE
:102FE000002038BD3000002000366E012DE9F04190
:102FF0001D4617460E460446DDF8188008E0681C9A
:1030000006D0FEF71BFCA0EB0800A8420BD255B17E
:103010002068806836EA000030D00020B842EED147
:103020000020BDE8F0812068416821F0E0014160A6
:103030006068B0F5827F0BD1A068B0F5004F02D078
:10304000B0F5806F04D12068016821F04001016073
:10305000A06AB0F5005F09D12068016821F4005131
:1030600001602068016841F400510160012084F88A
:103070005100002084F850000320D2E70120CDE762
:10308000B2B002F09DFC1C222A496846FDF785F982
:103090000021684602F056F9274C26491C22A06000
:1030A0001C3107A8FDF779F9002107A802F04AF9B9
:1030B0002049E0601C2238310EA8FDF76EF900218E
:1030C0000EA802F03FF91B4920611C22543115A8BB
:1030D000FDF763F9002115A802F034F915492062C3
:1030E0001C2270311CA8FDF758F900211CA802F021
:1030F00029F91049A0611C228C3123A8FDF74DF954
:10310000002123A802F01EF90A49E0611C22A8311F
:103110002AA8FDF742F900212AA802F013F96061FC
:10312000606802F0E7FC02F06BFC012002F0FCF8A2
:10313000FBE700006C6100080000002010B5FEF7FE
:1031400083FB02F02BFF012803D0BDE8104002F002
:10315000B7BE10BD30B593B030216846FDF736F9E3
:1031600014210CA8FDF732F919480025016841F037
:1031700080510160006800F080501190154801688E
:1031800041F4404101600068022400F44040119085
:1031900001200090000401908001CDE90640062046
:1031A0000890A820CDE9090404200B906846FEF79A
:1031B000D3FC0CA90F2081E831004FF4A0500F90F0
:1031C000E002109005210CA8FEF7DCFB13B030BD27
:1031D00040380240007000401048016841F470011E
:1031E00001600F48016841F0010101600C4A0021B3
:1031F0000832116002680B4B1A400260031D0A4A34
:103200001A60026822F48022026005480C300160D6
:1032100002495806803908607047000088ED00E0D8
:1032200000380240FFFFF6FE1030002410B50448BD
:10323000FFF742F903480168491C016010BD000016
:10324000FC0400209C000020F0B50268254C264DAF
:10325000264E274F274B4FF0804CA04209D06045A7
:1032600007D0A84205D0B04203D0B84201D098425E
:1032700004D122F0700E4A6842EA0E02A0421BD02E
:10328000604519D0A84217D0B04215D0B84213D02B
:10329000984211D0184DA8420ED0184DA8420BD01C
:1032A000174DA84208D0174DA84205D0164DA84288
:1032B00002D0164DA84203D122F44075CA682A43B1
:1032C0004D6922F080022A4302608A68C2620A685D
:1032D0008262A04201D0984201D1096901630121B3
:1032E0004161F0BD000001400004004000080040C2
:1032F000000C004000040140004001400044014037
:103300000048014000180040001C00400020004020
:1033100010B5846842EA032224F47F440A4322431E
:10332000826010BD826822F070020A4342F00701F9
:1033300081607047F0B5026A22F001020262036AFE
:1033400042688469124E24F073050C682C4323F004
:1033500002058B682B430D4DA84201D0B04205D128
:1033600023F00807CB683B4323F00403A84201D0B5
:10337000B04205D14D6922F4407215438A692A434F
:1033800042608461496841630362F0BD000001400E
:1033900000040140F0B5026A22F010020262026AE3
:1033A000436884690D6824F4E64444EA05248D6882
:1033B00022F0200242EA05120F4D104EA84201D021
:1033C000B04206D1CF6822F0800242EA071222F012
:1033D0004002A84201D0B04207D14D6923F44063B6
:1033E00043EA85038D6943EA850343608461496844
:1033F00081630262F0BD0000000001400004014052
:10340000F0B5026A22F480720262026A4368C469FB
:1034100022F4007224F073050C68124E2C438D6860
:1034200042EA05220E4DA84201D0B04206D1CF6833
:1034300022F4006242EA072222F48062A84201D00C
:10344000B04207D14D6923F4405343EA05138D6917
:1034500043EA05134360C4614968C1630262F0BD79
:10346000000001400004014030B5026A22F480529D
:103470000262046A4268C3690D6823F4E64343EAC2
:1034800005238D6824F4005444EA0534084DA8420D
:1034900002D0084DA84204D14D6922F4804242EA8C
:1034A00085124260C36149680164046230BD000056
:1034B000000001400004014010B5036A046A24F0D2
:1034C00001040462846924F0F00444EA021423F045
:1034D0000A020A438461026210BD10B5036A23F038
:1034E000100303628369046A23F4704343EA0232DF
:1034F00024F0A00343EA01118261016210BD0120A2
:1035000001F012FFFBE7F8B5044690F83A002028D6
:1035100033D179B372B394F8380001282DD001204B
:1035200084F83800A162A2850025E563222084F892
:103530003A00606B134605650846666B21680246D3
:103540003046091DFEF758F820680168416800916F
:1035500084F83850C16841F48071C16020684169C5
:1035600041F0010141612068416941F04001416140
:103570000020F8BDFFE70120FBE70220F9E700008B
:103580002DE9F041044600680169E26821F44051E8
:10359000114301612169A068E2690843616911432F
:1035A00022680843D16849F20C6399430143D16012
:1035B00020684169A26921F4407111434161E269C7
:1035C0006425B2F5004F9748974922684FF03208BA
:1035D0003FD08A4201D082427CD1FEF77BFA00EBD9
:1035E000C00101EB001061688900B0FBF1F6FEF745
:1035F00071FA00EBC00101EB001061688900B0FBBB
:10360000F1F0B0FBF5F06FF01801484306EB8001D4
:1036100008EB0110B0FBF5F000F0F006FEF75AFAE7
:1036200000EBC00101EB001061688900B0FBF1F014
:10363000B0FBF5F006EB0016FEF74CFA00EBC0010C
:1036400001EB001061688900B0FBF1F7FEF742FA68
:10365000D2E08A4201D082423DD1FEF73BFA00EB34
:10366000C00101EB001061684900B0FBF1F0B0FB54
:10367000F5F00601FEF72EFA00EBC00101EB001099
:1036800061684900B0FBF1F7FEF724FA00EBC001D6
:1036900001EB001061684900B0FBF1F0B0FBF5F000
:1036A0006FF01801484307EB800108EBC100B0FB45
:1036B000F5F000F0F80006EB4006FEF70BFA00EB21
:1036C000C00101EB001061684900B0FBF1F7FEF7A3
:1036D00001FA3CE055E0FEF7EDF900EBC00101EB2B
:1036E000001061684900B0FBF1F0B0FBF5F0060195
:1036F000FEF7E0F900EBC00101EB00106168490042
:10370000B0FBF1F7FEF7D6F900EBC00101EB0010BA
:1037100061684900B0FBF1F0B0FBF5F06FF0180103
:10372000484307EB800108EBC100B0FBF5F000F067
:10373000F80006EB4006FEF7BDF900EBC00101EB17
:10374000001061684900B0FBF1F7FEF7B3F900EB38
:10375000C00101EB001061684900B0FBF1F0B0FB63
:10376000F5F06FF01801484307EB800108EBC1004A
:10377000B0FBF5F000F00700216830448860BDE838
:10378000F081FEF797F900EBC00101EB00106168D2
:103790008900B0FBF1F6FEF78DF900EBC00101EBFB
:1037A000001061688900B0FBF1F0B0FBF5F06FF03C
:1037B0001801484306EB800108EB0110B0FBF5F05F
:1037C00000F0F006FEF776F900EBC00101EB001007
:1037D00061688900B0FBF1F0B0FBF5F006EB001674
:1037E000FEF768F900EBC00101EB00106168890089
:1037F000B0FBF1F7FEF75EF900EBC00101EB001042
:1038000061688900B0FBF1F0B0FBF5F06FF01801D2
:10381000484307EB800108EB0110B0FBF5F000F026
:103820000F00A9E700140140001001402DE9F0410C
:10383000984617460E460446069D1DE0681C1BD0A0
:103840002DB1FDF7FBFFA0EB0800A84214D92068BA
:10385000C16821F4D071C1602068416921F0010183
:103860004161202084F8390084F83A00002084F86F
:1038700038000320BDE8F0812068006836EA0000C7
:1038800004D00020B842D9D00020F3E70120F9E7A6
:103890000148FEF78BBF00003C050020FEE700005A
:1038A0000FB4054B10B503A9044A029800F0F4F8D0
:1038B00010BC5DF814FB0000C54800088001002022
:1038C0000907090E002804DB00F1E02080F800144D
:1038D000704700F00F0000F1E02080F8141D7047E1
:1038E0002DED020B019820F0004001909DED000BA2
:1038F00002B0704702E008C8121F08C1002AFAD1BE
:1039000070477047002001E001C1121F002AFBD15F
:10391000704700002DE9FF5F82B00021DDE904302F
:10392000020DDDF840B0034318D044F61050A2F267
:10393000FF3242431514119801281FD0A5EB0B004C
:10394000401C5FEA000A4FF000064E4FDFF8389146
:10395000B046504615D5CAF1000413E01198012471
:103960004AA3012801D16FEA0B010298119AC0E91C
:103970000031C0E9024206B0BDE8F09FCBF1000083
:10398000DFE704460021404A491842EB0450CDE9E4
:10399000001012E0E00707D032463B464046494659
:1039A000FCF71FFD8046894632463B4610461946C5
:1039B000FCF717FD06460F466410002CEAD1DDE93E
:1039C0000401DDE90023BAF1000F06DAFCF709FD76
:1039D00042464B46FCF705FD05E0FCF7D6FE4246A5
:1039E0004B46FCF7D2FE04460E460022284BFCF75D
:1039F0007BFD03D84FF0FF30014607E00022254B46
:103A000020463146FCF71AFEFCF72EFF102409E091
:103A1000002C0ADB0A220023FCF78EFC039B3032C9
:103A20001A55641E50EA0102F2D1641C039AC4F1D3
:103A300011031444119A012A03D0012208430DD125
:103A40000AE0084304D000204FF0110B119072E7F8
:103A5000A3EB0B056D1E0DE05B4504DD4FF000028E
:103A600005F1010504E003DA4FF00002A5F10105BC
:103A7000002AECD002981199C0E90231C0E9004552
:103A800079E70000000014400000F03F3000000023
:103A90000000F0430000E03F2DE9FF4F95B09B464A
:103AA0008946064600250FE2252877D100242746BF
:103AB000F84A0121059400E0044316F8013F203B39
:103AC00001FA03F01042F7D130782A2811D06FF0B4
:103AD0002F033078A0F13002092A16D8059A44F055
:103AE000020402EB820203EB42021044761C0590B2
:103AF000EFE759F8042B0592002A03DA504244F408
:103B00000054059044F00204761C30782E2816D11B
:103B100016F8010F44F004042A280DD06FF02F028C
:103B20003078A0F13003092B09D807EB870302EBAB
:103B30004303C718761CF3E759F8047B761C3078EA
:103B40006C280FD006DC4C2817D068280DD06A28C6
:103B500014D104E0742810D07A280FD10DE044F479
:103B600000140AE044F4801401E044F44014727834
:103B7000824202D104F58014761C761C30786628C7
:103B80000BD013DC582877D009DC002875D04528E5
:103B9000F6D04628F4D047281AD19DE118E06328D2
:103BA00035D0642879D0652812D195E1702873D07A
:103BB00008DC6728F1D069286FD06E280DD06F28F7
:103BC00006D1B5E073282CD0752875D0782874D02C
:103BD0005A46179990476D1C75E1C4F302500228AC
:103BE00009D003280DD0D9F8001004280DD00D609D
:103BF00009F1040967E1D9F80010EA17C1E9005298
:103C0000F6E7D9F800100D80F2E70D70F0E719F82B
:103C1000041B8DF8001000208DF80100EA460120F9
:103C200003E059F804AB4FF0FF3061074FF000019B
:103C300002D40DE008F101018846B9420FDA80454F
:103C4000F8DB1AF808100029F4D108E008F10101A6
:103C500088468142FADB1AF808100029F6D1059847
:103C60005B46A0EB080721463846179A00F094FA05
:103C7000284400EB080507E04DE029E10DE01AF8C3
:103C8000010B5A4617999047B8F10108F7D25B46E5
:103C900021463846179A13E142E00A220092C4F303
:103CA00002524FF0000A022A08D059F804CB032A26
:103CB0004FEAEC710AD00DE029E02AE009F1070192
:103CC00021F00702F2E802C1914609E00FFA8CFCEC
:103CD0004FEAEC71042A03D14FFA8CFC4FEAEC71E5
:103CE000002907DA0A460021DCF1000C61EB020131
:103CF0002D2202E0220504D52B228DF8042001227A
:103D000003E0E20701D02022F7E7904659E00A21BC
:103D100002E010220DE010214FF0000A00910BE0AC
:103D200010224FF0000A44F004040827009203E038
:103D300008224FF0000A0092C4F30252022A05D072
:103D400059F804CB0021032A08D009E009F1070142
:103D500021F00702F2E802C1914605E01FFA8CFC4F
:103D6000042A01D10CF0FF0C4FF00008220728D5DF
:103D7000702806D0009B83F0100353EA0A0305D095
:103D80000EE040228DF80420012208E05CEA0102E6
:103D900006D030228DF804208DF8050002229046CE
:103DA000009B83F0080353EA0A030AD15CEA01028C
:103DB00001D1620705D530228DF804204FF00108AB
:103DC0007F1E582804D034A003900EA802900DE066
:103DD00036A0F9E753466046009AFCF7ADFA8446F0
:103DE0000398825C0298401E029002705CEA010017
:103DF000F0D1029806A9081A00F1200A600702D53E
:103E000024F4803400E00127574502DDA7EB0A00C7
:103E100000E0002000EB0A01009005984144401AA0
:103E20000590E00306D45B462146179A059800F0FA
:103E3000B3F90544002706E001A85A46C05D17996A
:103E400090476D1C7F1C4745F6DBE0030CD55B46B5
:103E50002146179A059800F09FF9054404E03020A8
:103E60005A46179990476D1C0099481E00900029EA
:103E7000F5DC08E0029802995A460078491C029144
:103E8000179990476D1CBAF10001AAF1010AF1DC03
:103E900065E100000928010030313233343536370E
:103EA0003839616263646566000000003031323386
:103EB0003435363738394142434445460000000026
:103EC00000F058F90544761C307800287FF4ECADFA
:103ED00019B02846BDE8F08F620700D4062709F123
:103EE000070222F0070CFCE80223E14603F0004839
:103EF0005FEA080C02D00FF2702C0DE05FEA045C60
:103F000002D50FF2682C07E05FEAC47C02D00FF202
:103F1000602C01E0AFF2700C4FF0FF3823F000434B
:103F2000CDF850C065280CD006DC452809D04628BD
:103F30001DD047283DD13DE0662818D067287ED1A6
:103F400038E00021112F01DB112000E0781CCDE9C1
:103F5000000106A90EA8FFF7DDFCDDE90F010E9AAE
:103F600003910021009207F1010A04914DE04FF006
:103F700000400097CDE9011006A90EA8FFF7CAFC82
:103F8000DDE90F0203920E9B11990022DDF80CA0CF
:103F90000093049211B9791C00EB010AB7EB0A00F7
:103FA00004D4C0F1FF3007F1010A0490AAEB070026
:103FB000019044E0012F00DA01270021112F01DDDB
:103FC000112000E03846CDE9000106A90EA8FFF750
:103FD000A1FCDDE90F010E9A0391002104910092EA
:103FE000BA4621070CD40399514500DA8A46BAF142
:103FF000010F05DD009AAAF10101515C302908D0BA
:10400000B84202DA10F1040F06DA0121CDE90110FD
:1040100015E0AAF10101E9E7002805DC0499014453
:104020000491AAEB000102E0411C514500DD8A46E3
:104030000499401A401C01904FF000400290200764
:1040400004D40198504501DBCDF8048000208DF8A0
:104050004F0002980DF14F07B0F1004F25D02B20F3
:104060000E9002984FF0020800280CDA40420290AD
:104070002D200E9007E00A210298FCF74DFA30310E
:10408000029007F8011DB8F10001A8F10108F2DC67
:1040900002980028EFD1791E0E980870307800F051
:1040A000200040F0450007F8020D12A8C01B00F1E7
:1040B00007081498007800B1012000EB0A0101986C
:1040C00001EBE07105984144401A401E0590E00361
:1040D00006D45B462146179A059800F05DF8054422
:1040E0001498007818B15A46179990476D1CE00350
:1040F00024D55B462146179A059800F04DF80544F3
:104100001CE00498002807DBDDE90301884203DD99
:104110000098405C179901E0179930205A46904763
:10412000049805F10105401C04900198401E01907F
:1041300004D12E205A46179990476D1CBAF1000100
:10414000AAF1010ADDDC05E017F8010B5A461799C0
:1041500090476D1CB8F10001A8F10108F4DC5B4642
:104160002146179A0598ABE62D0000002B000000B1
:10417000200000002DE9F041044600251E461746A8
:10418000880404D405E039462020B0476D1C641E25
:10419000F9D52846BDE8F0812DE9F0410446002517
:1041A0001E469046C80301D5302700E0202788042A
:1041B00004D505E041463846B0476D1C641EF9D56C
:1041C0002846BDE8F081000000B58BB00021012237
:1041D000CDE906120591009101910291039104919C
:1041E0000E21CDE908216946FCF792FD0448FDF750
:1041F00095F802210248FCF715FD0BB000BD000048
:104200008401002070B5002836D0002934D0002A5F
:1042100032D0002B30D0334C9FED330A247864B376
:10422000012C2AD0022C2DD0032C2FD0042C46D0C8
:10423000052C21D11C68B4F9004004EB840464000F
:1042400000EE104A6FF00904B8EEC00A80ED000AD3
:104250001868408810FB04F000EE100AB8EEC00A9F
:1042600081ED000A1868808810FB04F000EE100A47
:10427000B8EEC00A82ED000A70BD80ED000A81ED43
:10428000000AF7E7BDE8704000F058B914461D4633
:104290001A4600F0B5F9286895ED670A9FED131AE4
:1042A000B0F9040000EE900AF8EEE00A00EEC10A50
:1042B0009FED0F1ADFED0F0A00F0C8FC0FE0144667
:1042C0001D461A4600F09CF92868DFED0B0AB0F98C
:1042D000040000EE100AB8EEC00A20EE200A84EDB9
:1042E000000A70BDA000002000000000A69BC43B97
:1042F000DB0F4940DB0F49C00AD723BC30B500288B
:1043000018D00168042202230C7A1049032C12D021
:104310000125022C11D0012C12D0097849B10129B4
:104320000CD002290DD003290ED0042906D005296E
:1043300000D1027130BD0A7000E00D70037130BD14
:104340000B700021017130BD057130BDA00000204F
:104350007FB504469FED470A00200090019002902F
:104360000390D4ED621A94ED631AD4ED640A014609
:1043700031EE612ADFED402A31EEC13A684600EEA7
:10438000A23A8DED003A31EE813AF1EE611A71EE0A
:10439000C11A9FED3A1A00EEA23A40EE811A00EEE1
:1043A000812A8DED013ACDED021A8DED032A227995
:1043B000042A11D100EB810201EB810392ED000A86
:1043C00004EB8303491CBDEEC00AC9B2042910EEF8
:1043D000102A1A83EED37FBD00EB8102D2ED000AD2
:1043E00001EB810204EB8202C2ED050AF0EEE00A65
:1043F000B4EEE00AF1EE10FA01D2B0EE600A491C08
:10440000C9B20429E8D310EE100AB0F1814F13DDD0
:10441000B1EE001A5FF00000C1EE000A00EB80016F
:1044200004EB8101401C91ED050AC0B2042820EE86
:10443000200A81ED050AF1D35FF0000505EB850048
:1044400004EB800605EB850000EBC50004EB800063
:10445000D6ED040A96ED050A583000F09DFFBDEE3A
:10446000C00A6D1CEDB210EE100A042D3083E5D3A6
:104470007FBD000000000000EB5138BEAF4761BEB9
:10448000002854D00021DFED2A0A9FED2A1A00BF30
:1044900001EB810200EB82029368B3F9063000EE73
:1044A000103A01EB810303EBC103B8EEC00A00EB45
:1044B0008303491CC9B220EE200A042982ED040AB4
:1044C00093ED1D0AD3ED1E1A30EE610A20EE010AAB
:1044D00082ED030ADCD390ED092AD0ED041A90EDA9
:1044E0000E0A90ED131A72EE610AF1EE611A71EE86
:1044F000C21A70EE800A31EE802A31EEC00A70EEE8
:10450000C12AF5EE000A32EE012A30EE410A62EECF
:10451000A02A22EE202A20EE200ADFED070AC0EDB5
:104520005F2A80ED602A80EE201A80ED611A7047C4
:104530000A01DA390000FA43CDCC4C3E70B51C4676
:10454000154600284DD000294BD0002D49D0002C15
:1045500047D01A4600F054F820689FED220A224CFA
:10456000408A810606D5617831B90121617084EDF8
:10457000010A01E000216170810703D1410701D4E4
:10458000000702D5DFED190A01E0DFED190AC4EDDD
:10459000030A607890B194ED010AFBF783FED4ED35
:1045A000030A20EE200ADFED130A84ED020A94EDDF
:1045B000010A30EE200A84ED010A03E084ED020ACC
:1045C00094ED010A0C4910EE100A884205DDDFED7A
:1045D0000B0A30EE600A84ED010A94ED020A85EDC3
:1045E000000A70BD00000000A00000207CD9A03EA1
:1045F0003333333F2EE34D3CDB0FC940DB0FC94063
:1046000070B514002DED028B0D46064663D0002ECA
:1046100061D0002D5FD02268B2F9000000F10A01DC
:10462000152900D20020B2F9021001F10A03152B5E
:1046300000D2002100EE100ADFED280A508AB8EE01
:10464000C00A60EE208A00EE101ADFED250AC107CD
:10465000B8EEC00A20EE208A02D0D4ED688A03E0CA
:10466000810701D5D4ED698A410702D594ED6A8AA4
:1046700003E0000701D594ED6B8AB0EE680A04F5FB
:10468000AE7000F0DFF8B0EE480A04F5B67000F046
:10469000D9F818EE900A13499FED130A884206DAFA
:1046A00018EE900A1149884201D284ED580A18EE9A
:1046B000100A0F49884206DA18EE100A0D4988429E
:1046C00001D284ED5C0A94ED580A86ED000A94ED5F
:1046D0005C0A85ED000ABDEC028B70BDA69BC43B55
:1046E0000AD7A3BB90C2753D0000000090C275BD03
:1046F000CCCC4C3DCCCC4CBD30B504002DED048B66
:1047000083B02BD09FED498A03468DED008A8DED55
:10471000018A8DED028A02AA01A96846FFF772FD9F
:1047200020799FED431ADFED430A04F59475C8B173
:10473000012847D0022864D004280FD19DED000A3B
:1047400084ED620A9DED010A84ED630A9DED020A83
:1047500084ED640A84ED588A84ED5C8A03B0BDEC74
:10476000048B30BD9DED000ADDED011A28EE002A14
:1047700008EE212A68EE211A48EE401A84ED622ADA
:10478000C4ED631A9DED020A00F060FA84ED660A3A
:10479000F0EE480A284600F0FFFDB1EE400A84ED35
:1047A000640A94ED681AD4ED690A94ED620A00F087
:1047B00079F884ED620A94ED6A1AD4ED6B0A94EDEF
:1047C000630A19E0F0EE418AB0EE609A9DED020AAC
:1047D00000F03CFA84ED670AD4ED6C0AB0EE681A7A
:1047E00030EE600AF0EE490A00F030FAF0EE480AC6
:1047F000284600F0D1FD06E000F054F884ED630A8D
:10480000ACE79DED020A84ED640A94ED681AD4EDDC
:10481000690A9DED000A00F045F884ED620A94ED06
:104820006A1AD4ED6B0A9DED010AE5E7000000006D
:10483000DB0F4940DB0F49C0014900200870704779
:104840009C00002010B510EE103A03608168C26829
:1048500000EE101A00EE902A446830EE201A00EEA6
:10486000101AC0EE010A00EE104A20EE801A00EE87
:10487000101A00EE902A70EE201A00EE102AC0EEF8
:10488000210A00EE103A00EE801A11EE101A416073
:1048900010BD10EE102AC26009688160002101601D
:1048A00041607047B4EEE00AF1EE10FA02D2B0EEC9
:1048B000600A7047B4EEC10AF1EE10FAF9DDB0EE0D
:1048C000410A704713B54FF6FF730122694602484B
:1048D000FEF791F800981CBD7C0500200148007887
:1048E000704700009C00002000F003000249C0EB6C
:1048F000C00001EB40007047B20000200048704744
:104900009846002010B559482DED0A8BB0F90610D5
:10491000B0F908009FED569BDFED57BA574C9FED5D
:10492000588A9FED58BADFED58AA9FED58AADFEDDF
:10493000588A00294EDA9FED57CA00282ADA91FBDF
:10494000F0F0FBF7C0FD41EC100BFEF7C9FF53EC94
:10495000192B51EC100BFBF7C7FD0AD8C4ED01BAB7
:1049600084ED028A9FED4C0A84ED030A9FED4B0A09
:104970000BE09FED4B0A84ED010A9FED4A0A84ED9E
:10498000020A84ED03BA9FED480A84ED040ABDECE7
:104990000A8B10BDFBDD91FBF0F0FBF794FD41ECC1
:1049A000100BFEF79DFF53EC192B51EC100BFBF78E
:1049B0009BFD84ED01CA06D884ED028AC4ED03AAEA
:1049C0009FED3A0AE1E784ED02AAC4ED038A9FED68
:1049D000380ADAE7DBDD00289FED36CA22DD91FBDD
:1049E000F0F0FBF770FD41EC100BFEF779FF53EC94
:1049F000192B51EC100BFBF777FD0AD89FED2E0A0F
:104A000084ED010AC4ED02AA84ED038AC4ED04BA60
:104A1000BDE79FED2A0A84ED010AC4ED028A84ED08
:104A200003AAB2E7B3DA91FBF0F0FBF74CFD41ECDF
:104A3000100BFEF755FF53EC192B51EC100BFBF745
:104A400053FD84ED01CA08D89FED1D0A84ED020ACA
:104A500084ED038A9FED1B0A97E79FED1B0A84ED07
:104A600002BA84ED030A9FED190A8EE7AC4A0020D2
:104A7000000000000000F03F0AD7A3BB2001002087
:104A8000A8C64BBEE17A543F355E7ABF68910DBF30
:104A9000E17A54BF0AD7A33BBE9F7A3F4ED111BCE7
:104AA0006F1203BC7B140EBF6F1203BBA69B443C6A
:104AB00099BB16BB0AD7233B52499D3A99BB163B7B
:104AC000355E7A3F6F12033C295C0FBFBC74933B89
:104AD00010B530216A2000F039FA0A20FCF7B0FD49
:104AE0000D21242000F032FA0A20FCF7A9FD0E2146
:104AF000282000F02BFA0A20FCF7A2FD8E2131209D
:104B000000F024FA0A20FCF79BFD01210B2000F0A5
:104B10007BF80A20FCF794FD002000F059F81028DB
:104B200001D0012010BD01210B2000F06DF80A20FA
:104B3000FCF786FD00210A2000F066F80A2000F04C
:104B400047F808B1022010BD0A20FCF779FD0021CA
:104B50000B2000F059F80B2000F03AF808B10320C0
:104B600010BD0A20FCF76CFD2421412000F04CF818
:104B7000412000F02DF8242801D0042010BD0A2087
:104B8000FCF75EFDC021422000F03EF8422000F01C
:104B90001FF8C02801D0052010BD0A20FCF750FDE9
:104BA00000212A2000F0D2F90A20FCF749FD00215B
:104BB000342000F0CBF90A20FCF742FD0622032145
:104BC0000E2000F0C9F86420FCF73AFD002010BD6B
:104BD00010B50146322000F0B9F90A20FCF730FD8B
:104BE0008021342000F0B2F90A20FCF729FD35209D
:104BF00000F04CF904460021342000F0A7F90A2007
:104C0000FCF71EFD204610BD70B50D460446002180
:104C10002A2000F09BF90220FCF712FD21462920F2
:104C200000F094F90220FCF70BFD2946642000F007
:104C30008DF90220FCF704FD81212A2000F086F97D
:104C4000BDE870400A20FCF7FBBC0000B4EEE01A9F
:104C5000F1EE10FA0FD371EE601AB4EEC10AF1EE64
:104C600010FA03DC08E000BF30EE610AB4EEC10ABE
:104C7000F1EE10FAF8DC7047B4EEE00AF1EE10FA4B
:104C800002D3704730EE210AB4EEE00AF1EE10FADA
:104C9000F8D37047FCF7E0FDFEF75CFAFDF7CCFFB8
:104CA000FDF788FFFDF764FFFEF74AF8FEF7FEF810
:104CB000FEF71AF9FEF76AF8FEF78CF8FEF7C2F86D
:104CC0000648FFF781FA642205490648FDF78AFE87
:104CD000FDF786FF00F031FBFEE7000084010020B5
:104CE000344600203C05002001460020842900D0E5
:104CF000C81C704730B585B06420FCF7A1FC752056
:104D000000F0C4F812490024142288701149684642
:104D1000FBF743FB4FEA0D0505EB4400417815F81E
:104D2000140000F013F90120FCF78AFC641CE4B2C3
:104D30000A2CF1D3032000F004F9022000F0FCF863
:104D4000FFF7C6FE00F050F805B0002030BD0000AF
:104D500020010020CC6A000870B50E4604460146CA
:104D60001546282000F0F2F80220FCF769FC0A2121
:104D7000292000F0EBF80220FCF762FC01216420FE
:104D800000F0E4F80220FCF75BFC44F080012520F1
:104D900000F0DCF80220FCF753FC3146262000F03E
:104DA000D5F80220FCF74CFC0321342000F0CEF8AB
:104DB0000220FCF745FC0321672000F0C7F8022021
:104DC000FCF73EFC81212A2000F0C0F80620FCF709
:104DD00037FC45F08001272000F0B8F8BDE87040AE
:104DE0000220FCF72DBC00002DE9F041264E0027E3
:104DF00006F10E044FF496750E2223493B2000F075
:104E00006DF83188A08A49BA0844A0827188E08A86
:104E100049BA0844E082B188208B49BA084420830B
:104E20003189608B49BA084460837189A08B49BA83
:104E30000844A083B189E08B49BA0844E083052087
:104E4000FCF7FEFB7F1CAF42D6DBB4F9140090FBED
:104E5000F5F0A082B4F9160090FBF5F0E082B4F909
:104E6000180090FBF5F02083B4F91A0090FBF5F0E0
:104E700000B2608390FBF5F0A083B4F91E0090FBB4
:104E8000F5F0E083BDE8F081E04A0020F8B5104E6F
:104E90000446002240213046FCF7CAFC44F0800062
:104EA0000C4C3725621C20700123511E0A480095C6
:104EB000FDF734F9621C0123511E07480095FDF7E8
:104EC0002DF9012240213046FCF7B2FC6078F8BD94
:104ED000001402402001002064040020F8B5134FA4
:104EE00015460E460446002240213846FCF7A0FC39
:104EF0000F4944F08000372408705231A1F151026B
:104F00000870012352390B480094FDF707F908494E
:104F10002B463246523107480094FDF7FFF8012234
:104F200040213846FCF784FC0020F8BD0014024004
:104F30002001002064040020C006010E1C2000F0A7
:104F400005B8C006010E1B20AFF30080F8B5114F65
:104F50000E460446002240213846FCF769FC04F066
:104F60007F000D4C3725621C20700123511E0B4819
:104F70000095FDF7D3F82670621C0123511E0748E7
:104F80000095FDF7CBF8012240213846FCF750FC94
:104F90000020F8BD0014024020010020640400201D
:104FA0002DE9F047002000F02DF8DFF854900024A0
:104FB0005FF0000609EBC60000EBD400002507787F
:104FC0004FFA86F8380604EB050041B201D50122FC
:104FD00000E00022404600F035F878066D1C070E10
:104FE000EDB2082DEED3761CF6B2802EE2D3083453
:104FF000E4B2402CDCD3BDE8F04700F0D9B80000A3
:10500000CC660008F0B500210D4BFF260C460022AF
:1050100001280FD003EBC20580B16F5CC7F1FF0719
:105020006F54521CD2B2802AF2D3491CC9B208294B
:10503000EDD3F0BD03EBC2056E54F2E76C54F0E71C
:10504000AC46002070B5802817D2002915DB3F2917
:1050500013DCCB1701EB5375C5F3C70325F0070528
:105060000124094E491B8C4006EBC000012A05D0E3
:10507000C15C022A05D0A143C15470BDC15C21436B
:10508000FAE76140F8E70000AC46002070B5474DF4
:105090004FF48064002221462846FCF7C9FB4FF4F8
:1050A000FA70FCF7CDFA012221462846FCF7C0FB36
:1050B0000021AE2000F022F90021084600F01EF980
:1050C0000021102000F01AF90021402000F016F90C
:1050D0000021812000F012F90021CF2000F00EF90C
:1050E0000021A12000F00AF90021C82000F006F9F3
:1050F0000021A62000F002F90021A82000F0FEF80F
:1051000000213F2000F0FAF80021D32000F0F6F84B
:105110000021084600F0F2F80021D52000F0EEF85A
:105120000021802000F0EAF80021D92000F0E6F804
:105130000021F12000F0E2F80021DA2000F0DEF892
:105140000021122000F0DAF80021DB2000F0D6F870
:105150000021402000F0D2F80021202000F0CEF8FD
:105160000021022000F0CAF800218D2000F0C6F8CE
:105170000021142000F0C2F80021A42000F0BEF8A5
:105180000021A62000F0BAF80021AF2000F0B6F808
:105190000021AF2000F0B2F80020FFF733FFBDE898
:1051A00070400021084600F01DB8000000040240D5
:1051B00070B50B4E00242146002000F013F80025A6
:1051C00006EBC5000121005D00F098F86D1CEDB202
:1051D000802DF5D3641CE4B2082CECD370BD000024
:1051E000AC46002010B5801CC4B2B031C8B200215A
:1051F00000F084F8102040EA1410002100F07EF83E
:1052000004F0F000BDE81040002100F077B8000085
:105210002DE9F04F01EB410100EB4000490680060B
:10522000040E203A4FEA1169D0B2164900EB400053
:10523000A046002501EB800B00261BF805704FFAF5
:1052400089FA380601D5012200E0002261B25046F9
:10525000FFF7F8FE7806641C070EE4B2A4EB080022
:105260000C2809D0761CF6B2082EEAD36D1CEDB2DC
:105270000C2DE1D3BDE8F08F09F10100444600F0A8
:10528000FF09F3E7586200082DE9F0470026994628
:105290001746884682463446089D2AE0281B401E51
:1052A0000A22C1B2012000E05043491EC9B2FBD21C
:1052B000B7FBF0F00A21B0FBF1F201FB120026B9B6
:1052C000691E8C4201DA30B101263030C2B208EBDF
:1052D0000400C1B208E008EB0400B9F1000FC1B24C
:1052E00001D0302200E020225046FFF791FF641CDD
:1052F000E4B2AC42D2D3BDE8F087000013B5084851
:105300004FF4007309B1012200E000221946FCF7B6
:105310008FFA0A23012269460248FCF751FE1CBDA0
:10532000000402400C04002010B500B9012000F078
:10533000BBFB002010BD8120704710B500F06EFC53
:10534000002010BD7FB50D4604464169B0F9080044
:1053500081B1A16971B1FFF7C7FCD4E905128DE8ED
:105360000700D4E900102B46226900F0ECFD039001
:1053700004B070BDFFF7B8FC03A9CDE90001208A95
:105380002B4682B2D4E9001000F0B0FD012801D014
:105390000020EDE70398EBE780ED050AC0ED060A73
:1053A00090ED071A70EE600A80ED081AC0ED070A4A
:1053B00090ED000A20EE202A80ED092A90ED0A0ADD
:1053C000D0ED011A01EEA00A80ED0A0AD0ED021A12
:1053D00011EEA01A80ED0B1AD0ED030AF1EE601A5F
:1053E000B4EEE10AF1EE10FA02D8B0EE610A06E07E
:1053F000B4EEE00AF1EE10FA01DBB0EE600A80EDE7
:105400000A0A32EE000A30EE010A80ED0C0AD0EDF5
:10541000040AB1EE601AB4EEC10AF1EE10FA02D835
:10542000B0EE410A06E0B4EEE00AF1EE10FA01DB5C
:10543000B0EE600A80ED0C0A704780EC050A7047F8
:105440002DE9F041184C0F46054666692068001D9D
:1054500000F066FA38B9206890F82C1001208840D6
:10546000A1698143A161681C07D137B12168BDE8FA
:10547000F0410E48091D00F097BA20683544B54246
:105480004560216805D2A068BDE8F041091D00F023
:1054900073BA6068091D00F06FFA206B854200D274
:1054A0002563BDE8F081000034000020F8060020EC
:1054B0002DE9F041054600F083FA2E4C2069401C8E
:1054C000206120682C4F10B1E06940B32DE02560C9
:1054D0002069012829D1002606EB860007EB800011
:1054E00000F03CFA761C072EF6D323488C3000F0EF
:1054F00035FA2148A03000F031FA1F48B43000F0EE
:105500002DFA1D48C83000F029FA1B48DC3000F0A5
:1055100025FA19488C3060601430A06005E02068DE
:10552000E96AC06A884200D82560E06A401CE062EF
:105530006864E96A0120A26988401043A06101EB18
:10554000810007EB8000291D00F02EFA00F058FAC8
:10555000E06900280CD02068E96AC06A884207D256
:1055600006494FF080500860BFF34F8FBFF36F8F35
:10557000BDE8F081340000201C06002004ED00E0AE
:1055800010B5044690F85D0058B101280CD00228EF
:105590000FD0502080F31188BFF34F8FBFF36F8F70
:1055A000FEE7206B00F040FA2046BDE8104000F016
:1055B0003BBA10BD10484FF47051420706D0C01DD1
:1055C0000D4920F00700411AC1F570510B4A002324
:1055D0000144C2E900030839103A21F007011160C3
:1055E0004B600B600B1AC0E9001393604FF0004052
:1055F0005360D060704700000C0700208800002036
:10560000144E154CA6F1C8074FF08058DFF84C90A7
:1056100012E000BF00F0D4F9F068C568281D00F062
:105620007FF92069401E2061E068401EE06000F0C4
:10563000E7F92846FFF7A4FFE0680028EAD13868B8
:105640000128F9D9C9F80080BFF34F8FBFF36F8FDE
:10565000F2E70000E40600203400002004ED00E042
:105660002DE9F0470E46DDE9098417468246910090
:105670009946089DA522206BFAF7A1FE6FF0030161
:10568000206B01EB8701084420F00707780707D05B
:10569000502080F31188BFF34F8FBFF36F8FFEE769
:1056A0002218315C82F83410315C11B1401C102892
:1056B000F6D3002684F84360072D00D30625E56263
:1056C000C4E91356201D00F054F904F1180000F04D
:1056D00050F92461C5F107006462A0616665A665A2
:1056E00084F85C604A465146384600F0D9F820609C
:1056F000B8F1000F01D0C8F80040BDE8F087000005
:1057000030B5114900E011460A688242FBD34B686C
:105710005C18844203D140681844486008464368D6
:105720001C18944209D1084C103C2468A24209D0AC
:1057300052681A4442600A6812680260814200D0CE
:10574000086030BD0460F9E7880000200648416821
:10575000096829B14168C968C96849680163704727
:105760004FF0FF31FAE7000034000020084840689D
:10577000401C4FF0500080F3118804D0BFF34F8FCE
:10578000BFF36F8FFEE7BFF34F8FBFF36F8FFEE75F
:1057900090000020002150B10A4B42699A420FD17B
:1057A000806AA3F1280290420AD040B108E050205C
:1057B00080F31188BFF34F8FBFF36F8FFEE7012196
:1057C00008467047F80600202DE9F04105460027FD
:1057D00000F0BAFA314E306808B9FFF7EBFEF06816
:1057E00005424BD1C5B3083568070ED005F0070058
:1057F000C0F108000544680707D0502080F31188E5
:10580000BFF34F8FBFF36F8FFEE72DB370688542F4
:1058100034D82248103001460C6801E020460C467E
:105820006168A94202D221680029F7D131688C420F
:1058300024D007682168016060680837411B10297F
:105840000FD96019420708D0502080F31188BFF3A8
:105850004F8FBFF36F8FFEE710E041606560FFF789
:105860004FFF61687068401A7060B268904200D261
:10587000B060F06801430020C4E9000100F006FCBC
:10588000780707D0502080F31188BFF34F8FBFF304
:105890006F8FFEE73846BDE8F081000078000020F9
:1058A00010B5031F4FF080741C601B1F21F0010115
:1058B0001960191F044B0B6014390A60091F6FF03F
:1058C000020244380A6010BD6D57000810B588B058
:1058D0004FF40074029400240A9804940594082458
:1058E00006940C0A8DF800408DF80110110A8DF80D
:1058F0000210190A8DF804108DF80530010A8DF890
:1059000006108DF803208DF8070001236A4602A9CE
:105910000248FBF799F908B010BD0000840100208F
:10592000D0E9013201699A60D0E901235A604A68DE
:10593000824201D182684A60002202610868401EEA
:105940000860086870470000034B036003F16000C3
:105950000860802010607047AC01002000F1080151
:105960004FF0FF32C0E90112C16001610021016006
:10597000704700210161704730B50B685A1C02D096
:1059800000F1080202E0026904E02246546825683A
:105990009D42FAD953684B6099608A6051600861F2
:1059A0000168491C016030BD42684A6093688B60A1
:1059B00093685960916008610168491C01607047F3
:1059C000502080F31188BFF34F8FBFF36F8F0A49C8
:1059D0004868401C486001280CD10848006810F055
:1059E000FF0F07D0502080F31188BFF34F8FBFF314
:1059F0006F8FFEE7704700009000002004ED00E08C
:105A00000849486828B1401E486001D180F31188D8
:105A10007047502080F31188BFF34F8FBFF36F8F13
:105A2000FEE700009000002070B5002827D0144D3C
:105A3000A0F108046168E868014207D1502080F3B2
:105A40001188BFF34F8FBFF36F8FFEE722683AB123
:105A5000502080F31188BFF34F8FBFF36F8FFEE7A5
:105A60008143616000F070F96068696808446860AB
:105A70002046FFF745FEBDE8704000F007BB70BD53
:105A8000780000204FF0E02000210161816105498C
:105A90004FF47A720968B1FBF2F1491E41610721A6
:105AA000016170473000002010B5020014D00F488B
:105AB000806B38B1502080F31188BFF34F8FBFF354
:105AC0006F8FFEE700F040F900211046FFF7B8FCA9
:105AD00000F0DCFA002807D105494FF0805008603B
